{
	"contracts/UniswapV3Oracle.sol": {
		"UniswapV3Oracle": {
			"abi": [
				{
					"inputs": [
						{
							"internalType": "address",
							"name": "_token0",
							"type": "address"
						},
						{
							"internalType": "address",
							"name": "_token1",
							"type": "address"
						},
						{
							"internalType": "address",
							"name": "_factory",
							"type": "address"
						},
						{
							"internalType": "uint24",
							"name": "_fee",
							"type": "uint24"
						}
					],
					"stateMutability": "nonpayable",
					"type": "constructor"
				},
				{
					"inputs": [
						{
							"internalType": "address",
							"name": "tokenIn",
							"type": "address"
						},
						{
							"internalType": "uint128",
							"name": "amountIn",
							"type": "uint128"
						},
						{
							"internalType": "uint32",
							"name": "secondsAgo",
							"type": "uint32"
						}
					],
					"name": "estimateAmountOut",
					"outputs": [
						{
							"internalType": "uint256",
							"name": "amountOut",
							"type": "uint256"
						}
					],
					"stateMutability": "view",
					"type": "function"
				},
				{
					"inputs": [],
					"name": "pool",
					"outputs": [
						{
							"internalType": "address",
							"name": "",
							"type": "address"
						}
					],
					"stateMutability": "view",
					"type": "function"
				},
				{
					"inputs": [],
					"name": "token0",
					"outputs": [
						{
							"internalType": "address",
							"name": "",
							"type": "address"
						}
					],
					"stateMutability": "view",
					"type": "function"
				},
				{
					"inputs": [],
					"name": "token1",
					"outputs": [
						{
							"internalType": "address",
							"name": "",
							"type": "address"
						}
					],
					"stateMutability": "view",
					"type": "function"
				}
			],
			"devdoc": {
				"kind": "dev",
				"methods": {},
				"version": 1
			},
			"evm": {
				"assembly": "    /* \"contracts/UniswapV3Oracle.sol\":530:1479  contract UniswapV3Oracle {... */\n  mstore(0x40, 0xe0)\n    /* \"contracts/UniswapV3Oracle.sol\":671:982  constructor(address _token0,address _token1,address _factory,uint24 _fee){... */\n  callvalue\n  dup1\n  iszero\n  tag_1\n  jumpi\n  0x00\n  dup1\n  revert\ntag_1:\n  pop\n  mload(0x40)\n  sub(codesize, bytecodeSize)\n  dup1\n  bytecodeSize\n  dup4\n  codecopy\n  dup2\n  dup2\n  add\n  0x40\n  mstore\n  dup2\n  add\n  swap1\n  tag_2\n  swap2\n  swap1\n  tag_3\n  jump\t// in\ntag_2:\n    /* \"contracts/UniswapV3Oracle.sol\":761:768  _token0 */\n  dup4\n    /* \"contracts/UniswapV3Oracle.sol\":754:768  token0=_token0 */\n  0xffffffffffffffffffffffffffffffffffffffff\n  and\n  0x80\n  dup2\n  0xffffffffffffffffffffffffffffffffffffffff\n  and\n  0x60\n  shl\n  dup2\n  mstore\n  pop\n  pop\n    /* \"contracts/UniswapV3Oracle.sol\":785:792  _token1 */\n  dup3\n    /* \"contracts/UniswapV3Oracle.sol\":778:792  token1=_token1 */\n  0xffffffffffffffffffffffffffffffffffffffff\n  and\n  0xa0\n  dup2\n  0xffffffffffffffffffffffffffffffffffffffff\n  and\n  0x60\n  shl\n  dup2\n  mstore\n  pop\n  pop\n    /* \"contracts/UniswapV3Oracle.sol\":803:816  address _pool */\n  0x00\n    /* \"contracts/UniswapV3Oracle.sol\":835:843  _factory */\n  dup3\n    /* \"contracts/UniswapV3Oracle.sol\":817:852  IUniswapV3Factory(_factory).getPool */\n  0xffffffffffffffffffffffffffffffffffffffff\n  and\n  0x1698ee82\n    /* \"contracts/UniswapV3Oracle.sol\":866:873  _token0 */\n  dup7\n    /* \"contracts/UniswapV3Oracle.sol\":874:881  _token1 */\n  dup7\n    /* \"contracts/UniswapV3Oracle.sol\":882:886  _fee */\n  dup6\n    /* \"contracts/UniswapV3Oracle.sol\":817:896  IUniswapV3Factory(_factory).getPool(... */\n  mload(0x40)\n  dup5\n  0xffffffff\n  and\n  0xe0\n  shl\n  dup2\n  mstore\n  0x04\n  add\n  tag_6\n  swap4\n  swap3\n  swap2\n  swap1\n  tag_7\n  jump\t// in\ntag_6:\n  0x20\n  mload(0x40)\n  dup1\n  dup4\n  sub\n  dup2\n  dup7\n  dup1\n  extcodesize\n  iszero\n  dup1\n  iszero\n  tag_8\n  jumpi\n  0x00\n  dup1\n  revert\ntag_8:\n  pop\n  gas\n  staticcall\n  iszero\n  dup1\n  iszero\n  tag_10\n  jumpi\n  returndatasize\n  0x00\n  dup1\n  returndatacopy\n  revert(0x00, returndatasize)\ntag_10:\n  pop\n  pop\n  pop\n  pop\n  mload(0x40)\n  returndatasize\n  not(0x1f)\n  0x1f\n  dup3\n  add\n  and\n  dup3\n  add\n  dup1\n  0x40\n  mstore\n  pop\n  dup2\n  add\n  swap1\n  tag_11\n  swap2\n  swap1\n  tag_12\n  jump\t// in\ntag_11:\n    /* \"contracts/UniswapV3Oracle.sol\":803:896  address _pool=IUniswapV3Factory(_factory).getPool(... */\n  swap1\n  pop\n    /* \"contracts/UniswapV3Oracle.sol\":929:930  0 */\n  0x00\n    /* \"contracts/UniswapV3Oracle.sol\":914:931  _pool!=address(0) */\n  0xffffffffffffffffffffffffffffffffffffffff\n  and\n    /* \"contracts/UniswapV3Oracle.sol\":914:919  _pool */\n  dup2\n    /* \"contracts/UniswapV3Oracle.sol\":914:931  _pool!=address(0) */\n  0xffffffffffffffffffffffffffffffffffffffff\n  and\n  eq\n  iszero\n    /* \"contracts/UniswapV3Oracle.sol\":906:955  require(_pool!=address(0),\"Pools does not exist\") */\n  tag_13\n  jumpi\n  mload(0x40)\n  0x08c379a000000000000000000000000000000000000000000000000000000000\n  dup2\n  mstore\n  0x04\n  add\n  tag_14\n  swap1\n  tag_15\n  jump\t// in\ntag_14:\n  mload(0x40)\n  dup1\n  swap2\n  sub\n  swap1\n  revert\ntag_13:\n    /* \"contracts/UniswapV3Oracle.sol\":970:975  _pool */\n  dup1\n    /* \"contracts/UniswapV3Oracle.sol\":965:975  pool=_pool */\n  0xffffffffffffffffffffffffffffffffffffffff\n  and\n  0xc0\n  dup2\n  0xffffffffffffffffffffffffffffffffffffffff\n  and\n  0x60\n  shl\n  dup2\n  mstore\n  pop\n  pop\n    /* \"contracts/UniswapV3Oracle.sol\":671:982  constructor(address _token0,address _token1,address _factory,uint24 _fee){... */\n  pop\n  pop\n  pop\n  pop\n  pop\n    /* \"contracts/UniswapV3Oracle.sol\":530:1479  contract UniswapV3Oracle {... */\n  jump(tag_16)\n    /* \"#utility.yul\":7:150   */\ntag_18:\n  0x00\n    /* \"#utility.yul\":95:101   */\n  dup2\n    /* \"#utility.yul\":89:102   */\n  mload\n    /* \"#utility.yul\":80:102   */\n  swap1\n  pop\n    /* \"#utility.yul\":111:144   */\n  tag_20\n    /* \"#utility.yul\":138:143   */\n  dup2\n    /* \"#utility.yul\":111:144   */\n  tag_21\n  jump\t// in\ntag_20:\n    /* \"#utility.yul\":70:150   */\n  swap3\n  swap2\n  pop\n  pop\n  jump\t// out\n    /* \"#utility.yul\":156:297   */\ntag_22:\n  0x00\n    /* \"#utility.yul\":243:249   */\n  dup2\n    /* \"#utility.yul\":237:250   */\n  mload\n    /* \"#utility.yul\":228:250   */\n  swap1\n  pop\n    /* \"#utility.yul\":259:291   */\n  tag_24\n    /* \"#utility.yul\":285:290   */\n  dup2\n    /* \"#utility.yul\":259:291   */\n  tag_25\n  jump\t// in\ntag_24:\n    /* \"#utility.yul\":218:297   */\n  swap3\n  swap2\n  pop\n  pop\n  jump\t// out\n    /* \"#utility.yul\":303:587   */\ntag_12:\n  0x00\n    /* \"#utility.yul\":422:424   */\n  0x20\n    /* \"#utility.yul\":410:419   */\n  dup3\n    /* \"#utility.yul\":401:408   */\n  dup5\n    /* \"#utility.yul\":397:420   */\n  sub\n    /* \"#utility.yul\":393:425   */\n  slt\n    /* \"#utility.yul\":390:392   */\n  iszero\n  tag_27\n  jumpi\n    /* \"#utility.yul\":438:439   */\n  0x00\n    /* \"#utility.yul\":435:436   */\n  dup1\n    /* \"#utility.yul\":428:440   */\n  revert\n    /* \"#utility.yul\":390:392   */\ntag_27:\n    /* \"#utility.yul\":481:482   */\n  0x00\n    /* \"#utility.yul\":506:570   */\n  tag_28\n    /* \"#utility.yul\":562:569   */\n  dup5\n    /* \"#utility.yul\":553:559   */\n  dup3\n    /* \"#utility.yul\":542:551   */\n  dup6\n    /* \"#utility.yul\":538:560   */\n  add\n    /* \"#utility.yul\":506:570   */\n  tag_18\n  jump\t// in\ntag_28:\n    /* \"#utility.yul\":496:570   */\n  swap2\n  pop\n    /* \"#utility.yul\":452:580   */\n  pop\n    /* \"#utility.yul\":380:587   */\n  swap3\n  swap2\n  pop\n  pop\n  jump\t// out\n    /* \"#utility.yul\":593:1344   */\ntag_3:\n  0x00\n  dup1\n  0x00\n  dup1\n    /* \"#utility.yul\":762:765   */\n  0x80\n    /* \"#utility.yul\":750:759   */\n  dup6\n    /* \"#utility.yul\":741:748   */\n  dup8\n    /* \"#utility.yul\":737:760   */\n  sub\n    /* \"#utility.yul\":733:766   */\n  slt\n    /* \"#utility.yul\":730:732   */\n  iszero\n  tag_30\n  jumpi\n    /* \"#utility.yul\":779:780   */\n  0x00\n    /* \"#utility.yul\":776:777   */\n  dup1\n    /* \"#utility.yul\":769:781   */\n  revert\n    /* \"#utility.yul\":730:732   */\ntag_30:\n    /* \"#utility.yul\":822:823   */\n  0x00\n    /* \"#utility.yul\":847:911   */\n  tag_31\n    /* \"#utility.yul\":903:910   */\n  dup8\n    /* \"#utility.yul\":894:900   */\n  dup3\n    /* \"#utility.yul\":883:892   */\n  dup9\n    /* \"#utility.yul\":879:901   */\n  add\n    /* \"#utility.yul\":847:911   */\n  tag_18\n  jump\t// in\ntag_31:\n    /* \"#utility.yul\":837:911   */\n  swap5\n  pop\n    /* \"#utility.yul\":793:921   */\n  pop\n    /* \"#utility.yul\":960:962   */\n  0x20\n    /* \"#utility.yul\":986:1050   */\n  tag_32\n    /* \"#utility.yul\":1042:1049   */\n  dup8\n    /* \"#utility.yul\":1033:1039   */\n  dup3\n    /* \"#utility.yul\":1022:1031   */\n  dup9\n    /* \"#utility.yul\":1018:1040   */\n  add\n    /* \"#utility.yul\":986:1050   */\n  tag_18\n  jump\t// in\ntag_32:\n    /* \"#utility.yul\":976:1050   */\n  swap4\n  pop\n    /* \"#utility.yul\":931:1060   */\n  pop\n    /* \"#utility.yul\":1099:1101   */\n  0x40\n    /* \"#utility.yul\":1125:1189   */\n  tag_33\n    /* \"#utility.yul\":1181:1188   */\n  dup8\n    /* \"#utility.yul\":1172:1178   */\n  dup3\n    /* \"#utility.yul\":1161:1170   */\n  dup9\n    /* \"#utility.yul\":1157:1179   */\n  add\n    /* \"#utility.yul\":1125:1189   */\n  tag_18\n  jump\t// in\ntag_33:\n    /* \"#utility.yul\":1115:1189   */\n  swap3\n  pop\n    /* \"#utility.yul\":1070:1199   */\n  pop\n    /* \"#utility.yul\":1238:1240   */\n  0x60\n    /* \"#utility.yul\":1264:1327   */\n  tag_34\n    /* \"#utility.yul\":1319:1326   */\n  dup8\n    /* \"#utility.yul\":1310:1316   */\n  dup3\n    /* \"#utility.yul\":1299:1308   */\n  dup9\n    /* \"#utility.yul\":1295:1317   */\n  add\n    /* \"#utility.yul\":1264:1327   */\n  tag_22\n  jump\t// in\ntag_34:\n    /* \"#utility.yul\":1254:1327   */\n  swap2\n  pop\n    /* \"#utility.yul\":1209:1337   */\n  pop\n    /* \"#utility.yul\":720:1344   */\n  swap3\n  swap6\n  swap2\n  swap5\n  pop\n  swap3\n  pop\n  jump\t// out\n    /* \"#utility.yul\":1350:1468   */\ntag_35:\n    /* \"#utility.yul\":1437:1461   */\n  tag_37\n    /* \"#utility.yul\":1455:1460   */\n  dup2\n    /* \"#utility.yul\":1437:1461   */\n  tag_38\n  jump\t// in\ntag_37:\n    /* \"#utility.yul\":1432:1435   */\n  dup3\n    /* \"#utility.yul\":1425:1462   */\n  mstore\n    /* \"#utility.yul\":1415:1468   */\n  pop\n  pop\n  jump\t// out\n    /* \"#utility.yul\":1474:1792   */\ntag_39:\n  0x00\n    /* \"#utility.yul\":1637:1704   */\n  tag_41\n    /* \"#utility.yul\":1701:1703   */\n  0x14\n    /* \"#utility.yul\":1696:1699   */\n  dup4\n    /* \"#utility.yul\":1637:1704   */\n  tag_42\n  jump\t// in\ntag_41:\n    /* \"#utility.yul\":1630:1704   */\n  swap2\n  pop\n    /* \"#utility.yul\":1734:1756   */\n  0x506f6f6c7320646f6573206e6f74206578697374000000000000000000000000\n    /* \"#utility.yul\":1730:1731   */\n  0x00\n    /* \"#utility.yul\":1725:1728   */\n  dup4\n    /* \"#utility.yul\":1721:1732   */\n  add\n    /* \"#utility.yul\":1714:1757   */\n  mstore\n    /* \"#utility.yul\":1783:1785   */\n  0x20\n    /* \"#utility.yul\":1778:1781   */\n  dup3\n    /* \"#utility.yul\":1774:1786   */\n  add\n    /* \"#utility.yul\":1767:1786   */\n  swap1\n  pop\n    /* \"#utility.yul\":1620:1792   */\n  swap2\n  swap1\n  pop\n  jump\t// out\n    /* \"#utility.yul\":1798:1913   */\ntag_43:\n    /* \"#utility.yul\":1883:1906   */\n  tag_45\n    /* \"#utility.yul\":1900:1905   */\n  dup2\n    /* \"#utility.yul\":1883:1906   */\n  tag_46\n  jump\t// in\ntag_45:\n    /* \"#utility.yul\":1878:1881   */\n  dup3\n    /* \"#utility.yul\":1871:1907   */\n  mstore\n    /* \"#utility.yul\":1861:1913   */\n  pop\n  pop\n  jump\t// out\n    /* \"#utility.yul\":1919:2357   */\ntag_7:\n  0x00\n    /* \"#utility.yul\":2104:2106   */\n  0x60\n    /* \"#utility.yul\":2093:2102   */\n  dup3\n    /* \"#utility.yul\":2089:2107   */\n  add\n    /* \"#utility.yul\":2081:2107   */\n  swap1\n  pop\n    /* \"#utility.yul\":2117:2188   */\n  tag_48\n    /* \"#utility.yul\":2185:2186   */\n  0x00\n    /* \"#utility.yul\":2174:2183   */\n  dup4\n    /* \"#utility.yul\":2170:2187   */\n  add\n    /* \"#utility.yul\":2161:2167   */\n  dup7\n    /* \"#utility.yul\":2117:2188   */\n  tag_35\n  jump\t// in\ntag_48:\n    /* \"#utility.yul\":2198:2270   */\n  tag_49\n    /* \"#utility.yul\":2266:2268   */\n  0x20\n    /* \"#utility.yul\":2255:2264   */\n  dup4\n    /* \"#utility.yul\":2251:2269   */\n  add\n    /* \"#utility.yul\":2242:2248   */\n  dup6\n    /* \"#utility.yul\":2198:2270   */\n  tag_35\n  jump\t// in\ntag_49:\n    /* \"#utility.yul\":2280:2350   */\n  tag_50\n    /* \"#utility.yul\":2346:2348   */\n  0x40\n    /* \"#utility.yul\":2335:2344   */\n  dup4\n    /* \"#utility.yul\":2331:2349   */\n  add\n    /* \"#utility.yul\":2322:2328   */\n  dup5\n    /* \"#utility.yul\":2280:2350   */\n  tag_43\n  jump\t// in\ntag_50:\n    /* \"#utility.yul\":2071:2357   */\n  swap5\n  swap4\n  pop\n  pop\n  pop\n  pop\n  jump\t// out\n    /* \"#utility.yul\":2363:2782   */\ntag_15:\n  0x00\n    /* \"#utility.yul\":2567:2569   */\n  0x20\n    /* \"#utility.yul\":2556:2565   */\n  dup3\n    /* \"#utility.yul\":2552:2570   */\n  add\n    /* \"#utility.yul\":2544:2570   */\n  swap1\n  pop\n    /* \"#utility.yul\":2616:2625   */\n  dup2\n    /* \"#utility.yul\":2610:2614   */\n  dup2\n    /* \"#utility.yul\":2606:2626   */\n  sub\n    /* \"#utility.yul\":2602:2603   */\n  0x00\n    /* \"#utility.yul\":2591:2600   */\n  dup4\n    /* \"#utility.yul\":2587:2604   */\n  add\n    /* \"#utility.yul\":2580:2627   */\n  mstore\n    /* \"#utility.yul\":2644:2775   */\n  tag_52\n    /* \"#utility.yul\":2770:2774   */\n  dup2\n    /* \"#utility.yul\":2644:2775   */\n  tag_39\n  jump\t// in\ntag_52:\n    /* \"#utility.yul\":2636:2775   */\n  swap1\n  pop\n    /* \"#utility.yul\":2534:2782   */\n  swap2\n  swap1\n  pop\n  jump\t// out\n    /* \"#utility.yul\":2788:2957   */\ntag_42:\n  0x00\n    /* \"#utility.yul\":2906:2912   */\n  dup3\n    /* \"#utility.yul\":2901:2904   */\n  dup3\n    /* \"#utility.yul\":2894:2913   */\n  mstore\n    /* \"#utility.yul\":2946:2950   */\n  0x20\n    /* \"#utility.yul\":2941:2944   */\n  dup3\n    /* \"#utility.yul\":2937:2951   */\n  add\n    /* \"#utility.yul\":2922:2951   */\n  swap1\n  pop\n    /* \"#utility.yul\":2884:2957   */\n  swap3\n  swap2\n  pop\n  pop\n  jump\t// out\n    /* \"#utility.yul\":2963:3059   */\ntag_38:\n  0x00\n    /* \"#utility.yul\":3029:3053   */\n  tag_55\n    /* \"#utility.yul\":3047:3052   */\n  dup3\n    /* \"#utility.yul\":3029:3053   */\n  tag_56\n  jump\t// in\ntag_55:\n    /* \"#utility.yul\":3018:3053   */\n  swap1\n  pop\n    /* \"#utility.yul\":3008:3059   */\n  swap2\n  swap1\n  pop\n  jump\t// out\n    /* \"#utility.yul\":3065:3191   */\ntag_56:\n  0x00\n    /* \"#utility.yul\":3142:3184   */\n  0xffffffffffffffffffffffffffffffffffffffff\n    /* \"#utility.yul\":3135:3140   */\n  dup3\n    /* \"#utility.yul\":3131:3185   */\n  and\n    /* \"#utility.yul\":3120:3185   */\n  swap1\n  pop\n    /* \"#utility.yul\":3110:3191   */\n  swap2\n  swap1\n  pop\n  jump\t// out\n    /* \"#utility.yul\":3197:3288   */\ntag_46:\n  0x00\n    /* \"#utility.yul\":3273:3281   */\n  0xffffff\n    /* \"#utility.yul\":3266:3271   */\n  dup3\n    /* \"#utility.yul\":3262:3282   */\n  and\n    /* \"#utility.yul\":3251:3282   */\n  swap1\n  pop\n    /* \"#utility.yul\":3241:3288   */\n  swap2\n  swap1\n  pop\n  jump\t// out\n    /* \"#utility.yul\":3294:3416   */\ntag_21:\n    /* \"#utility.yul\":3367:3391   */\n  tag_60\n    /* \"#utility.yul\":3385:3390   */\n  dup2\n    /* \"#utility.yul\":3367:3391   */\n  tag_38\n  jump\t// in\ntag_60:\n    /* \"#utility.yul\":3360:3365   */\n  dup2\n    /* \"#utility.yul\":3357:3392   */\n  eq\n    /* \"#utility.yul\":3347:3349   */\n  tag_61\n  jumpi\n    /* \"#utility.yul\":3406:3407   */\n  0x00\n    /* \"#utility.yul\":3403:3404   */\n  dup1\n    /* \"#utility.yul\":3396:3408   */\n  revert\n    /* \"#utility.yul\":3347:3349   */\ntag_61:\n    /* \"#utility.yul\":3337:3416   */\n  pop\n  jump\t// out\n    /* \"#utility.yul\":3422:3542   */\ntag_25:\n    /* \"#utility.yul\":3494:3517   */\n  tag_63\n    /* \"#utility.yul\":3511:3516   */\n  dup2\n    /* \"#utility.yul\":3494:3517   */\n  tag_46\n  jump\t// in\ntag_63:\n    /* \"#utility.yul\":3487:3492   */\n  dup2\n    /* \"#utility.yul\":3484:3518   */\n  eq\n    /* \"#utility.yul\":3474:3476   */\n  tag_64\n  jumpi\n    /* \"#utility.yul\":3532:3533   */\n  0x00\n    /* \"#utility.yul\":3529:3530   */\n  dup1\n    /* \"#utility.yul\":3522:3534   */\n  revert\n    /* \"#utility.yul\":3474:3476   */\ntag_64:\n    /* \"#utility.yul\":3464:3542   */\n  pop\n  jump\t// out\n    /* \"contracts/UniswapV3Oracle.sol\":530:1479  contract UniswapV3Oracle {... */\ntag_16:\n  shr(0x60, mload(0x80))\n  shr(0x60, mload(0xa0))\n  shr(0x60, mload(0xc0))\n  codecopy(0x00, dataOffset(sub_0), dataSize(sub_0))\n  assignImmutable(\"0x61cf277f49a864a3f102f174d094da4de630a0b5b8a1b673544f81eacd3333a6\")\n  assignImmutable(\"0x55102a3417bb17711dc0a7887b2d1956ef4cc0406d53a2bd493c2e852606b04c\")\n  assignImmutable(\"0x250be49989bc0ce4209c3b239a8715bf51814f9847b0d82daabeef5dab6c4913\")\n  return(0x00, dataSize(sub_0))\nstop\n\nsub_0: assembly {\n        /* \"contracts/UniswapV3Oracle.sol\":530:1479  contract UniswapV3Oracle {... */\n      mstore(0x40, 0x80)\n      callvalue\n      dup1\n      iszero\n      tag_1\n      jumpi\n      0x00\n      dup1\n      revert\n    tag_1:\n      pop\n      jumpi(tag_2, lt(calldatasize, 0x04))\n      shr(0xe0, calldataload(0x00))\n      dup1\n      0x0dfe1681\n      eq\n      tag_3\n      jumpi\n      dup1\n      0x16f0115b\n      eq\n      tag_4\n      jumpi\n      dup1\n      0x8f2e8199\n      eq\n      tag_5\n      jumpi\n      dup1\n      0xd21220a7\n      eq\n      tag_6\n      jumpi\n    tag_2:\n      0x00\n      dup1\n      revert\n        /* \"contracts/UniswapV3Oracle.sol\":561:592  address public immutable token0 */\n    tag_3:\n      tag_7\n      tag_8\n      jump\t// in\n    tag_7:\n      mload(0x40)\n      tag_9\n      swap2\n      swap1\n      tag_10\n      jump\t// in\n    tag_9:\n      mload(0x40)\n      dup1\n      swap2\n      sub\n      swap1\n      return\n        /* \"contracts/UniswapV3Oracle.sol\":635:664  address public immutable pool */\n    tag_4:\n      tag_11\n      tag_12\n      jump\t// in\n    tag_11:\n      mload(0x40)\n      tag_13\n      swap2\n      swap1\n      tag_10\n      jump\t// in\n    tag_13:\n      mload(0x40)\n      dup1\n      swap2\n      sub\n      swap1\n      return\n        /* \"contracts/UniswapV3Oracle.sol\":988:1477  function estimateAmountOut(... */\n    tag_5:\n      tag_14\n      0x04\n      dup1\n      calldatasize\n      sub\n      dup2\n      add\n      swap1\n      tag_15\n      swap2\n      swap1\n      tag_16\n      jump\t// in\n    tag_15:\n      tag_17\n      jump\t// in\n    tag_14:\n      mload(0x40)\n      tag_18\n      swap2\n      swap1\n      tag_19\n      jump\t// in\n    tag_18:\n      mload(0x40)\n      dup1\n      swap2\n      sub\n      swap1\n      return\n        /* \"contracts/UniswapV3Oracle.sol\":598:629  address public immutable token1 */\n    tag_6:\n      tag_20\n      tag_21\n      jump\t// in\n    tag_20:\n      mload(0x40)\n      tag_22\n      swap2\n      swap1\n      tag_10\n      jump\t// in\n    tag_22:\n      mload(0x40)\n      dup1\n      swap2\n      sub\n      swap1\n      return\n        /* \"contracts/UniswapV3Oracle.sol\":561:592  address public immutable token0 */\n    tag_8:\n      immutable(\"0x250be49989bc0ce4209c3b239a8715bf51814f9847b0d82daabeef5dab6c4913\")\n      dup2\n      jump\t// out\n        /* \"contracts/UniswapV3Oracle.sol\":635:664  address public immutable pool */\n    tag_12:\n      immutable(\"0x61cf277f49a864a3f102f174d094da4de630a0b5b8a1b673544f81eacd3333a6\")\n      dup2\n      jump\t// out\n        /* \"contracts/UniswapV3Oracle.sol\":988:1477  function estimateAmountOut(... */\n    tag_17:\n        /* \"contracts/UniswapV3Oracle.sol\":1121:1135  uint amountOut */\n      0x00\n        /* \"contracts/UniswapV3Oracle.sol\":1164:1170  token0 */\n      immutable(\"0x250be49989bc0ce4209c3b239a8715bf51814f9847b0d82daabeef5dab6c4913\")\n        /* \"contracts/UniswapV3Oracle.sol\":1155:1170  tokenIn==token0 */\n      0xffffffffffffffffffffffffffffffffffffffff\n      and\n        /* \"contracts/UniswapV3Oracle.sol\":1155:1162  tokenIn */\n      dup5\n        /* \"contracts/UniswapV3Oracle.sol\":1155:1170  tokenIn==token0 */\n      0xffffffffffffffffffffffffffffffffffffffff\n      and\n      eq\n        /* \"contracts/UniswapV3Oracle.sol\":1155:1189  tokenIn==token0 || tokenIn==token1 */\n      dup1\n      tag_24\n      jumpi\n      pop\n        /* \"contracts/UniswapV3Oracle.sol\":1183:1189  token1 */\n      immutable(\"0x55102a3417bb17711dc0a7887b2d1956ef4cc0406d53a2bd493c2e852606b04c\")\n        /* \"contracts/UniswapV3Oracle.sol\":1174:1189  tokenIn==token1 */\n      0xffffffffffffffffffffffffffffffffffffffff\n      and\n        /* \"contracts/UniswapV3Oracle.sol\":1174:1181  tokenIn */\n      dup5\n        /* \"contracts/UniswapV3Oracle.sol\":1174:1189  tokenIn==token1 */\n      0xffffffffffffffffffffffffffffffffffffffff\n      and\n      eq\n        /* \"contracts/UniswapV3Oracle.sol\":1155:1189  tokenIn==token0 || tokenIn==token1 */\n    tag_24:\n        /* \"contracts/UniswapV3Oracle.sol\":1147:1206  require(tokenIn==token0 || tokenIn==token1,\"invalid token\") */\n      tag_25\n      jumpi\n      mload(0x40)\n      0x08c379a000000000000000000000000000000000000000000000000000000000\n      dup2\n      mstore\n      0x04\n      add\n      tag_26\n      swap1\n      tag_27\n      jump\t// in\n    tag_26:\n      mload(0x40)\n      dup1\n      swap2\n      sub\n      swap1\n      revert\n    tag_25:\n        /* \"contracts/UniswapV3Oracle.sol\":1216:1232  address tokenout */\n      0x00\n        /* \"contracts/UniswapV3Oracle.sol\":1242:1248  token0 */\n      immutable(\"0x250be49989bc0ce4209c3b239a8715bf51814f9847b0d82daabeef5dab6c4913\")\n        /* \"contracts/UniswapV3Oracle.sol\":1233:1248  tokenIn==token0 */\n      0xffffffffffffffffffffffffffffffffffffffff\n      and\n        /* \"contracts/UniswapV3Oracle.sol\":1233:1240  tokenIn */\n      dup6\n        /* \"contracts/UniswapV3Oracle.sol\":1233:1248  tokenIn==token0 */\n      0xffffffffffffffffffffffffffffffffffffffff\n      and\n      eq\n        /* \"contracts/UniswapV3Oracle.sol\":1233:1264  tokenIn==token0 ? token1:token0 */\n      tag_28\n      jumpi\n        /* \"contracts/UniswapV3Oracle.sol\":1258:1264  token0 */\n      immutable(\"0x250be49989bc0ce4209c3b239a8715bf51814f9847b0d82daabeef5dab6c4913\")\n        /* \"contracts/UniswapV3Oracle.sol\":1233:1264  tokenIn==token0 ? token1:token0 */\n      jump(tag_29)\n    tag_28:\n        /* \"contracts/UniswapV3Oracle.sol\":1251:1257  token1 */\n      immutable(\"0x55102a3417bb17711dc0a7887b2d1956ef4cc0406d53a2bd493c2e852606b04c\")\n        /* \"contracts/UniswapV3Oracle.sol\":1233:1264  tokenIn==token0 ? token1:token0 */\n    tag_29:\n        /* \"contracts/UniswapV3Oracle.sol\":1216:1264  address tokenout=tokenIn==token0 ? token1:token0 */\n      swap1\n      pop\n        /* \"contracts/UniswapV3Oracle.sol\":1276:1286  int24 tick */\n      0x00\n        /* \"contracts/UniswapV3Oracle.sol\":1289:1327  OracleLibrary.consult(pool,secondsAgo) */\n      tag_30\n        /* \"contracts/UniswapV3Oracle.sol\":1311:1315  pool */\n      immutable(\"0x61cf277f49a864a3f102f174d094da4de630a0b5b8a1b673544f81eacd3333a6\")\n        /* \"contracts/UniswapV3Oracle.sol\":1316:1326  secondsAgo */\n      dup6\n        /* \"contracts/UniswapV3Oracle.sol\":1289:1310  OracleLibrary.consult */\n      tag_31\n        /* \"contracts/UniswapV3Oracle.sol\":1289:1327  OracleLibrary.consult(pool,secondsAgo) */\n      jump\t// in\n    tag_30:\n        /* \"contracts/UniswapV3Oracle.sol\":1275:1327  (int24 tick,)=OracleLibrary.consult(pool,secondsAgo) */\n      pop\n      swap1\n      pop\n        /* \"contracts/UniswapV3Oracle.sol\":1349:1470  OracleLibrary.getQuoteAtTick(... */\n      tag_32\n        /* \"contracts/UniswapV3Oracle.sol\":1391:1395  tick */\n      dup2\n        /* \"contracts/UniswapV3Oracle.sol\":1409:1417  amountIn */\n      dup7\n        /* \"contracts/UniswapV3Oracle.sol\":1431:1438  tokenIn */\n      dup9\n        /* \"contracts/UniswapV3Oracle.sol\":1452:1460  tokenout */\n      dup6\n        /* \"contracts/UniswapV3Oracle.sol\":1349:1377  OracleLibrary.getQuoteAtTick */\n      tag_33\n        /* \"contracts/UniswapV3Oracle.sol\":1349:1470  OracleLibrary.getQuoteAtTick(... */\n      jump\t// in\n    tag_32:\n        /* \"contracts/UniswapV3Oracle.sol\":1337:1470  amountOut = OracleLibrary.getQuoteAtTick(... */\n      swap3\n      pop\n        /* \"contracts/UniswapV3Oracle.sol\":988:1477  function estimateAmountOut(... */\n      pop\n      pop\n      swap4\n      swap3\n      pop\n      pop\n      pop\n      jump\t// out\n        /* \"contracts/UniswapV3Oracle.sol\":598:629  address public immutable token1 */\n    tag_21:\n      immutable(\"0x55102a3417bb17711dc0a7887b2d1956ef4cc0406d53a2bd493c2e852606b04c\")\n      dup2\n      jump\t// out\n        /* \"@uniswap/v3-periphery/contracts/libraries/OracleLibrary.sol\":885:2112  function consult(address pool, uint32 secondsAgo)... */\n    tag_31:\n        /* \"@uniswap/v3-periphery/contracts/libraries/OracleLibrary.sol\":982:1006  int24 arithmeticMeanTick */\n      0x00\n        /* \"@uniswap/v3-periphery/contracts/libraries/OracleLibrary.sol\":1008:1037  uint128 harmonicMeanLiquidity */\n      dup1\n        /* \"@uniswap/v3-periphery/contracts/libraries/OracleLibrary.sol\":1075:1076  0 */\n      0x00\n        /* \"@uniswap/v3-periphery/contracts/libraries/OracleLibrary.sol\":1061:1071  secondsAgo */\n      dup4\n        /* \"@uniswap/v3-periphery/contracts/libraries/OracleLibrary.sol\":1061:1076  secondsAgo != 0 */\n      0xffffffff\n      and\n      eq\n      iszero\n        /* \"@uniswap/v3-periphery/contracts/libraries/OracleLibrary.sol\":1053:1083  require(secondsAgo != 0, 'BP') */\n      tag_35\n      jumpi\n      mload(0x40)\n      0x08c379a000000000000000000000000000000000000000000000000000000000\n      dup2\n      mstore\n      0x04\n      add\n      dup1\n      dup1\n      0x20\n      add\n      dup3\n      dup2\n      sub\n      dup3\n      mstore\n      0x02\n      dup2\n      mstore\n      0x20\n      add\n      dup1\n      0x4250000000000000000000000000000000000000000000000000000000000000\n      dup2\n      mstore\n      pop\n      0x20\n      add\n      swap2\n      pop\n      pop\n      mload(0x40)\n      dup1\n      swap2\n      sub\n      swap1\n      revert\n    tag_35:\n        /* \"@uniswap/v3-periphery/contracts/libraries/OracleLibrary.sol\":1094:1121  uint32[] memory secondsAgos */\n      0x00\n        /* \"@uniswap/v3-periphery/contracts/libraries/OracleLibrary.sol\":1137:1138  2 */\n      0x02\n        /* \"@uniswap/v3-periphery/contracts/libraries/OracleLibrary.sol\":1124:1139  new uint32[](2) */\n      0xffffffffffffffff\n      dup2\n      gt\n      dup1\n      iszero\n      tag_36\n      jumpi\n      0x00\n      dup1\n      revert\n    tag_36:\n      pop\n      mload(0x40)\n      swap1\n      dup1\n      dup3\n      mstore\n      dup1\n      0x20\n      mul\n      0x20\n      add\n      dup3\n      add\n      0x40\n      mstore\n      dup1\n      iszero\n      tag_37\n      jumpi\n      dup2\n      0x20\n      add\n      0x20\n      dup3\n      mul\n      dup1\n      calldatasize\n      dup4\n      calldatacopy\n      dup1\n      dup3\n      add\n      swap2\n      pop\n      pop\n      swap1\n      pop\n    tag_37:\n      pop\n        /* \"@uniswap/v3-periphery/contracts/libraries/OracleLibrary.sol\":1094:1139  uint32[] memory secondsAgos = new uint32[](2) */\n      swap1\n      pop\n        /* \"@uniswap/v3-periphery/contracts/libraries/OracleLibrary.sol\":1166:1176  secondsAgo */\n      dup4\n        /* \"@uniswap/v3-periphery/contracts/libraries/OracleLibrary.sol\":1149:1160  secondsAgos */\n      dup2\n        /* \"@uniswap/v3-periphery/contracts/libraries/OracleLibrary.sol\":1161:1162  0 */\n      0x00\n        /* \"@uniswap/v3-periphery/contracts/libraries/OracleLibrary.sol\":1149:1163  secondsAgos[0] */\n      dup2\n      mload\n      dup2\n      lt\n      tag_38\n      jumpi\n      invalid\n    tag_38:\n      0x20\n      mul\n      0x20\n      add\n      add\n        /* \"@uniswap/v3-periphery/contracts/libraries/OracleLibrary.sol\":1149:1176  secondsAgos[0] = secondsAgo */\n      swap1\n      0xffffffff\n      and\n      swap1\n      dup2\n      0xffffffff\n      and\n      dup2\n      mstore\n      pop\n      pop\n        /* \"@uniswap/v3-periphery/contracts/libraries/OracleLibrary.sol\":1203:1204  0 */\n      0x00\n        /* \"@uniswap/v3-periphery/contracts/libraries/OracleLibrary.sol\":1186:1197  secondsAgos */\n      dup2\n        /* \"@uniswap/v3-periphery/contracts/libraries/OracleLibrary.sol\":1198:1199  1 */\n      0x01\n        /* \"@uniswap/v3-periphery/contracts/libraries/OracleLibrary.sol\":1186:1200  secondsAgos[1] */\n      dup2\n      mload\n      dup2\n      lt\n      tag_39\n      jumpi\n      invalid\n    tag_39:\n      0x20\n      mul\n      0x20\n      add\n      add\n        /* \"@uniswap/v3-periphery/contracts/libraries/OracleLibrary.sol\":1186:1204  secondsAgos[1] = 0 */\n      swap1\n      0xffffffff\n      and\n      swap1\n      dup2\n      0xffffffff\n      and\n      dup2\n      mstore\n      pop\n      pop\n        /* \"@uniswap/v3-periphery/contracts/libraries/OracleLibrary.sol\":1216:1246  int56[] memory tickCumulatives */\n      0x00\n        /* \"@uniswap/v3-periphery/contracts/libraries/OracleLibrary.sol\":1248:1299  uint160[] memory secondsPerLiquidityCumulativeX128s */\n      dup1\n        /* \"@uniswap/v3-periphery/contracts/libraries/OracleLibrary.sol\":1330:1334  pool */\n      dup7\n        /* \"@uniswap/v3-periphery/contracts/libraries/OracleLibrary.sol\":1315:1343  IUniswapV3Pool(pool).observe */\n      0xffffffffffffffffffffffffffffffffffffffff\n      and\n      0x883bdbfd\n        /* \"@uniswap/v3-periphery/contracts/libraries/OracleLibrary.sol\":1344:1355  secondsAgos */\n      dup5\n        /* \"@uniswap/v3-periphery/contracts/libraries/OracleLibrary.sol\":1315:1356  IUniswapV3Pool(pool).observe(secondsAgos) */\n      mload(0x40)\n      dup3\n      0xffffffff\n      and\n      0xe0\n      shl\n      dup2\n      mstore\n      0x04\n      add\n      dup1\n      dup1\n      0x20\n      add\n      dup3\n      dup2\n      sub\n      dup3\n      mstore\n      dup4\n      dup2\n      dup2\n      mload\n      dup2\n      mstore\n      0x20\n      add\n      swap2\n      pop\n      dup1\n      mload\n      swap1\n      0x20\n      add\n      swap1\n      0x20\n      mul\n      dup1\n      dup4\n      dup4\n      0x00\n    tag_40:\n      dup4\n      dup2\n      lt\n      iszero\n      tag_42\n      jumpi\n      dup1\n      dup3\n      add\n      mload\n      dup2\n      dup5\n      add\n      mstore\n      0x20\n      dup2\n      add\n      swap1\n      pop\n      jump(tag_40)\n    tag_42:\n      pop\n      pop\n      pop\n      pop\n      swap1\n      pop\n      add\n      swap3\n      pop\n      pop\n      pop\n      0x00\n      mload(0x40)\n      dup1\n      dup4\n      sub\n      dup2\n      dup7\n      dup1\n      extcodesize\n      iszero\n      dup1\n      iszero\n      tag_43\n      jumpi\n      0x00\n      dup1\n      revert\n    tag_43:\n      pop\n      gas\n      staticcall\n      iszero\n      dup1\n      iszero\n      tag_45\n      jumpi\n      returndatasize\n      0x00\n      dup1\n      returndatacopy\n      revert(0x00, returndatasize)\n    tag_45:\n      pop\n      pop\n      pop\n      pop\n      mload(0x40)\n      returndatasize\n      0x00\n      dup3\n      returndatacopy\n      returndatasize\n      not(0x1f)\n      0x1f\n      dup3\n      add\n      and\n      dup3\n      add\n      dup1\n      0x40\n      mstore\n      pop\n      0x40\n      dup2\n      lt\n      iszero\n      tag_46\n      jumpi\n      0x00\n      dup1\n      revert\n    tag_46:\n      dup2\n      add\n      swap1\n      dup1\n      dup1\n      mload\n      mload(0x40)\n      swap4\n      swap3\n      swap2\n      swap1\n      dup5\n      0x0100000000\n      dup3\n      gt\n      iszero\n      tag_47\n      jumpi\n      0x00\n      dup1\n      revert\n    tag_47:\n      dup4\n      dup3\n      add\n      swap2\n      pop\n      0x20\n      dup3\n      add\n      dup6\n      dup2\n      gt\n      iszero\n      tag_48\n      jumpi\n      0x00\n      dup1\n      revert\n    tag_48:\n      dup3\n      mload\n      dup7\n      0x20\n      dup3\n      mul\n      dup4\n      add\n      gt\n      0x0100000000\n      dup3\n      gt\n      or\n      iszero\n      tag_49\n      jumpi\n      0x00\n      dup1\n      revert\n    tag_49:\n      dup1\n      dup4\n      mstore\n      0x20\n      dup4\n      add\n      swap3\n      pop\n      pop\n      pop\n      swap1\n      dup1\n      mload\n      swap1\n      0x20\n      add\n      swap1\n      0x20\n      mul\n      dup1\n      dup4\n      dup4\n      0x00\n    tag_50:\n      dup4\n      dup2\n      lt\n      iszero\n      tag_52\n      jumpi\n      dup1\n      dup3\n      add\n      mload\n      dup2\n      dup5\n      add\n      mstore\n      0x20\n      dup2\n      add\n      swap1\n      pop\n      jump(tag_50)\n    tag_52:\n      pop\n      pop\n      pop\n      pop\n      swap1\n      pop\n      add\n      0x40\n      mstore\n      0x20\n      add\n      dup1\n      mload\n      mload(0x40)\n      swap4\n      swap3\n      swap2\n      swap1\n      dup5\n      0x0100000000\n      dup3\n      gt\n      iszero\n      tag_53\n      jumpi\n      0x00\n      dup1\n      revert\n    tag_53:\n      dup4\n      dup3\n      add\n      swap2\n      pop\n      0x20\n      dup3\n      add\n      dup6\n      dup2\n      gt\n      iszero\n      tag_54\n      jumpi\n      0x00\n      dup1\n      revert\n    tag_54:\n      dup3\n      mload\n      dup7\n      0x20\n      dup3\n      mul\n      dup4\n      add\n      gt\n      0x0100000000\n      dup3\n      gt\n      or\n      iszero\n      tag_55\n      jumpi\n      0x00\n      dup1\n      revert\n    tag_55:\n      dup1\n      dup4\n      mstore\n      0x20\n      dup4\n      add\n      swap3\n      pop\n      pop\n      pop\n      swap1\n      dup1\n      mload\n      swap1\n      0x20\n      add\n      swap1\n      0x20\n      mul\n      dup1\n      dup4\n      dup4\n      0x00\n    tag_56:\n      dup4\n      dup2\n      lt\n      iszero\n      tag_58\n      jumpi\n      dup1\n      dup3\n      add\n      mload\n      dup2\n      dup5\n      add\n      mstore\n      0x20\n      dup2\n      add\n      swap1\n      pop\n      jump(tag_56)\n    tag_58:\n      pop\n      pop\n      pop\n      pop\n      swap1\n      pop\n      add\n      0x40\n      mstore\n      pop\n      pop\n      pop\n        /* \"@uniswap/v3-periphery/contracts/libraries/OracleLibrary.sol\":1215:1356  (int56[] memory tickCumulatives, uint160[] memory secondsPerLiquidityCumulativeX128s) =... */\n      swap2\n      pop\n      swap2\n      pop\n        /* \"@uniswap/v3-periphery/contracts/libraries/OracleLibrary.sol\":1367:1393  int56 tickCumulativesDelta */\n      0x00\n        /* \"@uniswap/v3-periphery/contracts/libraries/OracleLibrary.sol\":1417:1432  tickCumulatives */\n      dup3\n        /* \"@uniswap/v3-periphery/contracts/libraries/OracleLibrary.sol\":1433:1434  0 */\n      0x00\n        /* \"@uniswap/v3-periphery/contracts/libraries/OracleLibrary.sol\":1417:1435  tickCumulatives[0] */\n      dup2\n      mload\n      dup2\n      lt\n      tag_59\n      jumpi\n      invalid\n    tag_59:\n      0x20\n      mul\n      0x20\n      add\n      add\n      mload\n        /* \"@uniswap/v3-periphery/contracts/libraries/OracleLibrary.sol\":1396:1411  tickCumulatives */\n      dup4\n        /* \"@uniswap/v3-periphery/contracts/libraries/OracleLibrary.sol\":1412:1413  1 */\n      0x01\n        /* \"@uniswap/v3-periphery/contracts/libraries/OracleLibrary.sol\":1396:1414  tickCumulatives[1] */\n      dup2\n      mload\n      dup2\n      lt\n      tag_60\n      jumpi\n      invalid\n    tag_60:\n      0x20\n      mul\n      0x20\n      add\n      add\n      mload\n        /* \"@uniswap/v3-periphery/contracts/libraries/OracleLibrary.sol\":1396:1435  tickCumulatives[1] - tickCumulatives[0] */\n      sub\n        /* \"@uniswap/v3-periphery/contracts/libraries/OracleLibrary.sol\":1367:1435  int56 tickCumulativesDelta = tickCumulatives[1] - tickCumulatives[0] */\n      swap1\n      pop\n        /* \"@uniswap/v3-periphery/contracts/libraries/OracleLibrary.sol\":1445:1488  uint160 secondsPerLiquidityCumulativesDelta */\n      0x00\n        /* \"@uniswap/v3-periphery/contracts/libraries/OracleLibrary.sol\":1543:1577  secondsPerLiquidityCumulativeX128s */\n      dup3\n        /* \"@uniswap/v3-periphery/contracts/libraries/OracleLibrary.sol\":1578:1579  0 */\n      0x00\n        /* \"@uniswap/v3-periphery/contracts/libraries/OracleLibrary.sol\":1543:1580  secondsPerLiquidityCumulativeX128s[0] */\n      dup2\n      mload\n      dup2\n      lt\n      tag_61\n      jumpi\n      invalid\n    tag_61:\n      0x20\n      mul\n      0x20\n      add\n      add\n      mload\n        /* \"@uniswap/v3-periphery/contracts/libraries/OracleLibrary.sol\":1503:1537  secondsPerLiquidityCumulativeX128s */\n      dup4\n        /* \"@uniswap/v3-periphery/contracts/libraries/OracleLibrary.sol\":1538:1539  1 */\n      0x01\n        /* \"@uniswap/v3-periphery/contracts/libraries/OracleLibrary.sol\":1503:1540  secondsPerLiquidityCumulativeX128s[1] */\n      dup2\n      mload\n      dup2\n      lt\n      tag_62\n      jumpi\n      invalid\n    tag_62:\n      0x20\n      mul\n      0x20\n      add\n      add\n      mload\n        /* \"@uniswap/v3-periphery/contracts/libraries/OracleLibrary.sol\":1503:1580  secondsPerLiquidityCumulativeX128s[1] - secondsPerLiquidityCumulativeX128s[0] */\n      sub\n        /* \"@uniswap/v3-periphery/contracts/libraries/OracleLibrary.sol\":1445:1580  uint160 secondsPerLiquidityCumulativesDelta =... */\n      swap1\n      pop\n        /* \"@uniswap/v3-periphery/contracts/libraries/OracleLibrary.sol\":1641:1651  secondsAgo */\n      dup8\n        /* \"@uniswap/v3-periphery/contracts/libraries/OracleLibrary.sol\":1618:1651  tickCumulativesDelta / secondsAgo */\n      0xffffffff\n      and\n        /* \"@uniswap/v3-periphery/contracts/libraries/OracleLibrary.sol\":1618:1638  tickCumulativesDelta */\n      dup3\n        /* \"@uniswap/v3-periphery/contracts/libraries/OracleLibrary.sol\":1618:1651  tickCumulativesDelta / secondsAgo */\n      0x06\n      signextend\n      dup2\n      tag_63\n      jumpi\n      invalid\n    tag_63:\n      sdiv\n        /* \"@uniswap/v3-periphery/contracts/libraries/OracleLibrary.sol\":1591:1652  arithmeticMeanTick = int24(tickCumulativesDelta / secondsAgo) */\n      swap7\n      pop\n        /* \"@uniswap/v3-periphery/contracts/libraries/OracleLibrary.sol\":1734:1735  0 */\n      0x00\n        /* \"@uniswap/v3-periphery/contracts/libraries/OracleLibrary.sol\":1711:1731  tickCumulativesDelta */\n      dup3\n        /* \"@uniswap/v3-periphery/contracts/libraries/OracleLibrary.sol\":1711:1735  tickCumulativesDelta < 0 */\n      0x06\n      signextend\n      slt\n        /* \"@uniswap/v3-periphery/contracts/libraries/OracleLibrary.sol\":1711:1779  tickCumulativesDelta < 0 && (tickCumulativesDelta % secondsAgo != 0) */\n      dup1\n      iszero\n      tag_64\n      jumpi\n      pop\n        /* \"@uniswap/v3-periphery/contracts/libraries/OracleLibrary.sol\":1777:1778  0 */\n      0x00\n        /* \"@uniswap/v3-periphery/contracts/libraries/OracleLibrary.sol\":1763:1773  secondsAgo */\n      dup9\n        /* \"@uniswap/v3-periphery/contracts/libraries/OracleLibrary.sol\":1740:1773  tickCumulativesDelta % secondsAgo */\n      0xffffffff\n      and\n        /* \"@uniswap/v3-periphery/contracts/libraries/OracleLibrary.sol\":1740:1760  tickCumulativesDelta */\n      dup4\n        /* \"@uniswap/v3-periphery/contracts/libraries/OracleLibrary.sol\":1740:1773  tickCumulativesDelta % secondsAgo */\n      0x06\n      signextend\n      dup2\n      tag_65\n      jumpi\n      invalid\n    tag_65:\n      smod\n        /* \"@uniswap/v3-periphery/contracts/libraries/OracleLibrary.sol\":1740:1778  tickCumulativesDelta % secondsAgo != 0 */\n      0x06\n      signextend\n      eq\n      iszero\n        /* \"@uniswap/v3-periphery/contracts/libraries/OracleLibrary.sol\":1711:1779  tickCumulativesDelta < 0 && (tickCumulativesDelta % secondsAgo != 0) */\n    tag_64:\n        /* \"@uniswap/v3-periphery/contracts/libraries/OracleLibrary.sol\":1707:1801  if (tickCumulativesDelta < 0 && (tickCumulativesDelta % secondsAgo != 0)) arithmeticMeanTick-- */\n      iszero\n      tag_66\n      jumpi\n        /* \"@uniswap/v3-periphery/contracts/libraries/OracleLibrary.sol\":1781:1801  arithmeticMeanTick-- */\n      dup7\n      dup1\n      0x01\n      swap1\n      sub\n      swap8\n      pop\n      pop\n        /* \"@uniswap/v3-periphery/contracts/libraries/OracleLibrary.sol\":1707:1801  if (tickCumulativesDelta < 0 && (tickCumulativesDelta % secondsAgo != 0)) arithmeticMeanTick-- */\n    tag_66:\n        /* \"@uniswap/v3-periphery/contracts/libraries/OracleLibrary.sol\":1929:1951  uint192 secondsAgoX160 */\n      0x00\n        /* \"@uniswap/v3-periphery/contracts/libraries/OracleLibrary.sol\":1976:1993  type(uint160).max */\n      0xffffffffffffffffffffffffffffffffffffffff\n        /* \"@uniswap/v3-periphery/contracts/libraries/OracleLibrary.sol\":1954:1993  uint192(secondsAgo) * type(uint160).max */\n      dup1\n      and\n        /* \"@uniswap/v3-periphery/contracts/libraries/OracleLibrary.sol\":1962:1972  secondsAgo */\n      dup10\n        /* \"@uniswap/v3-periphery/contracts/libraries/OracleLibrary.sol\":1954:1973  uint192(secondsAgo) */\n      0xffffffff\n      and\n        /* \"@uniswap/v3-periphery/contracts/libraries/OracleLibrary.sol\":1954:1993  uint192(secondsAgo) * type(uint160).max */\n      mul\n        /* \"@uniswap/v3-periphery/contracts/libraries/OracleLibrary.sol\":1929:1993  uint192 secondsAgoX160 = uint192(secondsAgo) * type(uint160).max */\n      swap1\n      pop\n        /* \"@uniswap/v3-periphery/contracts/libraries/OracleLibrary.sol\":2101:2103  32 */\n      0x20\n        /* \"@uniswap/v3-periphery/contracts/libraries/OracleLibrary.sol\":2061:2096  secondsPerLiquidityCumulativesDelta */\n      dup3\n        /* \"@uniswap/v3-periphery/contracts/libraries/OracleLibrary.sol\":2053:2097  uint192(secondsPerLiquidityCumulativesDelta) */\n      0xffffffffffffffffffffffffffffffffffffffff\n      and\n        /* \"@uniswap/v3-periphery/contracts/libraries/OracleLibrary.sol\":2053:2103  uint192(secondsPerLiquidityCumulativesDelta) << 32 */\n      0xffffffffffffffffffffffffffffffffffffffffffffffff\n      and\n      swap1\n      shl\n        /* \"@uniswap/v3-periphery/contracts/libraries/OracleLibrary.sol\":2035:2104  secondsAgoX160 / (uint192(secondsPerLiquidityCumulativesDelta) << 32) */\n      0xffffffffffffffffffffffffffffffffffffffffffffffff\n      and\n        /* \"@uniswap/v3-periphery/contracts/libraries/OracleLibrary.sol\":2035:2049  secondsAgoX160 */\n      dup2\n        /* \"@uniswap/v3-periphery/contracts/libraries/OracleLibrary.sol\":2035:2104  secondsAgoX160 / (uint192(secondsPerLiquidityCumulativesDelta) << 32) */\n      0xffffffffffffffffffffffffffffffffffffffffffffffff\n      and\n      dup2\n      tag_67\n      jumpi\n      invalid\n    tag_67:\n      div\n        /* \"@uniswap/v3-periphery/contracts/libraries/OracleLibrary.sol\":2003:2105  harmonicMeanLiquidity = uint128(secondsAgoX160 / (uint192(secondsPerLiquidityCumulativesDelta) << 32)) */\n      swap7\n      pop\n        /* \"@uniswap/v3-periphery/contracts/libraries/OracleLibrary.sol\":885:2112  function consult(address pool, uint32 secondsAgo)... */\n      pop\n      pop\n      pop\n      pop\n      pop\n      pop\n      swap3\n      pop\n      swap3\n      swap1\n      pop\n      jump\t// out\n        /* \"@uniswap/v3-periphery/contracts/libraries/OracleLibrary.sol\":2616:3571  function getQuoteAtTick(... */\n    tag_33:\n        /* \"@uniswap/v3-periphery/contracts/libraries/OracleLibrary.sol\":2772:2791  uint256 quoteAmount */\n      0x00\n        /* \"@uniswap/v3-periphery/contracts/libraries/OracleLibrary.sol\":2803:2823  uint160 sqrtRatioX96 */\n      dup1\n        /* \"@uniswap/v3-periphery/contracts/libraries/OracleLibrary.sol\":2826:2859  TickMath.getSqrtRatioAtTick(tick) */\n      tag_69\n        /* \"@uniswap/v3-periphery/contracts/libraries/OracleLibrary.sol\":2854:2858  tick */\n      dup7\n        /* \"@uniswap/v3-periphery/contracts/libraries/OracleLibrary.sol\":2826:2853  TickMath.getSqrtRatioAtTick */\n      tag_70\n        /* \"@uniswap/v3-periphery/contracts/libraries/OracleLibrary.sol\":2826:2859  TickMath.getSqrtRatioAtTick(tick) */\n      jump\t// in\n    tag_69:\n        /* \"@uniswap/v3-periphery/contracts/libraries/OracleLibrary.sol\":2803:2859  uint160 sqrtRatioX96 = TickMath.getSqrtRatioAtTick(tick) */\n      swap1\n      pop\n        /* \"@uniswap/v3-periphery/contracts/libraries/OracleLibrary.sol\":2994:3011  type(uint128).max */\n      0xffffffffffffffffffffffffffffffff\n        /* \"@uniswap/v3-periphery/contracts/libraries/OracleLibrary.sol\":2978:3011  sqrtRatioX96 <= type(uint128).max */\n      dup1\n      and\n        /* \"@uniswap/v3-periphery/contracts/libraries/OracleLibrary.sol\":2978:2990  sqrtRatioX96 */\n      dup2\n        /* \"@uniswap/v3-periphery/contracts/libraries/OracleLibrary.sol\":2978:3011  sqrtRatioX96 <= type(uint128).max */\n      0xffffffffffffffffffffffffffffffffffffffff\n      and\n      gt\n        /* \"@uniswap/v3-periphery/contracts/libraries/OracleLibrary.sol\":2974:3565  if (sqrtRatioX96 <= type(uint128).max) {... */\n      tag_71\n      jumpi\n        /* \"@uniswap/v3-periphery/contracts/libraries/OracleLibrary.sol\":3027:3044  uint256 ratioX192 */\n      0x00\n        /* \"@uniswap/v3-periphery/contracts/libraries/OracleLibrary.sol\":3071:3083  sqrtRatioX96 */\n      dup2\n        /* \"@uniswap/v3-periphery/contracts/libraries/OracleLibrary.sol\":3047:3083  uint256(sqrtRatioX96) * sqrtRatioX96 */\n      0xffffffffffffffffffffffffffffffffffffffff\n      and\n        /* \"@uniswap/v3-periphery/contracts/libraries/OracleLibrary.sol\":3055:3067  sqrtRatioX96 */\n      dup3\n        /* \"@uniswap/v3-periphery/contracts/libraries/OracleLibrary.sol\":3047:3068  uint256(sqrtRatioX96) */\n      0xffffffffffffffffffffffffffffffffffffffff\n      and\n        /* \"@uniswap/v3-periphery/contracts/libraries/OracleLibrary.sol\":3047:3083  uint256(sqrtRatioX96) * sqrtRatioX96 */\n      mul\n        /* \"@uniswap/v3-periphery/contracts/libraries/OracleLibrary.sol\":3027:3083  uint256 ratioX192 = uint256(sqrtRatioX96) * sqrtRatioX96 */\n      swap1\n      pop\n        /* \"@uniswap/v3-periphery/contracts/libraries/OracleLibrary.sol\":3123:3133  quoteToken */\n      dup4\n        /* \"@uniswap/v3-periphery/contracts/libraries/OracleLibrary.sol\":3111:3133  baseToken < quoteToken */\n      0xffffffffffffffffffffffffffffffffffffffff\n      and\n        /* \"@uniswap/v3-periphery/contracts/libraries/OracleLibrary.sol\":3111:3120  baseToken */\n      dup6\n        /* \"@uniswap/v3-periphery/contracts/libraries/OracleLibrary.sol\":3111:3133  baseToken < quoteToken */\n      0xffffffffffffffffffffffffffffffffffffffff\n      and\n      lt\n        /* \"@uniswap/v3-periphery/contracts/libraries/OracleLibrary.sol\":3111:3267  baseToken < quoteToken... */\n      tag_72\n      jumpi\n        /* \"@uniswap/v3-periphery/contracts/libraries/OracleLibrary.sol\":3219:3267  FullMath.mulDiv(1 << 192, baseAmount, ratioX192) */\n      tag_73\n        /* \"@uniswap/v3-periphery/contracts/libraries/OracleLibrary.sol\":3235:3243  1 << 192 */\n      0x01000000000000000000000000000000000000000000000000\n        /* \"@uniswap/v3-periphery/contracts/libraries/OracleLibrary.sol\":3245:3255  baseAmount */\n      dup8\n        /* \"@uniswap/v3-periphery/contracts/libraries/OracleLibrary.sol\":3219:3267  FullMath.mulDiv(1 << 192, baseAmount, ratioX192) */\n      0xffffffffffffffffffffffffffffffff\n      and\n        /* \"@uniswap/v3-periphery/contracts/libraries/OracleLibrary.sol\":3257:3266  ratioX192 */\n      dup4\n        /* \"@uniswap/v3-periphery/contracts/libraries/OracleLibrary.sol\":3219:3234  FullMath.mulDiv */\n      tag_74\n        /* \"@uniswap/v3-periphery/contracts/libraries/OracleLibrary.sol\":3219:3267  FullMath.mulDiv(1 << 192, baseAmount, ratioX192) */\n      jump\t// in\n    tag_73:\n        /* \"@uniswap/v3-periphery/contracts/libraries/OracleLibrary.sol\":3111:3267  baseToken < quoteToken... */\n      jump(tag_75)\n    tag_72:\n        /* \"@uniswap/v3-periphery/contracts/libraries/OracleLibrary.sol\":3152:3200  FullMath.mulDiv(ratioX192, baseAmount, 1 << 192) */\n      tag_76\n        /* \"@uniswap/v3-periphery/contracts/libraries/OracleLibrary.sol\":3168:3177  ratioX192 */\n      dup2\n        /* \"@uniswap/v3-periphery/contracts/libraries/OracleLibrary.sol\":3179:3189  baseAmount */\n      dup8\n        /* \"@uniswap/v3-periphery/contracts/libraries/OracleLibrary.sol\":3152:3200  FullMath.mulDiv(ratioX192, baseAmount, 1 << 192) */\n      0xffffffffffffffffffffffffffffffff\n      and\n        /* \"@uniswap/v3-periphery/contracts/libraries/OracleLibrary.sol\":3191:3199  1 << 192 */\n      0x01000000000000000000000000000000000000000000000000\n        /* \"@uniswap/v3-periphery/contracts/libraries/OracleLibrary.sol\":3152:3167  FullMath.mulDiv */\n      tag_74\n        /* \"@uniswap/v3-periphery/contracts/libraries/OracleLibrary.sol\":3152:3200  FullMath.mulDiv(ratioX192, baseAmount, 1 << 192) */\n      jump\t// in\n    tag_76:\n        /* \"@uniswap/v3-periphery/contracts/libraries/OracleLibrary.sol\":3111:3267  baseToken < quoteToken... */\n    tag_75:\n        /* \"@uniswap/v3-periphery/contracts/libraries/OracleLibrary.sol\":3097:3267  quoteAmount = baseToken < quoteToken... */\n      swap3\n      pop\n        /* \"@uniswap/v3-periphery/contracts/libraries/OracleLibrary.sol\":2974:3565  if (sqrtRatioX96 <= type(uint128).max) {... */\n      pop\n      jump(tag_77)\n    tag_71:\n        /* \"@uniswap/v3-periphery/contracts/libraries/OracleLibrary.sol\":3298:3315  uint256 ratioX128 */\n      0x00\n        /* \"@uniswap/v3-periphery/contracts/libraries/OracleLibrary.sol\":3318:3370  FullMath.mulDiv(sqrtRatioX96, sqrtRatioX96, 1 << 64) */\n      tag_78\n        /* \"@uniswap/v3-periphery/contracts/libraries/OracleLibrary.sol\":3334:3346  sqrtRatioX96 */\n      dup3\n        /* \"@uniswap/v3-periphery/contracts/libraries/OracleLibrary.sol\":3318:3370  FullMath.mulDiv(sqrtRatioX96, sqrtRatioX96, 1 << 64) */\n      0xffffffffffffffffffffffffffffffffffffffff\n      and\n        /* \"@uniswap/v3-periphery/contracts/libraries/OracleLibrary.sol\":3348:3360  sqrtRatioX96 */\n      dup4\n        /* \"@uniswap/v3-periphery/contracts/libraries/OracleLibrary.sol\":3318:3370  FullMath.mulDiv(sqrtRatioX96, sqrtRatioX96, 1 << 64) */\n      0xffffffffffffffffffffffffffffffffffffffff\n      and\n        /* \"@uniswap/v3-periphery/contracts/libraries/OracleLibrary.sol\":3362:3369  1 << 64 */\n      0x010000000000000000\n        /* \"@uniswap/v3-periphery/contracts/libraries/OracleLibrary.sol\":3318:3333  FullMath.mulDiv */\n      tag_74\n        /* \"@uniswap/v3-periphery/contracts/libraries/OracleLibrary.sol\":3318:3370  FullMath.mulDiv(sqrtRatioX96, sqrtRatioX96, 1 << 64) */\n      jump\t// in\n    tag_78:\n        /* \"@uniswap/v3-periphery/contracts/libraries/OracleLibrary.sol\":3298:3370  uint256 ratioX128 = FullMath.mulDiv(sqrtRatioX96, sqrtRatioX96, 1 << 64) */\n      swap1\n      pop\n        /* \"@uniswap/v3-periphery/contracts/libraries/OracleLibrary.sol\":3410:3420  quoteToken */\n      dup4\n        /* \"@uniswap/v3-periphery/contracts/libraries/OracleLibrary.sol\":3398:3420  baseToken < quoteToken */\n      0xffffffffffffffffffffffffffffffffffffffff\n      and\n        /* \"@uniswap/v3-periphery/contracts/libraries/OracleLibrary.sol\":3398:3407  baseToken */\n      dup6\n        /* \"@uniswap/v3-periphery/contracts/libraries/OracleLibrary.sol\":3398:3420  baseToken < quoteToken */\n      0xffffffffffffffffffffffffffffffffffffffff\n      and\n      lt\n        /* \"@uniswap/v3-periphery/contracts/libraries/OracleLibrary.sol\":3398:3554  baseToken < quoteToken... */\n      tag_79\n      jumpi\n        /* \"@uniswap/v3-periphery/contracts/libraries/OracleLibrary.sol\":3506:3554  FullMath.mulDiv(1 << 128, baseAmount, ratioX128) */\n      tag_80\n        /* \"@uniswap/v3-periphery/contracts/libraries/OracleLibrary.sol\":3522:3530  1 << 128 */\n      0x0100000000000000000000000000000000\n        /* \"@uniswap/v3-periphery/contracts/libraries/OracleLibrary.sol\":3532:3542  baseAmount */\n      dup8\n        /* \"@uniswap/v3-periphery/contracts/libraries/OracleLibrary.sol\":3506:3554  FullMath.mulDiv(1 << 128, baseAmount, ratioX128) */\n      0xffffffffffffffffffffffffffffffff\n      and\n        /* \"@uniswap/v3-periphery/contracts/libraries/OracleLibrary.sol\":3544:3553  ratioX128 */\n      dup4\n        /* \"@uniswap/v3-periphery/contracts/libraries/OracleLibrary.sol\":3506:3521  FullMath.mulDiv */\n      tag_74\n        /* \"@uniswap/v3-periphery/contracts/libraries/OracleLibrary.sol\":3506:3554  FullMath.mulDiv(1 << 128, baseAmount, ratioX128) */\n      jump\t// in\n    tag_80:\n        /* \"@uniswap/v3-periphery/contracts/libraries/OracleLibrary.sol\":3398:3554  baseToken < quoteToken... */\n      jump(tag_81)\n    tag_79:\n        /* \"@uniswap/v3-periphery/contracts/libraries/OracleLibrary.sol\":3439:3487  FullMath.mulDiv(ratioX128, baseAmount, 1 << 128) */\n      tag_82\n        /* \"@uniswap/v3-periphery/contracts/libraries/OracleLibrary.sol\":3455:3464  ratioX128 */\n      dup2\n        /* \"@uniswap/v3-periphery/contracts/libraries/OracleLibrary.sol\":3466:3476  baseAmount */\n      dup8\n        /* \"@uniswap/v3-periphery/contracts/libraries/OracleLibrary.sol\":3439:3487  FullMath.mulDiv(ratioX128, baseAmount, 1 << 128) */\n      0xffffffffffffffffffffffffffffffff\n      and\n        /* \"@uniswap/v3-periphery/contracts/libraries/OracleLibrary.sol\":3478:3486  1 << 128 */\n      0x0100000000000000000000000000000000\n        /* \"@uniswap/v3-periphery/contracts/libraries/OracleLibrary.sol\":3439:3454  FullMath.mulDiv */\n      tag_74\n        /* \"@uniswap/v3-periphery/contracts/libraries/OracleLibrary.sol\":3439:3487  FullMath.mulDiv(ratioX128, baseAmount, 1 << 128) */\n      jump\t// in\n    tag_82:\n        /* \"@uniswap/v3-periphery/contracts/libraries/OracleLibrary.sol\":3398:3554  baseToken < quoteToken... */\n    tag_81:\n        /* \"@uniswap/v3-periphery/contracts/libraries/OracleLibrary.sol\":3384:3554  quoteAmount = baseToken < quoteToken... */\n      swap3\n      pop\n        /* \"@uniswap/v3-periphery/contracts/libraries/OracleLibrary.sol\":2974:3565  if (sqrtRatioX96 <= type(uint128).max) {... */\n      pop\n    tag_77:\n        /* \"@uniswap/v3-periphery/contracts/libraries/OracleLibrary.sol\":2616:3571  function getQuoteAtTick(... */\n      pop\n      swap5\n      swap4\n      pop\n      pop\n      pop\n      pop\n      jump\t// out\n        /* \"@uniswap/v3-core/contracts/libraries/TickMath.sol\":1362:3942  function getSqrtRatioAtTick(int24 tick) internal pure returns (uint160 sqrtPriceX96) {... */\n    tag_70:\n        /* \"@uniswap/v3-core/contracts/libraries/TickMath.sol\":1425:1445  uint160 sqrtPriceX96 */\n      0x00\n        /* \"@uniswap/v3-core/contracts/libraries/TickMath.sol\":1457:1472  uint256 absTick */\n      dup1\n        /* \"@uniswap/v3-core/contracts/libraries/TickMath.sol\":1482:1483  0 */\n      0x00\n        /* \"@uniswap/v3-core/contracts/libraries/TickMath.sol\":1475:1479  tick */\n      dup4\n        /* \"@uniswap/v3-core/contracts/libraries/TickMath.sol\":1475:1483  tick < 0 */\n      0x02\n      signextend\n      slt\n        /* \"@uniswap/v3-core/contracts/libraries/TickMath.sol\":1475:1532  tick < 0 ? uint256(-int256(tick)) : uint256(int256(tick)) */\n      tag_84\n      jumpi\n        /* \"@uniswap/v3-core/contracts/libraries/TickMath.sol\":1526:1530  tick */\n      dup3\n        /* \"@uniswap/v3-core/contracts/libraries/TickMath.sol\":1519:1531  int256(tick) */\n      0x02\n      signextend\n        /* \"@uniswap/v3-core/contracts/libraries/TickMath.sol\":1475:1532  tick < 0 ? uint256(-int256(tick)) : uint256(int256(tick)) */\n      jump(tag_85)\n    tag_84:\n        /* \"@uniswap/v3-core/contracts/libraries/TickMath.sol\":1502:1506  tick */\n      dup3\n        /* \"@uniswap/v3-core/contracts/libraries/TickMath.sol\":1495:1507  int256(tick) */\n      0x02\n      signextend\n        /* \"@uniswap/v3-core/contracts/libraries/TickMath.sol\":1494:1507  -int256(tick) */\n      0x00\n      sub\n        /* \"@uniswap/v3-core/contracts/libraries/TickMath.sol\":1475:1532  tick < 0 ? uint256(-int256(tick)) : uint256(int256(tick)) */\n    tag_85:\n        /* \"@uniswap/v3-core/contracts/libraries/TickMath.sol\":1457:1532  uint256 absTick = tick < 0 ? uint256(-int256(tick)) : uint256(int256(tick)) */\n      swap1\n      pop\n        /* \"@uniswap/v3-core/contracts/libraries/TickMath.sol\":484:491  -887272 */\n      0xfffffffffffffffffffffffffffffffffffffffffffffffffffffffffff27618\n        /* \"@uniswap/v3-core/contracts/libraries/TickMath.sol\":644:653  -MIN_TICK */\n      0x00\n      sub\n        /* \"@uniswap/v3-core/contracts/libraries/TickMath.sol\":1561:1578  uint256(MAX_TICK) */\n      0x02\n      signextend\n        /* \"@uniswap/v3-core/contracts/libraries/TickMath.sol\":1550:1557  absTick */\n      dup2\n        /* \"@uniswap/v3-core/contracts/libraries/TickMath.sol\":1550:1578  absTick <= uint256(MAX_TICK) */\n      gt\n      iszero\n        /* \"@uniswap/v3-core/contracts/libraries/TickMath.sol\":1542:1584  require(absTick <= uint256(MAX_TICK), 'T') */\n      tag_86\n      jumpi\n      mload(0x40)\n      0x08c379a000000000000000000000000000000000000000000000000000000000\n      dup2\n      mstore\n      0x04\n      add\n      dup1\n      dup1\n      0x20\n      add\n      dup3\n      dup2\n      sub\n      dup3\n      mstore\n      0x01\n      dup2\n      mstore\n      0x20\n      add\n      dup1\n      0x5400000000000000000000000000000000000000000000000000000000000000\n      dup2\n      mstore\n      pop\n      0x20\n      add\n      swap2\n      pop\n      pop\n      mload(0x40)\n      dup1\n      swap2\n      sub\n      swap1\n      revert\n    tag_86:\n        /* \"@uniswap/v3-core/contracts/libraries/TickMath.sol\":1595:1608  uint256 ratio */\n      0x00\n        /* \"@uniswap/v3-core/contracts/libraries/TickMath.sol\":1628:1629  0 */\n      dup1\n        /* \"@uniswap/v3-core/contracts/libraries/TickMath.sol\":1621:1624  0x1 */\n      0x01\n        /* \"@uniswap/v3-core/contracts/libraries/TickMath.sol\":1611:1618  absTick */\n      dup4\n        /* \"@uniswap/v3-core/contracts/libraries/TickMath.sol\":1611:1624  absTick & 0x1 */\n      and\n        /* \"@uniswap/v3-core/contracts/libraries/TickMath.sol\":1611:1629  absTick & 0x1 != 0 */\n      eq\n      iszero\n        /* \"@uniswap/v3-core/contracts/libraries/TickMath.sol\":1611:1704  absTick & 0x1 != 0 ? 0xfffcb933bd6fad37aa2d162d1a594001 : 0x100000000000000000000000000000000 */\n      tag_87\n      jumpi\n        /* \"@uniswap/v3-core/contracts/libraries/TickMath.sol\":1669:1704  0x100000000000000000000000000000000 */\n      0x0100000000000000000000000000000000\n        /* \"@uniswap/v3-core/contracts/libraries/TickMath.sol\":1611:1704  absTick & 0x1 != 0 ? 0xfffcb933bd6fad37aa2d162d1a594001 : 0x100000000000000000000000000000000 */\n      jump(tag_88)\n    tag_87:\n        /* \"@uniswap/v3-core/contracts/libraries/TickMath.sol\":1632:1666  0xfffcb933bd6fad37aa2d162d1a594001 */\n      0xfffcb933bd6fad37aa2d162d1a594001\n        /* \"@uniswap/v3-core/contracts/libraries/TickMath.sol\":1611:1704  absTick & 0x1 != 0 ? 0xfffcb933bd6fad37aa2d162d1a594001 : 0x100000000000000000000000000000000 */\n    tag_88:\n        /* \"@uniswap/v3-core/contracts/libraries/TickMath.sol\":1595:1704  uint256 ratio = absTick & 0x1 != 0 ? 0xfffcb933bd6fad37aa2d162d1a594001 : 0x100000000000000000000000000000000 */\n      0xffffffffffffffffffffffffffffffffff\n      and\n      swap1\n      pop\n        /* \"@uniswap/v3-core/contracts/libraries/TickMath.sol\":1735:1736  0 */\n      0x00\n        /* \"@uniswap/v3-core/contracts/libraries/TickMath.sol\":1728:1731  0x2 */\n      0x02\n        /* \"@uniswap/v3-core/contracts/libraries/TickMath.sol\":1718:1725  absTick */\n      dup4\n        /* \"@uniswap/v3-core/contracts/libraries/TickMath.sol\":1718:1731  absTick & 0x2 */\n      and\n        /* \"@uniswap/v3-core/contracts/libraries/TickMath.sol\":1718:1736  absTick & 0x2 != 0 */\n      eq\n        /* \"@uniswap/v3-core/contracts/libraries/TickMath.sol\":1714:1797  if (absTick & 0x2 != 0) ratio = (ratio * 0xfff97272373d413259a46990580e213a) >> 128 */\n      tag_89\n      jumpi\n        /* \"@uniswap/v3-core/contracts/libraries/TickMath.sol\":1794:1797  128 */\n      0x80\n        /* \"@uniswap/v3-core/contracts/libraries/TickMath.sol\":1755:1789  0xfff97272373d413259a46990580e213a */\n      0xfff97272373d413259a46990580e213a\n        /* \"@uniswap/v3-core/contracts/libraries/TickMath.sol\":1747:1752  ratio */\n      dup3\n        /* \"@uniswap/v3-core/contracts/libraries/TickMath.sol\":1747:1789  ratio * 0xfff97272373d413259a46990580e213a */\n      mul\n        /* \"@uniswap/v3-core/contracts/libraries/TickMath.sol\":1746:1797  (ratio * 0xfff97272373d413259a46990580e213a) >> 128 */\n      swap1\n      shr\n        /* \"@uniswap/v3-core/contracts/libraries/TickMath.sol\":1738:1797  ratio = (ratio * 0xfff97272373d413259a46990580e213a) >> 128 */\n      swap1\n      pop\n        /* \"@uniswap/v3-core/contracts/libraries/TickMath.sol\":1714:1797  if (absTick & 0x2 != 0) ratio = (ratio * 0xfff97272373d413259a46990580e213a) >> 128 */\n    tag_89:\n        /* \"@uniswap/v3-core/contracts/libraries/TickMath.sol\":1828:1829  0 */\n      0x00\n        /* \"@uniswap/v3-core/contracts/libraries/TickMath.sol\":1821:1824  0x4 */\n      0x04\n        /* \"@uniswap/v3-core/contracts/libraries/TickMath.sol\":1811:1818  absTick */\n      dup4\n        /* \"@uniswap/v3-core/contracts/libraries/TickMath.sol\":1811:1824  absTick & 0x4 */\n      and\n        /* \"@uniswap/v3-core/contracts/libraries/TickMath.sol\":1811:1829  absTick & 0x4 != 0 */\n      eq\n        /* \"@uniswap/v3-core/contracts/libraries/TickMath.sol\":1807:1890  if (absTick & 0x4 != 0) ratio = (ratio * 0xfff2e50f5f656932ef12357cf3c7fdcc) >> 128 */\n      tag_90\n      jumpi\n        /* \"@uniswap/v3-core/contracts/libraries/TickMath.sol\":1887:1890  128 */\n      0x80\n        /* \"@uniswap/v3-core/contracts/libraries/TickMath.sol\":1848:1882  0xfff2e50f5f656932ef12357cf3c7fdcc */\n      0xfff2e50f5f656932ef12357cf3c7fdcc\n        /* \"@uniswap/v3-core/contracts/libraries/TickMath.sol\":1840:1845  ratio */\n      dup3\n        /* \"@uniswap/v3-core/contracts/libraries/TickMath.sol\":1840:1882  ratio * 0xfff2e50f5f656932ef12357cf3c7fdcc */\n      mul\n        /* \"@uniswap/v3-core/contracts/libraries/TickMath.sol\":1839:1890  (ratio * 0xfff2e50f5f656932ef12357cf3c7fdcc) >> 128 */\n      swap1\n      shr\n        /* \"@uniswap/v3-core/contracts/libraries/TickMath.sol\":1831:1890  ratio = (ratio * 0xfff2e50f5f656932ef12357cf3c7fdcc) >> 128 */\n      swap1\n      pop\n        /* \"@uniswap/v3-core/contracts/libraries/TickMath.sol\":1807:1890  if (absTick & 0x4 != 0) ratio = (ratio * 0xfff2e50f5f656932ef12357cf3c7fdcc) >> 128 */\n    tag_90:\n        /* \"@uniswap/v3-core/contracts/libraries/TickMath.sol\":1921:1922  0 */\n      0x00\n        /* \"@uniswap/v3-core/contracts/libraries/TickMath.sol\":1914:1917  0x8 */\n      0x08\n        /* \"@uniswap/v3-core/contracts/libraries/TickMath.sol\":1904:1911  absTick */\n      dup4\n        /* \"@uniswap/v3-core/contracts/libraries/TickMath.sol\":1904:1917  absTick & 0x8 */\n      and\n        /* \"@uniswap/v3-core/contracts/libraries/TickMath.sol\":1904:1922  absTick & 0x8 != 0 */\n      eq\n        /* \"@uniswap/v3-core/contracts/libraries/TickMath.sol\":1900:1983  if (absTick & 0x8 != 0) ratio = (ratio * 0xffe5caca7e10e4e61c3624eaa0941cd0) >> 128 */\n      tag_91\n      jumpi\n        /* \"@uniswap/v3-core/contracts/libraries/TickMath.sol\":1980:1983  128 */\n      0x80\n        /* \"@uniswap/v3-core/contracts/libraries/TickMath.sol\":1941:1975  0xffe5caca7e10e4e61c3624eaa0941cd0 */\n      0xffe5caca7e10e4e61c3624eaa0941cd0\n        /* \"@uniswap/v3-core/contracts/libraries/TickMath.sol\":1933:1938  ratio */\n      dup3\n        /* \"@uniswap/v3-core/contracts/libraries/TickMath.sol\":1933:1975  ratio * 0xffe5caca7e10e4e61c3624eaa0941cd0 */\n      mul\n        /* \"@uniswap/v3-core/contracts/libraries/TickMath.sol\":1932:1983  (ratio * 0xffe5caca7e10e4e61c3624eaa0941cd0) >> 128 */\n      swap1\n      shr\n        /* \"@uniswap/v3-core/contracts/libraries/TickMath.sol\":1924:1983  ratio = (ratio * 0xffe5caca7e10e4e61c3624eaa0941cd0) >> 128 */\n      swap1\n      pop\n        /* \"@uniswap/v3-core/contracts/libraries/TickMath.sol\":1900:1983  if (absTick & 0x8 != 0) ratio = (ratio * 0xffe5caca7e10e4e61c3624eaa0941cd0) >> 128 */\n    tag_91:\n        /* \"@uniswap/v3-core/contracts/libraries/TickMath.sol\":2015:2016  0 */\n      0x00\n        /* \"@uniswap/v3-core/contracts/libraries/TickMath.sol\":2007:2011  0x10 */\n      0x10\n        /* \"@uniswap/v3-core/contracts/libraries/TickMath.sol\":1997:2004  absTick */\n      dup4\n        /* \"@uniswap/v3-core/contracts/libraries/TickMath.sol\":1997:2011  absTick & 0x10 */\n      and\n        /* \"@uniswap/v3-core/contracts/libraries/TickMath.sol\":1997:2016  absTick & 0x10 != 0 */\n      eq\n        /* \"@uniswap/v3-core/contracts/libraries/TickMath.sol\":1993:2077  if (absTick & 0x10 != 0) ratio = (ratio * 0xffcb9843d60f6159c9db58835c926644) >> 128 */\n      tag_92\n      jumpi\n        /* \"@uniswap/v3-core/contracts/libraries/TickMath.sol\":2074:2077  128 */\n      0x80\n        /* \"@uniswap/v3-core/contracts/libraries/TickMath.sol\":2035:2069  0xffcb9843d60f6159c9db58835c926644 */\n      0xffcb9843d60f6159c9db58835c926644\n        /* \"@uniswap/v3-core/contracts/libraries/TickMath.sol\":2027:2032  ratio */\n      dup3\n        /* \"@uniswap/v3-core/contracts/libraries/TickMath.sol\":2027:2069  ratio * 0xffcb9843d60f6159c9db58835c926644 */\n      mul\n        /* \"@uniswap/v3-core/contracts/libraries/TickMath.sol\":2026:2077  (ratio * 0xffcb9843d60f6159c9db58835c926644) >> 128 */\n      swap1\n      shr\n        /* \"@uniswap/v3-core/contracts/libraries/TickMath.sol\":2018:2077  ratio = (ratio * 0xffcb9843d60f6159c9db58835c926644) >> 128 */\n      swap1\n      pop\n        /* \"@uniswap/v3-core/contracts/libraries/TickMath.sol\":1993:2077  if (absTick & 0x10 != 0) ratio = (ratio * 0xffcb9843d60f6159c9db58835c926644) >> 128 */\n    tag_92:\n        /* \"@uniswap/v3-core/contracts/libraries/TickMath.sol\":2109:2110  0 */\n      0x00\n        /* \"@uniswap/v3-core/contracts/libraries/TickMath.sol\":2101:2105  0x20 */\n      0x20\n        /* \"@uniswap/v3-core/contracts/libraries/TickMath.sol\":2091:2098  absTick */\n      dup4\n        /* \"@uniswap/v3-core/contracts/libraries/TickMath.sol\":2091:2105  absTick & 0x20 */\n      and\n        /* \"@uniswap/v3-core/contracts/libraries/TickMath.sol\":2091:2110  absTick & 0x20 != 0 */\n      eq\n        /* \"@uniswap/v3-core/contracts/libraries/TickMath.sol\":2087:2171  if (absTick & 0x20 != 0) ratio = (ratio * 0xff973b41fa98c081472e6896dfb254c0) >> 128 */\n      tag_93\n      jumpi\n        /* \"@uniswap/v3-core/contracts/libraries/TickMath.sol\":2168:2171  128 */\n      0x80\n        /* \"@uniswap/v3-core/contracts/libraries/TickMath.sol\":2129:2163  0xff973b41fa98c081472e6896dfb254c0 */\n      0xff973b41fa98c081472e6896dfb254c0\n        /* \"@uniswap/v3-core/contracts/libraries/TickMath.sol\":2121:2126  ratio */\n      dup3\n        /* \"@uniswap/v3-core/contracts/libraries/TickMath.sol\":2121:2163  ratio * 0xff973b41fa98c081472e6896dfb254c0 */\n      mul\n        /* \"@uniswap/v3-core/contracts/libraries/TickMath.sol\":2120:2171  (ratio * 0xff973b41fa98c081472e6896dfb254c0) >> 128 */\n      swap1\n      shr\n        /* \"@uniswap/v3-core/contracts/libraries/TickMath.sol\":2112:2171  ratio = (ratio * 0xff973b41fa98c081472e6896dfb254c0) >> 128 */\n      swap1\n      pop\n        /* \"@uniswap/v3-core/contracts/libraries/TickMath.sol\":2087:2171  if (absTick & 0x20 != 0) ratio = (ratio * 0xff973b41fa98c081472e6896dfb254c0) >> 128 */\n    tag_93:\n        /* \"@uniswap/v3-core/contracts/libraries/TickMath.sol\":2203:2204  0 */\n      0x00\n        /* \"@uniswap/v3-core/contracts/libraries/TickMath.sol\":2195:2199  0x40 */\n      0x40\n        /* \"@uniswap/v3-core/contracts/libraries/TickMath.sol\":2185:2192  absTick */\n      dup4\n        /* \"@uniswap/v3-core/contracts/libraries/TickMath.sol\":2185:2199  absTick & 0x40 */\n      and\n        /* \"@uniswap/v3-core/contracts/libraries/TickMath.sol\":2185:2204  absTick & 0x40 != 0 */\n      eq\n        /* \"@uniswap/v3-core/contracts/libraries/TickMath.sol\":2181:2265  if (absTick & 0x40 != 0) ratio = (ratio * 0xff2ea16466c96a3843ec78b326b52861) >> 128 */\n      tag_94\n      jumpi\n        /* \"@uniswap/v3-core/contracts/libraries/TickMath.sol\":2262:2265  128 */\n      0x80\n        /* \"@uniswap/v3-core/contracts/libraries/TickMath.sol\":2223:2257  0xff2ea16466c96a3843ec78b326b52861 */\n      0xff2ea16466c96a3843ec78b326b52861\n        /* \"@uniswap/v3-core/contracts/libraries/TickMath.sol\":2215:2220  ratio */\n      dup3\n        /* \"@uniswap/v3-core/contracts/libraries/TickMath.sol\":2215:2257  ratio * 0xff2ea16466c96a3843ec78b326b52861 */\n      mul\n        /* \"@uniswap/v3-core/contracts/libraries/TickMath.sol\":2214:2265  (ratio * 0xff2ea16466c96a3843ec78b326b52861) >> 128 */\n      swap1\n      shr\n        /* \"@uniswap/v3-core/contracts/libraries/TickMath.sol\":2206:2265  ratio = (ratio * 0xff2ea16466c96a3843ec78b326b52861) >> 128 */\n      swap1\n      pop\n        /* \"@uniswap/v3-core/contracts/libraries/TickMath.sol\":2181:2265  if (absTick & 0x40 != 0) ratio = (ratio * 0xff2ea16466c96a3843ec78b326b52861) >> 128 */\n    tag_94:\n        /* \"@uniswap/v3-core/contracts/libraries/TickMath.sol\":2297:2298  0 */\n      0x00\n        /* \"@uniswap/v3-core/contracts/libraries/TickMath.sol\":2289:2293  0x80 */\n      0x80\n        /* \"@uniswap/v3-core/contracts/libraries/TickMath.sol\":2279:2286  absTick */\n      dup4\n        /* \"@uniswap/v3-core/contracts/libraries/TickMath.sol\":2279:2293  absTick & 0x80 */\n      and\n        /* \"@uniswap/v3-core/contracts/libraries/TickMath.sol\":2279:2298  absTick & 0x80 != 0 */\n      eq\n        /* \"@uniswap/v3-core/contracts/libraries/TickMath.sol\":2275:2359  if (absTick & 0x80 != 0) ratio = (ratio * 0xfe5dee046a99a2a811c461f1969c3053) >> 128 */\n      tag_95\n      jumpi\n        /* \"@uniswap/v3-core/contracts/libraries/TickMath.sol\":2356:2359  128 */\n      0x80\n        /* \"@uniswap/v3-core/contracts/libraries/TickMath.sol\":2317:2351  0xfe5dee046a99a2a811c461f1969c3053 */\n      0xfe5dee046a99a2a811c461f1969c3053\n        /* \"@uniswap/v3-core/contracts/libraries/TickMath.sol\":2309:2314  ratio */\n      dup3\n        /* \"@uniswap/v3-core/contracts/libraries/TickMath.sol\":2309:2351  ratio * 0xfe5dee046a99a2a811c461f1969c3053 */\n      mul\n        /* \"@uniswap/v3-core/contracts/libraries/TickMath.sol\":2308:2359  (ratio * 0xfe5dee046a99a2a811c461f1969c3053) >> 128 */\n      swap1\n      shr\n        /* \"@uniswap/v3-core/contracts/libraries/TickMath.sol\":2300:2359  ratio = (ratio * 0xfe5dee046a99a2a811c461f1969c3053) >> 128 */\n      swap1\n      pop\n        /* \"@uniswap/v3-core/contracts/libraries/TickMath.sol\":2275:2359  if (absTick & 0x80 != 0) ratio = (ratio * 0xfe5dee046a99a2a811c461f1969c3053) >> 128 */\n    tag_95:\n        /* \"@uniswap/v3-core/contracts/libraries/TickMath.sol\":2392:2393  0 */\n      0x00\n        /* \"@uniswap/v3-core/contracts/libraries/TickMath.sol\":2383:2388  0x100 */\n      0x0100\n        /* \"@uniswap/v3-core/contracts/libraries/TickMath.sol\":2373:2380  absTick */\n      dup4\n        /* \"@uniswap/v3-core/contracts/libraries/TickMath.sol\":2373:2388  absTick & 0x100 */\n      and\n        /* \"@uniswap/v3-core/contracts/libraries/TickMath.sol\":2373:2393  absTick & 0x100 != 0 */\n      eq\n        /* \"@uniswap/v3-core/contracts/libraries/TickMath.sol\":2369:2454  if (absTick & 0x100 != 0) ratio = (ratio * 0xfcbe86c7900a88aedcffc83b479aa3a4) >> 128 */\n      tag_96\n      jumpi\n        /* \"@uniswap/v3-core/contracts/libraries/TickMath.sol\":2451:2454  128 */\n      0x80\n        /* \"@uniswap/v3-core/contracts/libraries/TickMath.sol\":2412:2446  0xfcbe86c7900a88aedcffc83b479aa3a4 */\n      0xfcbe86c7900a88aedcffc83b479aa3a4\n        /* \"@uniswap/v3-core/contracts/libraries/TickMath.sol\":2404:2409  ratio */\n      dup3\n        /* \"@uniswap/v3-core/contracts/libraries/TickMath.sol\":2404:2446  ratio * 0xfcbe86c7900a88aedcffc83b479aa3a4 */\n      mul\n        /* \"@uniswap/v3-core/contracts/libraries/TickMath.sol\":2403:2454  (ratio * 0xfcbe86c7900a88aedcffc83b479aa3a4) >> 128 */\n      swap1\n      shr\n        /* \"@uniswap/v3-core/contracts/libraries/TickMath.sol\":2395:2454  ratio = (ratio * 0xfcbe86c7900a88aedcffc83b479aa3a4) >> 128 */\n      swap1\n      pop\n        /* \"@uniswap/v3-core/contracts/libraries/TickMath.sol\":2369:2454  if (absTick & 0x100 != 0) ratio = (ratio * 0xfcbe86c7900a88aedcffc83b479aa3a4) >> 128 */\n    tag_96:\n        /* \"@uniswap/v3-core/contracts/libraries/TickMath.sol\":2487:2488  0 */\n      0x00\n        /* \"@uniswap/v3-core/contracts/libraries/TickMath.sol\":2478:2483  0x200 */\n      0x0200\n        /* \"@uniswap/v3-core/contracts/libraries/TickMath.sol\":2468:2475  absTick */\n      dup4\n        /* \"@uniswap/v3-core/contracts/libraries/TickMath.sol\":2468:2483  absTick & 0x200 */\n      and\n        /* \"@uniswap/v3-core/contracts/libraries/TickMath.sol\":2468:2488  absTick & 0x200 != 0 */\n      eq\n        /* \"@uniswap/v3-core/contracts/libraries/TickMath.sol\":2464:2549  if (absTick & 0x200 != 0) ratio = (ratio * 0xf987a7253ac413176f2b074cf7815e54) >> 128 */\n      tag_97\n      jumpi\n        /* \"@uniswap/v3-core/contracts/libraries/TickMath.sol\":2546:2549  128 */\n      0x80\n        /* \"@uniswap/v3-core/contracts/libraries/TickMath.sol\":2507:2541  0xf987a7253ac413176f2b074cf7815e54 */\n      0xf987a7253ac413176f2b074cf7815e54\n        /* \"@uniswap/v3-core/contracts/libraries/TickMath.sol\":2499:2504  ratio */\n      dup3\n        /* \"@uniswap/v3-core/contracts/libraries/TickMath.sol\":2499:2541  ratio * 0xf987a7253ac413176f2b074cf7815e54 */\n      mul\n        /* \"@uniswap/v3-core/contracts/libraries/TickMath.sol\":2498:2549  (ratio * 0xf987a7253ac413176f2b074cf7815e54) >> 128 */\n      swap1\n      shr\n        /* \"@uniswap/v3-core/contracts/libraries/TickMath.sol\":2490:2549  ratio = (ratio * 0xf987a7253ac413176f2b074cf7815e54) >> 128 */\n      swap1\n      pop\n        /* \"@uniswap/v3-core/contracts/libraries/TickMath.sol\":2464:2549  if (absTick & 0x200 != 0) ratio = (ratio * 0xf987a7253ac413176f2b074cf7815e54) >> 128 */\n    tag_97:\n        /* \"@uniswap/v3-core/contracts/libraries/TickMath.sol\":2582:2583  0 */\n      0x00\n        /* \"@uniswap/v3-core/contracts/libraries/TickMath.sol\":2573:2578  0x400 */\n      0x0400\n        /* \"@uniswap/v3-core/contracts/libraries/TickMath.sol\":2563:2570  absTick */\n      dup4\n        /* \"@uniswap/v3-core/contracts/libraries/TickMath.sol\":2563:2578  absTick & 0x400 */\n      and\n        /* \"@uniswap/v3-core/contracts/libraries/TickMath.sol\":2563:2583  absTick & 0x400 != 0 */\n      eq\n        /* \"@uniswap/v3-core/contracts/libraries/TickMath.sol\":2559:2644  if (absTick & 0x400 != 0) ratio = (ratio * 0xf3392b0822b70005940c7a398e4b70f3) >> 128 */\n      tag_98\n      jumpi\n        /* \"@uniswap/v3-core/contracts/libraries/TickMath.sol\":2641:2644  128 */\n      0x80\n        /* \"@uniswap/v3-core/contracts/libraries/TickMath.sol\":2602:2636  0xf3392b0822b70005940c7a398e4b70f3 */\n      0xf3392b0822b70005940c7a398e4b70f3\n        /* \"@uniswap/v3-core/contracts/libraries/TickMath.sol\":2594:2599  ratio */\n      dup3\n        /* \"@uniswap/v3-core/contracts/libraries/TickMath.sol\":2594:2636  ratio * 0xf3392b0822b70005940c7a398e4b70f3 */\n      mul\n        /* \"@uniswap/v3-core/contracts/libraries/TickMath.sol\":2593:2644  (ratio * 0xf3392b0822b70005940c7a398e4b70f3) >> 128 */\n      swap1\n      shr\n        /* \"@uniswap/v3-core/contracts/libraries/TickMath.sol\":2585:2644  ratio = (ratio * 0xf3392b0822b70005940c7a398e4b70f3) >> 128 */\n      swap1\n      pop\n        /* \"@uniswap/v3-core/contracts/libraries/TickMath.sol\":2559:2644  if (absTick & 0x400 != 0) ratio = (ratio * 0xf3392b0822b70005940c7a398e4b70f3) >> 128 */\n    tag_98:\n        /* \"@uniswap/v3-core/contracts/libraries/TickMath.sol\":2677:2678  0 */\n      0x00\n        /* \"@uniswap/v3-core/contracts/libraries/TickMath.sol\":2668:2673  0x800 */\n      0x0800\n        /* \"@uniswap/v3-core/contracts/libraries/TickMath.sol\":2658:2665  absTick */\n      dup4\n        /* \"@uniswap/v3-core/contracts/libraries/TickMath.sol\":2658:2673  absTick & 0x800 */\n      and\n        /* \"@uniswap/v3-core/contracts/libraries/TickMath.sol\":2658:2678  absTick & 0x800 != 0 */\n      eq\n        /* \"@uniswap/v3-core/contracts/libraries/TickMath.sol\":2654:2739  if (absTick & 0x800 != 0) ratio = (ratio * 0xe7159475a2c29b7443b29c7fa6e889d9) >> 128 */\n      tag_99\n      jumpi\n        /* \"@uniswap/v3-core/contracts/libraries/TickMath.sol\":2736:2739  128 */\n      0x80\n        /* \"@uniswap/v3-core/contracts/libraries/TickMath.sol\":2697:2731  0xe7159475a2c29b7443b29c7fa6e889d9 */\n      0xe7159475a2c29b7443b29c7fa6e889d9\n        /* \"@uniswap/v3-core/contracts/libraries/TickMath.sol\":2689:2694  ratio */\n      dup3\n        /* \"@uniswap/v3-core/contracts/libraries/TickMath.sol\":2689:2731  ratio * 0xe7159475a2c29b7443b29c7fa6e889d9 */\n      mul\n        /* \"@uniswap/v3-core/contracts/libraries/TickMath.sol\":2688:2739  (ratio * 0xe7159475a2c29b7443b29c7fa6e889d9) >> 128 */\n      swap1\n      shr\n        /* \"@uniswap/v3-core/contracts/libraries/TickMath.sol\":2680:2739  ratio = (ratio * 0xe7159475a2c29b7443b29c7fa6e889d9) >> 128 */\n      swap1\n      pop\n        /* \"@uniswap/v3-core/contracts/libraries/TickMath.sol\":2654:2739  if (absTick & 0x800 != 0) ratio = (ratio * 0xe7159475a2c29b7443b29c7fa6e889d9) >> 128 */\n    tag_99:\n        /* \"@uniswap/v3-core/contracts/libraries/TickMath.sol\":2773:2774  0 */\n      0x00\n        /* \"@uniswap/v3-core/contracts/libraries/TickMath.sol\":2763:2769  0x1000 */\n      0x1000\n        /* \"@uniswap/v3-core/contracts/libraries/TickMath.sol\":2753:2760  absTick */\n      dup4\n        /* \"@uniswap/v3-core/contracts/libraries/TickMath.sol\":2753:2769  absTick & 0x1000 */\n      and\n        /* \"@uniswap/v3-core/contracts/libraries/TickMath.sol\":2753:2774  absTick & 0x1000 != 0 */\n      eq\n        /* \"@uniswap/v3-core/contracts/libraries/TickMath.sol\":2749:2835  if (absTick & 0x1000 != 0) ratio = (ratio * 0xd097f3bdfd2022b8845ad8f792aa5825) >> 128 */\n      tag_100\n      jumpi\n        /* \"@uniswap/v3-core/contracts/libraries/TickMath.sol\":2832:2835  128 */\n      0x80\n        /* \"@uniswap/v3-core/contracts/libraries/TickMath.sol\":2793:2827  0xd097f3bdfd2022b8845ad8f792aa5825 */\n      0xd097f3bdfd2022b8845ad8f792aa5825\n        /* \"@uniswap/v3-core/contracts/libraries/TickMath.sol\":2785:2790  ratio */\n      dup3\n        /* \"@uniswap/v3-core/contracts/libraries/TickMath.sol\":2785:2827  ratio * 0xd097f3bdfd2022b8845ad8f792aa5825 */\n      mul\n        /* \"@uniswap/v3-core/contracts/libraries/TickMath.sol\":2784:2835  (ratio * 0xd097f3bdfd2022b8845ad8f792aa5825) >> 128 */\n      swap1\n      shr\n        /* \"@uniswap/v3-core/contracts/libraries/TickMath.sol\":2776:2835  ratio = (ratio * 0xd097f3bdfd2022b8845ad8f792aa5825) >> 128 */\n      swap1\n      pop\n        /* \"@uniswap/v3-core/contracts/libraries/TickMath.sol\":2749:2835  if (absTick & 0x1000 != 0) ratio = (ratio * 0xd097f3bdfd2022b8845ad8f792aa5825) >> 128 */\n    tag_100:\n        /* \"@uniswap/v3-core/contracts/libraries/TickMath.sol\":2869:2870  0 */\n      0x00\n        /* \"@uniswap/v3-core/contracts/libraries/TickMath.sol\":2859:2865  0x2000 */\n      0x2000\n        /* \"@uniswap/v3-core/contracts/libraries/TickMath.sol\":2849:2856  absTick */\n      dup4\n        /* \"@uniswap/v3-core/contracts/libraries/TickMath.sol\":2849:2865  absTick & 0x2000 */\n      and\n        /* \"@uniswap/v3-core/contracts/libraries/TickMath.sol\":2849:2870  absTick & 0x2000 != 0 */\n      eq\n        /* \"@uniswap/v3-core/contracts/libraries/TickMath.sol\":2845:2931  if (absTick & 0x2000 != 0) ratio = (ratio * 0xa9f746462d870fdf8a65dc1f90e061e5) >> 128 */\n      tag_101\n      jumpi\n        /* \"@uniswap/v3-core/contracts/libraries/TickMath.sol\":2928:2931  128 */\n      0x80\n        /* \"@uniswap/v3-core/contracts/libraries/TickMath.sol\":2889:2923  0xa9f746462d870fdf8a65dc1f90e061e5 */\n      0xa9f746462d870fdf8a65dc1f90e061e5\n        /* \"@uniswap/v3-core/contracts/libraries/TickMath.sol\":2881:2886  ratio */\n      dup3\n        /* \"@uniswap/v3-core/contracts/libraries/TickMath.sol\":2881:2923  ratio * 0xa9f746462d870fdf8a65dc1f90e061e5 */\n      mul\n        /* \"@uniswap/v3-core/contracts/libraries/TickMath.sol\":2880:2931  (ratio * 0xa9f746462d870fdf8a65dc1f90e061e5) >> 128 */\n      swap1\n      shr\n        /* \"@uniswap/v3-core/contracts/libraries/TickMath.sol\":2872:2931  ratio = (ratio * 0xa9f746462d870fdf8a65dc1f90e061e5) >> 128 */\n      swap1\n      pop\n        /* \"@uniswap/v3-core/contracts/libraries/TickMath.sol\":2845:2931  if (absTick & 0x2000 != 0) ratio = (ratio * 0xa9f746462d870fdf8a65dc1f90e061e5) >> 128 */\n    tag_101:\n        /* \"@uniswap/v3-core/contracts/libraries/TickMath.sol\":2965:2966  0 */\n      0x00\n        /* \"@uniswap/v3-core/contracts/libraries/TickMath.sol\":2955:2961  0x4000 */\n      0x4000\n        /* \"@uniswap/v3-core/contracts/libraries/TickMath.sol\":2945:2952  absTick */\n      dup4\n        /* \"@uniswap/v3-core/contracts/libraries/TickMath.sol\":2945:2961  absTick & 0x4000 */\n      and\n        /* \"@uniswap/v3-core/contracts/libraries/TickMath.sol\":2945:2966  absTick & 0x4000 != 0 */\n      eq\n        /* \"@uniswap/v3-core/contracts/libraries/TickMath.sol\":2941:3027  if (absTick & 0x4000 != 0) ratio = (ratio * 0x70d869a156d2a1b890bb3df62baf32f7) >> 128 */\n      tag_102\n      jumpi\n        /* \"@uniswap/v3-core/contracts/libraries/TickMath.sol\":3024:3027  128 */\n      0x80\n        /* \"@uniswap/v3-core/contracts/libraries/TickMath.sol\":2985:3019  0x70d869a156d2a1b890bb3df62baf32f7 */\n      0x70d869a156d2a1b890bb3df62baf32f7\n        /* \"@uniswap/v3-core/contracts/libraries/TickMath.sol\":2977:2982  ratio */\n      dup3\n        /* \"@uniswap/v3-core/contracts/libraries/TickMath.sol\":2977:3019  ratio * 0x70d869a156d2a1b890bb3df62baf32f7 */\n      mul\n        /* \"@uniswap/v3-core/contracts/libraries/TickMath.sol\":2976:3027  (ratio * 0x70d869a156d2a1b890bb3df62baf32f7) >> 128 */\n      swap1\n      shr\n        /* \"@uniswap/v3-core/contracts/libraries/TickMath.sol\":2968:3027  ratio = (ratio * 0x70d869a156d2a1b890bb3df62baf32f7) >> 128 */\n      swap1\n      pop\n        /* \"@uniswap/v3-core/contracts/libraries/TickMath.sol\":2941:3027  if (absTick & 0x4000 != 0) ratio = (ratio * 0x70d869a156d2a1b890bb3df62baf32f7) >> 128 */\n    tag_102:\n        /* \"@uniswap/v3-core/contracts/libraries/TickMath.sol\":3061:3062  0 */\n      0x00\n        /* \"@uniswap/v3-core/contracts/libraries/TickMath.sol\":3051:3057  0x8000 */\n      0x8000\n        /* \"@uniswap/v3-core/contracts/libraries/TickMath.sol\":3041:3048  absTick */\n      dup4\n        /* \"@uniswap/v3-core/contracts/libraries/TickMath.sol\":3041:3057  absTick & 0x8000 */\n      and\n        /* \"@uniswap/v3-core/contracts/libraries/TickMath.sol\":3041:3062  absTick & 0x8000 != 0 */\n      eq\n        /* \"@uniswap/v3-core/contracts/libraries/TickMath.sol\":3037:3123  if (absTick & 0x8000 != 0) ratio = (ratio * 0x31be135f97d08fd981231505542fcfa6) >> 128 */\n      tag_103\n      jumpi\n        /* \"@uniswap/v3-core/contracts/libraries/TickMath.sol\":3120:3123  128 */\n      0x80\n        /* \"@uniswap/v3-core/contracts/libraries/TickMath.sol\":3081:3115  0x31be135f97d08fd981231505542fcfa6 */\n      0x31be135f97d08fd981231505542fcfa6\n        /* \"@uniswap/v3-core/contracts/libraries/TickMath.sol\":3073:3078  ratio */\n      dup3\n        /* \"@uniswap/v3-core/contracts/libraries/TickMath.sol\":3073:3115  ratio * 0x31be135f97d08fd981231505542fcfa6 */\n      mul\n        /* \"@uniswap/v3-core/contracts/libraries/TickMath.sol\":3072:3123  (ratio * 0x31be135f97d08fd981231505542fcfa6) >> 128 */\n      swap1\n      shr\n        /* \"@uniswap/v3-core/contracts/libraries/TickMath.sol\":3064:3123  ratio = (ratio * 0x31be135f97d08fd981231505542fcfa6) >> 128 */\n      swap1\n      pop\n        /* \"@uniswap/v3-core/contracts/libraries/TickMath.sol\":3037:3123  if (absTick & 0x8000 != 0) ratio = (ratio * 0x31be135f97d08fd981231505542fcfa6) >> 128 */\n    tag_103:\n        /* \"@uniswap/v3-core/contracts/libraries/TickMath.sol\":3158:3159  0 */\n      0x00\n        /* \"@uniswap/v3-core/contracts/libraries/TickMath.sol\":3147:3154  0x10000 */\n      0x010000\n        /* \"@uniswap/v3-core/contracts/libraries/TickMath.sol\":3137:3144  absTick */\n      dup4\n        /* \"@uniswap/v3-core/contracts/libraries/TickMath.sol\":3137:3154  absTick & 0x10000 */\n      and\n        /* \"@uniswap/v3-core/contracts/libraries/TickMath.sol\":3137:3159  absTick & 0x10000 != 0 */\n      eq\n        /* \"@uniswap/v3-core/contracts/libraries/TickMath.sol\":3133:3219  if (absTick & 0x10000 != 0) ratio = (ratio * 0x9aa508b5b7a84e1c677de54f3e99bc9) >> 128 */\n      tag_104\n      jumpi\n        /* \"@uniswap/v3-core/contracts/libraries/TickMath.sol\":3216:3219  128 */\n      0x80\n        /* \"@uniswap/v3-core/contracts/libraries/TickMath.sol\":3178:3211  0x9aa508b5b7a84e1c677de54f3e99bc9 */\n      0x09aa508b5b7a84e1c677de54f3e99bc9\n        /* \"@uniswap/v3-core/contracts/libraries/TickMath.sol\":3170:3175  ratio */\n      dup3\n        /* \"@uniswap/v3-core/contracts/libraries/TickMath.sol\":3170:3211  ratio * 0x9aa508b5b7a84e1c677de54f3e99bc9 */\n      mul\n        /* \"@uniswap/v3-core/contracts/libraries/TickMath.sol\":3169:3219  (ratio * 0x9aa508b5b7a84e1c677de54f3e99bc9) >> 128 */\n      swap1\n      shr\n        /* \"@uniswap/v3-core/contracts/libraries/TickMath.sol\":3161:3219  ratio = (ratio * 0x9aa508b5b7a84e1c677de54f3e99bc9) >> 128 */\n      swap1\n      pop\n        /* \"@uniswap/v3-core/contracts/libraries/TickMath.sol\":3133:3219  if (absTick & 0x10000 != 0) ratio = (ratio * 0x9aa508b5b7a84e1c677de54f3e99bc9) >> 128 */\n    tag_104:\n        /* \"@uniswap/v3-core/contracts/libraries/TickMath.sol\":3254:3255  0 */\n      0x00\n        /* \"@uniswap/v3-core/contracts/libraries/TickMath.sol\":3243:3250  0x20000 */\n      0x020000\n        /* \"@uniswap/v3-core/contracts/libraries/TickMath.sol\":3233:3240  absTick */\n      dup4\n        /* \"@uniswap/v3-core/contracts/libraries/TickMath.sol\":3233:3250  absTick & 0x20000 */\n      and\n        /* \"@uniswap/v3-core/contracts/libraries/TickMath.sol\":3233:3255  absTick & 0x20000 != 0 */\n      eq\n        /* \"@uniswap/v3-core/contracts/libraries/TickMath.sol\":3229:3314  if (absTick & 0x20000 != 0) ratio = (ratio * 0x5d6af8dedb81196699c329225ee604) >> 128 */\n      tag_105\n      jumpi\n        /* \"@uniswap/v3-core/contracts/libraries/TickMath.sol\":3311:3314  128 */\n      0x80\n        /* \"@uniswap/v3-core/contracts/libraries/TickMath.sol\":3274:3306  0x5d6af8dedb81196699c329225ee604 */\n      0x5d6af8dedb81196699c329225ee604\n        /* \"@uniswap/v3-core/contracts/libraries/TickMath.sol\":3266:3271  ratio */\n      dup3\n        /* \"@uniswap/v3-core/contracts/libraries/TickMath.sol\":3266:3306  ratio * 0x5d6af8dedb81196699c329225ee604 */\n      mul\n        /* \"@uniswap/v3-core/contracts/libraries/TickMath.sol\":3265:3314  (ratio * 0x5d6af8dedb81196699c329225ee604) >> 128 */\n      swap1\n      shr\n        /* \"@uniswap/v3-core/contracts/libraries/TickMath.sol\":3257:3314  ratio = (ratio * 0x5d6af8dedb81196699c329225ee604) >> 128 */\n      swap1\n      pop\n        /* \"@uniswap/v3-core/contracts/libraries/TickMath.sol\":3229:3314  if (absTick & 0x20000 != 0) ratio = (ratio * 0x5d6af8dedb81196699c329225ee604) >> 128 */\n    tag_105:\n        /* \"@uniswap/v3-core/contracts/libraries/TickMath.sol\":3349:3350  0 */\n      0x00\n        /* \"@uniswap/v3-core/contracts/libraries/TickMath.sol\":3338:3345  0x40000 */\n      0x040000\n        /* \"@uniswap/v3-core/contracts/libraries/TickMath.sol\":3328:3335  absTick */\n      dup4\n        /* \"@uniswap/v3-core/contracts/libraries/TickMath.sol\":3328:3345  absTick & 0x40000 */\n      and\n        /* \"@uniswap/v3-core/contracts/libraries/TickMath.sol\":3328:3350  absTick & 0x40000 != 0 */\n      eq\n        /* \"@uniswap/v3-core/contracts/libraries/TickMath.sol\":3324:3407  if (absTick & 0x40000 != 0) ratio = (ratio * 0x2216e584f5fa1ea926041bedfe98) >> 128 */\n      tag_106\n      jumpi\n        /* \"@uniswap/v3-core/contracts/libraries/TickMath.sol\":3404:3407  128 */\n      0x80\n        /* \"@uniswap/v3-core/contracts/libraries/TickMath.sol\":3369:3399  0x2216e584f5fa1ea926041bedfe98 */\n      0x2216e584f5fa1ea926041bedfe98\n        /* \"@uniswap/v3-core/contracts/libraries/TickMath.sol\":3361:3366  ratio */\n      dup3\n        /* \"@uniswap/v3-core/contracts/libraries/TickMath.sol\":3361:3399  ratio * 0x2216e584f5fa1ea926041bedfe98 */\n      mul\n        /* \"@uniswap/v3-core/contracts/libraries/TickMath.sol\":3360:3407  (ratio * 0x2216e584f5fa1ea926041bedfe98) >> 128 */\n      swap1\n      shr\n        /* \"@uniswap/v3-core/contracts/libraries/TickMath.sol\":3352:3407  ratio = (ratio * 0x2216e584f5fa1ea926041bedfe98) >> 128 */\n      swap1\n      pop\n        /* \"@uniswap/v3-core/contracts/libraries/TickMath.sol\":3324:3407  if (absTick & 0x40000 != 0) ratio = (ratio * 0x2216e584f5fa1ea926041bedfe98) >> 128 */\n    tag_106:\n        /* \"@uniswap/v3-core/contracts/libraries/TickMath.sol\":3442:3443  0 */\n      0x00\n        /* \"@uniswap/v3-core/contracts/libraries/TickMath.sol\":3431:3438  0x80000 */\n      0x080000\n        /* \"@uniswap/v3-core/contracts/libraries/TickMath.sol\":3421:3428  absTick */\n      dup4\n        /* \"@uniswap/v3-core/contracts/libraries/TickMath.sol\":3421:3438  absTick & 0x80000 */\n      and\n        /* \"@uniswap/v3-core/contracts/libraries/TickMath.sol\":3421:3443  absTick & 0x80000 != 0 */\n      eq\n        /* \"@uniswap/v3-core/contracts/libraries/TickMath.sol\":3417:3495  if (absTick & 0x80000 != 0) ratio = (ratio * 0x48a170391f7dc42444e8fa2) >> 128 */\n      tag_107\n      jumpi\n        /* \"@uniswap/v3-core/contracts/libraries/TickMath.sol\":3492:3495  128 */\n      0x80\n        /* \"@uniswap/v3-core/contracts/libraries/TickMath.sol\":3462:3487  0x48a170391f7dc42444e8fa2 */\n      0x048a170391f7dc42444e8fa2\n        /* \"@uniswap/v3-core/contracts/libraries/TickMath.sol\":3454:3459  ratio */\n      dup3\n        /* \"@uniswap/v3-core/contracts/libraries/TickMath.sol\":3454:3487  ratio * 0x48a170391f7dc42444e8fa2 */\n      mul\n        /* \"@uniswap/v3-core/contracts/libraries/TickMath.sol\":3453:3495  (ratio * 0x48a170391f7dc42444e8fa2) >> 128 */\n      swap1\n      shr\n        /* \"@uniswap/v3-core/contracts/libraries/TickMath.sol\":3445:3495  ratio = (ratio * 0x48a170391f7dc42444e8fa2) >> 128 */\n      swap1\n      pop\n        /* \"@uniswap/v3-core/contracts/libraries/TickMath.sol\":3417:3495  if (absTick & 0x80000 != 0) ratio = (ratio * 0x48a170391f7dc42444e8fa2) >> 128 */\n    tag_107:\n        /* \"@uniswap/v3-core/contracts/libraries/TickMath.sol\":3517:3518  0 */\n      0x00\n        /* \"@uniswap/v3-core/contracts/libraries/TickMath.sol\":3510:3514  tick */\n      dup5\n        /* \"@uniswap/v3-core/contracts/libraries/TickMath.sol\":3510:3518  tick > 0 */\n      0x02\n      signextend\n      sgt\n        /* \"@uniswap/v3-core/contracts/libraries/TickMath.sol\":3506:3553  if (tick > 0) ratio = type(uint256).max / ratio */\n      iszero\n      tag_108\n      jumpi\n        /* \"@uniswap/v3-core/contracts/libraries/TickMath.sol\":3548:3553  ratio */\n      dup1\n        /* \"@uniswap/v3-core/contracts/libraries/TickMath.sol\":3528:3545  type(uint256).max */\n      0xffffffffffffffffffffffffffffffffffffffffffffffffffffffffffffffff\n        /* \"@uniswap/v3-core/contracts/libraries/TickMath.sol\":3528:3553  type(uint256).max / ratio */\n      dup2\n      tag_109\n      jumpi\n      invalid\n    tag_109:\n      div\n        /* \"@uniswap/v3-core/contracts/libraries/TickMath.sol\":3520:3553  ratio = type(uint256).max / ratio */\n      swap1\n      pop\n        /* \"@uniswap/v3-core/contracts/libraries/TickMath.sol\":3506:3553  if (tick > 0) ratio = type(uint256).max / ratio */\n    tag_108:\n        /* \"@uniswap/v3-core/contracts/libraries/TickMath.sol\":3924:3925  0 */\n      0x00\n        /* \"@uniswap/v3-core/contracts/libraries/TickMath.sol\":3912:3919  1 << 32 */\n      0x0100000000\n        /* \"@uniswap/v3-core/contracts/libraries/TickMath.sol\":3903:3908  ratio */\n      dup3\n        /* \"@uniswap/v3-core/contracts/libraries/TickMath.sol\":3903:3920  ratio % (1 << 32) */\n      dup2\n      tag_110\n      jumpi\n      invalid\n    tag_110:\n      mod\n        /* \"@uniswap/v3-core/contracts/libraries/TickMath.sol\":3903:3925  ratio % (1 << 32) == 0 */\n      eq\n        /* \"@uniswap/v3-core/contracts/libraries/TickMath.sol\":3903:3933  ratio % (1 << 32) == 0 ? 0 : 1 */\n      tag_111\n      jumpi\n        /* \"@uniswap/v3-core/contracts/libraries/TickMath.sol\":3932:3933  1 */\n      0x01\n        /* \"@uniswap/v3-core/contracts/libraries/TickMath.sol\":3903:3933  ratio % (1 << 32) == 0 ? 0 : 1 */\n      jump(tag_112)\n    tag_111:\n        /* \"@uniswap/v3-core/contracts/libraries/TickMath.sol\":3928:3929  0 */\n      0x00\n        /* \"@uniswap/v3-core/contracts/libraries/TickMath.sol\":3903:3933  ratio % (1 << 32) == 0 ? 0 : 1 */\n    tag_112:\n        /* \"@uniswap/v3-core/contracts/libraries/TickMath.sol\":3886:3934  (ratio >> 32) + (ratio % (1 << 32) == 0 ? 0 : 1) */\n      0xff\n      and\n        /* \"@uniswap/v3-core/contracts/libraries/TickMath.sol\":3896:3898  32 */\n      0x20\n        /* \"@uniswap/v3-core/contracts/libraries/TickMath.sol\":3887:3892  ratio */\n      dup3\n        /* \"@uniswap/v3-core/contracts/libraries/TickMath.sol\":3887:3898  ratio >> 32 */\n      swap1\n      shr\n        /* \"@uniswap/v3-core/contracts/libraries/TickMath.sol\":3886:3934  (ratio >> 32) + (ratio % (1 << 32) == 0 ? 0 : 1) */\n      add\n        /* \"@uniswap/v3-core/contracts/libraries/TickMath.sol\":3863:3935  sqrtPriceX96 = uint160((ratio >> 32) + (ratio % (1 << 32) == 0 ? 0 : 1)) */\n      swap3\n      pop\n        /* \"@uniswap/v3-core/contracts/libraries/TickMath.sol\":1362:3942  function getSqrtRatioAtTick(int24 tick) internal pure returns (uint160 sqrtPriceX96) {... */\n      pop\n      pop\n      swap2\n      swap1\n      pop\n      jump\t// out\n        /* \"@uniswap/v3-core/contracts/libraries/FullMath.sol\":749:4525  function mulDiv(... */\n    tag_74:\n        /* \"@uniswap/v3-core/contracts/libraries/FullMath.sol\":861:875  uint256 result */\n      0x00\n        /* \"@uniswap/v3-core/contracts/libraries/FullMath.sol\":1190:1203  uint256 prod0 */\n      dup1\n        /* \"@uniswap/v3-core/contracts/libraries/FullMath.sol\":1258:1271  uint256 prod1 */\n      0x00\n        /* \"@uniswap/v3-core/contracts/libraries/FullMath.sol\":1375:1376  0 */\n      dup1\n        /* \"@uniswap/v3-core/contracts/libraries/FullMath.sol\":1371:1377  not(0) */\n      not\n        /* \"@uniswap/v3-core/contracts/libraries/FullMath.sol\":1368:1369  b */\n      dup6\n        /* \"@uniswap/v3-core/contracts/libraries/FullMath.sol\":1365:1366  a */\n      dup8\n        /* \"@uniswap/v3-core/contracts/libraries/FullMath.sol\":1358:1378  mulmod(a, b, not(0)) */\n      mulmod\n        /* \"@uniswap/v3-core/contracts/libraries/FullMath.sol\":1407:1408  b */\n      dup6\n        /* \"@uniswap/v3-core/contracts/libraries/FullMath.sol\":1404:1405  a */\n      dup8\n        /* \"@uniswap/v3-core/contracts/libraries/FullMath.sol\":1400:1409  mul(a, b) */\n      mul\n        /* \"@uniswap/v3-core/contracts/libraries/FullMath.sol\":1391:1409  prod0 := mul(a, b) */\n      swap3\n      pop\n        /* \"@uniswap/v3-core/contracts/libraries/FullMath.sol\":1458:1463  prod0 */\n      dup3\n        /* \"@uniswap/v3-core/contracts/libraries/FullMath.sol\":1454:1456  mm */\n      dup2\n        /* \"@uniswap/v3-core/contracts/libraries/FullMath.sol\":1451:1464  lt(mm, prod0) */\n      lt\n        /* \"@uniswap/v3-core/contracts/libraries/FullMath.sol\":1443:1448  prod0 */\n      dup4\n        /* \"@uniswap/v3-core/contracts/libraries/FullMath.sol\":1439:1441  mm */\n      dup3\n        /* \"@uniswap/v3-core/contracts/libraries/FullMath.sol\":1435:1449  sub(mm, prod0) */\n      sub\n        /* \"@uniswap/v3-core/contracts/libraries/FullMath.sol\":1431:1465  sub(sub(mm, prod0), lt(mm, prod0)) */\n      sub\n        /* \"@uniswap/v3-core/contracts/libraries/FullMath.sol\":1422:1465  prod1 := sub(sub(mm, prod0), lt(mm, prod0)) */\n      swap2\n      pop\n        /* \"@uniswap/v3-core/contracts/libraries/FullMath.sol\":1334:1475  {... */\n      pop\n        /* \"@uniswap/v3-core/contracts/libraries/FullMath.sol\":1556:1557  0 */\n      0x00\n        /* \"@uniswap/v3-core/contracts/libraries/FullMath.sol\":1547:1552  prod1 */\n      dup2\n        /* \"@uniswap/v3-core/contracts/libraries/FullMath.sol\":1547:1557  prod1 == 0 */\n      eq\n        /* \"@uniswap/v3-core/contracts/libraries/FullMath.sol\":1543:1722  if (prod1 == 0) {... */\n      iszero\n      tag_114\n      jumpi\n        /* \"@uniswap/v3-core/contracts/libraries/FullMath.sol\":1595:1596  0 */\n      0x00\n        /* \"@uniswap/v3-core/contracts/libraries/FullMath.sol\":1581:1592  denominator */\n      dup5\n        /* \"@uniswap/v3-core/contracts/libraries/FullMath.sol\":1581:1596  denominator > 0 */\n      gt\n        /* \"@uniswap/v3-core/contracts/libraries/FullMath.sol\":1573:1597  require(denominator > 0) */\n      tag_115\n      jumpi\n      0x00\n      dup1\n      revert\n    tag_115:\n        /* \"@uniswap/v3-core/contracts/libraries/FullMath.sol\":1659:1670  denominator */\n      dup4\n        /* \"@uniswap/v3-core/contracts/libraries/FullMath.sol\":1652:1657  prod0 */\n      dup3\n        /* \"@uniswap/v3-core/contracts/libraries/FullMath.sol\":1648:1671  div(prod0, denominator) */\n      div\n        /* \"@uniswap/v3-core/contracts/libraries/FullMath.sol\":1638:1671  result := div(prod0, denominator) */\n      swap3\n      pop\n        /* \"@uniswap/v3-core/contracts/libraries/FullMath.sol\":1698:1711  return result */\n      pop\n      pop\n      jump(tag_113)\n        /* \"@uniswap/v3-core/contracts/libraries/FullMath.sol\":1543:1722  if (prod1 == 0) {... */\n    tag_114:\n        /* \"@uniswap/v3-core/contracts/libraries/FullMath.sol\":1849:1854  prod1 */\n      dup1\n        /* \"@uniswap/v3-core/contracts/libraries/FullMath.sol\":1835:1846  denominator */\n      dup5\n        /* \"@uniswap/v3-core/contracts/libraries/FullMath.sol\":1835:1854  denominator > prod1 */\n      gt\n        /* \"@uniswap/v3-core/contracts/libraries/FullMath.sol\":1827:1855  require(denominator > prod1) */\n      tag_116\n      jumpi\n      0x00\n      dup1\n      revert\n    tag_116:\n        /* \"@uniswap/v3-core/contracts/libraries/FullMath.sol\":2132:2149  uint256 remainder */\n      0x00\n        /* \"@uniswap/v3-core/contracts/libraries/FullMath.sol\":2208:2219  denominator */\n      dup5\n        /* \"@uniswap/v3-core/contracts/libraries/FullMath.sol\":2205:2206  b */\n      dup7\n        /* \"@uniswap/v3-core/contracts/libraries/FullMath.sol\":2202:2203  a */\n      dup9\n        /* \"@uniswap/v3-core/contracts/libraries/FullMath.sol\":2195:2220  mulmod(a, b, denominator) */\n      mulmod\n        /* \"@uniswap/v3-core/contracts/libraries/FullMath.sol\":2182:2220  remainder := mulmod(a, b, denominator) */\n      swap1\n      pop\n        /* \"@uniswap/v3-core/contracts/libraries/FullMath.sol\":2351:2356  prod0 */\n      dup3\n        /* \"@uniswap/v3-core/contracts/libraries/FullMath.sol\":2340:2349  remainder */\n      dup2\n        /* \"@uniswap/v3-core/contracts/libraries/FullMath.sol\":2337:2357  gt(remainder, prod0) */\n      gt\n        /* \"@uniswap/v3-core/contracts/libraries/FullMath.sol\":2330:2335  prod1 */\n      dup3\n        /* \"@uniswap/v3-core/contracts/libraries/FullMath.sol\":2326:2358  sub(prod1, gt(remainder, prod0)) */\n      sub\n        /* \"@uniswap/v3-core/contracts/libraries/FullMath.sol\":2317:2358  prod1 := sub(prod1, gt(remainder, prod0)) */\n      swap2\n      pop\n        /* \"@uniswap/v3-core/contracts/libraries/FullMath.sol\":2391:2400  remainder */\n      dup1\n        /* \"@uniswap/v3-core/contracts/libraries/FullMath.sol\":2384:2389  prod0 */\n      dup4\n        /* \"@uniswap/v3-core/contracts/libraries/FullMath.sol\":2380:2401  sub(prod0, remainder) */\n      sub\n        /* \"@uniswap/v3-core/contracts/libraries/FullMath.sol\":2371:2401  prod0 := sub(prod0, remainder) */\n      swap3\n      pop\n        /* \"@uniswap/v3-core/contracts/libraries/FullMath.sol\":2560:2572  uint256 twos */\n      0x00\n        /* \"@uniswap/v3-core/contracts/libraries/FullMath.sol\":2590:2601  denominator */\n      dup6\n        /* \"@uniswap/v3-core/contracts/libraries/FullMath.sol\":2576:2587  denominator */\n      dup7\n        /* \"@uniswap/v3-core/contracts/libraries/FullMath.sol\":2575:2587  -denominator */\n      0x00\n      sub\n        /* \"@uniswap/v3-core/contracts/libraries/FullMath.sol\":2575:2601  -denominator & denominator */\n      and\n        /* \"@uniswap/v3-core/contracts/libraries/FullMath.sol\":2560:2601  uint256 twos = -denominator & denominator */\n      swap1\n      pop\n        /* \"@uniswap/v3-core/contracts/libraries/FullMath.sol\":2712:2716  twos */\n      dup1\n        /* \"@uniswap/v3-core/contracts/libraries/FullMath.sol\":2699:2710  denominator */\n      dup7\n        /* \"@uniswap/v3-core/contracts/libraries/FullMath.sol\":2695:2717  div(denominator, twos) */\n      div\n        /* \"@uniswap/v3-core/contracts/libraries/FullMath.sol\":2680:2717  denominator := div(denominator, twos) */\n      swap6\n      pop\n        /* \"@uniswap/v3-core/contracts/libraries/FullMath.sol\":2834:2838  twos */\n      dup1\n        /* \"@uniswap/v3-core/contracts/libraries/FullMath.sol\":2827:2832  prod0 */\n      dup5\n        /* \"@uniswap/v3-core/contracts/libraries/FullMath.sol\":2823:2839  div(prod0, twos) */\n      div\n        /* \"@uniswap/v3-core/contracts/libraries/FullMath.sol\":2814:2839  prod0 := div(prod0, twos) */\n      swap4\n      pop\n        /* \"@uniswap/v3-core/contracts/libraries/FullMath.sol\":3088:3089  1 */\n      0x01\n        /* \"@uniswap/v3-core/contracts/libraries/FullMath.sol\":3081:3085  twos */\n      dup2\n        /* \"@uniswap/v3-core/contracts/libraries/FullMath.sol\":3074:3078  twos */\n      dup3\n        /* \"@uniswap/v3-core/contracts/libraries/FullMath.sol\":3071:3072  0 */\n      0x00\n        /* \"@uniswap/v3-core/contracts/libraries/FullMath.sol\":3067:3079  sub(0, twos) */\n      sub\n        /* \"@uniswap/v3-core/contracts/libraries/FullMath.sol\":3063:3086  div(sub(0, twos), twos) */\n      div\n        /* \"@uniswap/v3-core/contracts/libraries/FullMath.sol\":3059:3090  add(div(sub(0, twos), twos), 1) */\n      add\n        /* \"@uniswap/v3-core/contracts/libraries/FullMath.sol\":3051:3090  twos := add(div(sub(0, twos), twos), 1) */\n      swap1\n      pop\n        /* \"@uniswap/v3-core/contracts/libraries/FullMath.sol\":3126:3130  twos */\n      dup1\n        /* \"@uniswap/v3-core/contracts/libraries/FullMath.sol\":3118:3123  prod1 */\n      dup4\n        /* \"@uniswap/v3-core/contracts/libraries/FullMath.sol\":3118:3130  prod1 * twos */\n      mul\n        /* \"@uniswap/v3-core/contracts/libraries/FullMath.sol\":3109:3130  prod0 |= prod1 * twos */\n      dup5\n      or\n      swap4\n      pop\n        /* \"@uniswap/v3-core/contracts/libraries/FullMath.sol\":3464:3475  uint256 inv */\n      0x00\n        /* \"@uniswap/v3-core/contracts/libraries/FullMath.sol\":3498:3499  2 */\n      0x02\n        /* \"@uniswap/v3-core/contracts/libraries/FullMath.sol\":3483:3494  denominator */\n      dup8\n        /* \"@uniswap/v3-core/contracts/libraries/FullMath.sol\":3479:3480  3 */\n      0x03\n        /* \"@uniswap/v3-core/contracts/libraries/FullMath.sol\":3479:3494  3 * denominator */\n      mul\n        /* \"@uniswap/v3-core/contracts/libraries/FullMath.sol\":3478:3499  (3 * denominator) ^ 2 */\n      xor\n        /* \"@uniswap/v3-core/contracts/libraries/FullMath.sol\":3464:3499  uint256 inv = (3 * denominator) ^ 2 */\n      swap1\n      pop\n        /* \"@uniswap/v3-core/contracts/libraries/FullMath.sol\":3739:3742  inv */\n      dup1\n        /* \"@uniswap/v3-core/contracts/libraries/FullMath.sol\":3725:3736  denominator */\n      dup8\n        /* \"@uniswap/v3-core/contracts/libraries/FullMath.sol\":3725:3742  denominator * inv */\n      mul\n        /* \"@uniswap/v3-core/contracts/libraries/FullMath.sol\":3721:3722  2 */\n      0x02\n        /* \"@uniswap/v3-core/contracts/libraries/FullMath.sol\":3721:3742  2 - denominator * inv */\n      sub\n        /* \"@uniswap/v3-core/contracts/libraries/FullMath.sol\":3714:3742  inv *= 2 - denominator * inv */\n      dup2\n      mul\n      swap1\n      pop\n        /* \"@uniswap/v3-core/contracts/libraries/FullMath.sol\":3797:3800  inv */\n      dup1\n        /* \"@uniswap/v3-core/contracts/libraries/FullMath.sol\":3783:3794  denominator */\n      dup8\n        /* \"@uniswap/v3-core/contracts/libraries/FullMath.sol\":3783:3800  denominator * inv */\n      mul\n        /* \"@uniswap/v3-core/contracts/libraries/FullMath.sol\":3779:3780  2 */\n      0x02\n        /* \"@uniswap/v3-core/contracts/libraries/FullMath.sol\":3779:3800  2 - denominator * inv */\n      sub\n        /* \"@uniswap/v3-core/contracts/libraries/FullMath.sol\":3772:3800  inv *= 2 - denominator * inv */\n      dup2\n      mul\n      swap1\n      pop\n        /* \"@uniswap/v3-core/contracts/libraries/FullMath.sol\":3856:3859  inv */\n      dup1\n        /* \"@uniswap/v3-core/contracts/libraries/FullMath.sol\":3842:3853  denominator */\n      dup8\n        /* \"@uniswap/v3-core/contracts/libraries/FullMath.sol\":3842:3859  denominator * inv */\n      mul\n        /* \"@uniswap/v3-core/contracts/libraries/FullMath.sol\":3838:3839  2 */\n      0x02\n        /* \"@uniswap/v3-core/contracts/libraries/FullMath.sol\":3838:3859  2 - denominator * inv */\n      sub\n        /* \"@uniswap/v3-core/contracts/libraries/FullMath.sol\":3831:3859  inv *= 2 - denominator * inv */\n      dup2\n      mul\n      swap1\n      pop\n        /* \"@uniswap/v3-core/contracts/libraries/FullMath.sol\":3915:3918  inv */\n      dup1\n        /* \"@uniswap/v3-core/contracts/libraries/FullMath.sol\":3901:3912  denominator */\n      dup8\n        /* \"@uniswap/v3-core/contracts/libraries/FullMath.sol\":3901:3918  denominator * inv */\n      mul\n        /* \"@uniswap/v3-core/contracts/libraries/FullMath.sol\":3897:3898  2 */\n      0x02\n        /* \"@uniswap/v3-core/contracts/libraries/FullMath.sol\":3897:3918  2 - denominator * inv */\n      sub\n        /* \"@uniswap/v3-core/contracts/libraries/FullMath.sol\":3890:3918  inv *= 2 - denominator * inv */\n      dup2\n      mul\n      swap1\n      pop\n        /* \"@uniswap/v3-core/contracts/libraries/FullMath.sol\":3974:3977  inv */\n      dup1\n        /* \"@uniswap/v3-core/contracts/libraries/FullMath.sol\":3960:3971  denominator */\n      dup8\n        /* \"@uniswap/v3-core/contracts/libraries/FullMath.sol\":3960:3977  denominator * inv */\n      mul\n        /* \"@uniswap/v3-core/contracts/libraries/FullMath.sol\":3956:3957  2 */\n      0x02\n        /* \"@uniswap/v3-core/contracts/libraries/FullMath.sol\":3956:3977  2 - denominator * inv */\n      sub\n        /* \"@uniswap/v3-core/contracts/libraries/FullMath.sol\":3949:3977  inv *= 2 - denominator * inv */\n      dup2\n      mul\n      swap1\n      pop\n        /* \"@uniswap/v3-core/contracts/libraries/FullMath.sol\":4034:4037  inv */\n      dup1\n        /* \"@uniswap/v3-core/contracts/libraries/FullMath.sol\":4020:4031  denominator */\n      dup8\n        /* \"@uniswap/v3-core/contracts/libraries/FullMath.sol\":4020:4037  denominator * inv */\n      mul\n        /* \"@uniswap/v3-core/contracts/libraries/FullMath.sol\":4016:4017  2 */\n      0x02\n        /* \"@uniswap/v3-core/contracts/libraries/FullMath.sol\":4016:4037  2 - denominator * inv */\n      sub\n        /* \"@uniswap/v3-core/contracts/libraries/FullMath.sol\":4009:4037  inv *= 2 - denominator * inv */\n      dup2\n      mul\n      swap1\n      pop\n        /* \"@uniswap/v3-core/contracts/libraries/FullMath.sol\":4492:4495  inv */\n      dup1\n        /* \"@uniswap/v3-core/contracts/libraries/FullMath.sol\":4484:4489  prod0 */\n      dup6\n        /* \"@uniswap/v3-core/contracts/libraries/FullMath.sol\":4484:4495  prod0 * inv */\n      mul\n        /* \"@uniswap/v3-core/contracts/libraries/FullMath.sol\":4475:4495  result = prod0 * inv */\n      swap6\n      pop\n        /* \"@uniswap/v3-core/contracts/libraries/FullMath.sol\":4505:4518  return result */\n      pop\n      pop\n      pop\n      pop\n      pop\n        /* \"@uniswap/v3-core/contracts/libraries/FullMath.sol\":749:4525  function mulDiv(... */\n    tag_113:\n      swap4\n      swap3\n      pop\n      pop\n      pop\n      jump\t// out\n        /* \"#utility.yul\":7:146   */\n    tag_118:\n      0x00\n        /* \"#utility.yul\":91:97   */\n      dup2\n        /* \"#utility.yul\":78:98   */\n      calldataload\n        /* \"#utility.yul\":69:98   */\n      swap1\n      pop\n        /* \"#utility.yul\":107:140   */\n      tag_120\n        /* \"#utility.yul\":134:139   */\n      dup2\n        /* \"#utility.yul\":107:140   */\n      tag_121\n      jump\t// in\n    tag_120:\n        /* \"#utility.yul\":59:146   */\n      swap3\n      swap2\n      pop\n      pop\n      jump\t// out\n        /* \"#utility.yul\":152:291   */\n    tag_122:\n      0x00\n        /* \"#utility.yul\":236:242   */\n      dup2\n        /* \"#utility.yul\":223:243   */\n      calldataload\n        /* \"#utility.yul\":214:243   */\n      swap1\n      pop\n        /* \"#utility.yul\":252:285   */\n      tag_124\n        /* \"#utility.yul\":279:284   */\n      dup2\n        /* \"#utility.yul\":252:285   */\n      tag_125\n      jump\t// in\n    tag_124:\n        /* \"#utility.yul\":204:291   */\n      swap3\n      swap2\n      pop\n      pop\n      jump\t// out\n        /* \"#utility.yul\":297:434   */\n    tag_126:\n      0x00\n        /* \"#utility.yul\":380:386   */\n      dup2\n        /* \"#utility.yul\":367:387   */\n      calldataload\n        /* \"#utility.yul\":358:387   */\n      swap1\n      pop\n        /* \"#utility.yul\":396:428   */\n      tag_128\n        /* \"#utility.yul\":422:427   */\n      dup2\n        /* \"#utility.yul\":396:428   */\n      tag_129\n      jump\t// in\n    tag_128:\n        /* \"#utility.yul\":348:434   */\n      swap3\n      swap2\n      pop\n      pop\n      jump\t// out\n        /* \"#utility.yul\":440:990   */\n    tag_16:\n      0x00\n      dup1\n      0x00\n        /* \"#utility.yul\":581:583   */\n      0x60\n        /* \"#utility.yul\":569:578   */\n      dup5\n        /* \"#utility.yul\":560:567   */\n      dup7\n        /* \"#utility.yul\":556:579   */\n      sub\n        /* \"#utility.yul\":552:584   */\n      slt\n        /* \"#utility.yul\":549:551   */\n      iszero\n      tag_131\n      jumpi\n        /* \"#utility.yul\":597:598   */\n      0x00\n        /* \"#utility.yul\":594:595   */\n      dup1\n        /* \"#utility.yul\":587:599   */\n      revert\n        /* \"#utility.yul\":549:551   */\n    tag_131:\n        /* \"#utility.yul\":640:641   */\n      0x00\n        /* \"#utility.yul\":665:718   */\n      tag_132\n        /* \"#utility.yul\":710:717   */\n      dup7\n        /* \"#utility.yul\":701:707   */\n      dup3\n        /* \"#utility.yul\":690:699   */\n      dup8\n        /* \"#utility.yul\":686:708   */\n      add\n        /* \"#utility.yul\":665:718   */\n      tag_118\n      jump\t// in\n    tag_132:\n        /* \"#utility.yul\":655:718   */\n      swap4\n      pop\n        /* \"#utility.yul\":611:728   */\n      pop\n        /* \"#utility.yul\":767:769   */\n      0x20\n        /* \"#utility.yul\":793:846   */\n      tag_133\n        /* \"#utility.yul\":838:845   */\n      dup7\n        /* \"#utility.yul\":829:835   */\n      dup3\n        /* \"#utility.yul\":818:827   */\n      dup8\n        /* \"#utility.yul\":814:836   */\n      add\n        /* \"#utility.yul\":793:846   */\n      tag_122\n      jump\t// in\n    tag_133:\n        /* \"#utility.yul\":783:846   */\n      swap3\n      pop\n        /* \"#utility.yul\":738:856   */\n      pop\n        /* \"#utility.yul\":895:897   */\n      0x40\n        /* \"#utility.yul\":921:973   */\n      tag_134\n        /* \"#utility.yul\":965:972   */\n      dup7\n        /* \"#utility.yul\":956:962   */\n      dup3\n        /* \"#utility.yul\":945:954   */\n      dup8\n        /* \"#utility.yul\":941:963   */\n      add\n        /* \"#utility.yul\":921:973   */\n      tag_126\n      jump\t// in\n    tag_134:\n        /* \"#utility.yul\":911:973   */\n      swap2\n      pop\n        /* \"#utility.yul\":866:983   */\n      pop\n        /* \"#utility.yul\":539:990   */\n      swap3\n      pop\n      swap3\n      pop\n      swap3\n      jump\t// out\n        /* \"#utility.yul\":996:1114   */\n    tag_135:\n        /* \"#utility.yul\":1083:1107   */\n      tag_137\n        /* \"#utility.yul\":1101:1106   */\n      dup2\n        /* \"#utility.yul\":1083:1107   */\n      tag_138\n      jump\t// in\n    tag_137:\n        /* \"#utility.yul\":1078:1081   */\n      dup3\n        /* \"#utility.yul\":1071:1108   */\n      mstore\n        /* \"#utility.yul\":1061:1114   */\n      pop\n      pop\n      jump\t// out\n        /* \"#utility.yul\":1120:1431   */\n    tag_139:\n      0x00\n        /* \"#utility.yul\":1283:1350   */\n      tag_141\n        /* \"#utility.yul\":1347:1349   */\n      0x0d\n        /* \"#utility.yul\":1342:1345   */\n      dup4\n        /* \"#utility.yul\":1283:1350   */\n      tag_142\n      jump\t// in\n    tag_141:\n        /* \"#utility.yul\":1276:1350   */\n      swap2\n      pop\n        /* \"#utility.yul\":1380:1395   */\n      0x696e76616c696420746f6b656e00000000000000000000000000000000000000\n        /* \"#utility.yul\":1376:1377   */\n      0x00\n        /* \"#utility.yul\":1371:1374   */\n      dup4\n        /* \"#utility.yul\":1367:1378   */\n      add\n        /* \"#utility.yul\":1360:1396   */\n      mstore\n        /* \"#utility.yul\":1422:1424   */\n      0x20\n        /* \"#utility.yul\":1417:1420   */\n      dup3\n        /* \"#utility.yul\":1413:1425   */\n      add\n        /* \"#utility.yul\":1406:1425   */\n      swap1\n      pop\n        /* \"#utility.yul\":1266:1431   */\n      swap2\n      swap1\n      pop\n      jump\t// out\n        /* \"#utility.yul\":1437:1555   */\n    tag_143:\n        /* \"#utility.yul\":1524:1548   */\n      tag_145\n        /* \"#utility.yul\":1542:1547   */\n      dup2\n        /* \"#utility.yul\":1524:1548   */\n      tag_146\n      jump\t// in\n    tag_145:\n        /* \"#utility.yul\":1519:1522   */\n      dup3\n        /* \"#utility.yul\":1512:1549   */\n      mstore\n        /* \"#utility.yul\":1502:1555   */\n      pop\n      pop\n      jump\t// out\n        /* \"#utility.yul\":1561:1783   */\n    tag_10:\n      0x00\n        /* \"#utility.yul\":1692:1694   */\n      0x20\n        /* \"#utility.yul\":1681:1690   */\n      dup3\n        /* \"#utility.yul\":1677:1695   */\n      add\n        /* \"#utility.yul\":1669:1695   */\n      swap1\n      pop\n        /* \"#utility.yul\":1705:1776   */\n      tag_148\n        /* \"#utility.yul\":1773:1774   */\n      0x00\n        /* \"#utility.yul\":1762:1771   */\n      dup4\n        /* \"#utility.yul\":1758:1775   */\n      add\n        /* \"#utility.yul\":1749:1755   */\n      dup5\n        /* \"#utility.yul\":1705:1776   */\n      tag_135\n      jump\t// in\n    tag_148:\n        /* \"#utility.yul\":1659:1783   */\n      swap3\n      swap2\n      pop\n      pop\n      jump\t// out\n        /* \"#utility.yul\":1789:2208   */\n    tag_27:\n      0x00\n        /* \"#utility.yul\":1993:1995   */\n      0x20\n        /* \"#utility.yul\":1982:1991   */\n      dup3\n        /* \"#utility.yul\":1978:1996   */\n      add\n        /* \"#utility.yul\":1970:1996   */\n      swap1\n      pop\n        /* \"#utility.yul\":2042:2051   */\n      dup2\n        /* \"#utility.yul\":2036:2040   */\n      dup2\n        /* \"#utility.yul\":2032:2052   */\n      sub\n        /* \"#utility.yul\":2028:2029   */\n      0x00\n        /* \"#utility.yul\":2017:2026   */\n      dup4\n        /* \"#utility.yul\":2013:2030   */\n      add\n        /* \"#utility.yul\":2006:2053   */\n      mstore\n        /* \"#utility.yul\":2070:2201   */\n      tag_150\n        /* \"#utility.yul\":2196:2200   */\n      dup2\n        /* \"#utility.yul\":2070:2201   */\n      tag_139\n      jump\t// in\n    tag_150:\n        /* \"#utility.yul\":2062:2201   */\n      swap1\n      pop\n        /* \"#utility.yul\":1960:2208   */\n      swap2\n      swap1\n      pop\n      jump\t// out\n        /* \"#utility.yul\":2214:2436   */\n    tag_19:\n      0x00\n        /* \"#utility.yul\":2345:2347   */\n      0x20\n        /* \"#utility.yul\":2334:2343   */\n      dup3\n        /* \"#utility.yul\":2330:2348   */\n      add\n        /* \"#utility.yul\":2322:2348   */\n      swap1\n      pop\n        /* \"#utility.yul\":2358:2429   */\n      tag_152\n        /* \"#utility.yul\":2426:2427   */\n      0x00\n        /* \"#utility.yul\":2415:2424   */\n      dup4\n        /* \"#utility.yul\":2411:2428   */\n      add\n        /* \"#utility.yul\":2402:2408   */\n      dup5\n        /* \"#utility.yul\":2358:2429   */\n      tag_143\n      jump\t// in\n    tag_152:\n        /* \"#utility.yul\":2312:2436   */\n      swap3\n      swap2\n      pop\n      pop\n      jump\t// out\n        /* \"#utility.yul\":2442:2611   */\n    tag_142:\n      0x00\n        /* \"#utility.yul\":2560:2566   */\n      dup3\n        /* \"#utility.yul\":2555:2558   */\n      dup3\n        /* \"#utility.yul\":2548:2567   */\n      mstore\n        /* \"#utility.yul\":2600:2604   */\n      0x20\n        /* \"#utility.yul\":2595:2598   */\n      dup3\n        /* \"#utility.yul\":2591:2605   */\n      add\n        /* \"#utility.yul\":2576:2605   */\n      swap1\n      pop\n        /* \"#utility.yul\":2538:2611   */\n      swap3\n      swap2\n      pop\n      pop\n      jump\t// out\n        /* \"#utility.yul\":2617:2713   */\n    tag_138:\n      0x00\n        /* \"#utility.yul\":2683:2707   */\n      tag_155\n        /* \"#utility.yul\":2701:2706   */\n      dup3\n        /* \"#utility.yul\":2683:2707   */\n      tag_156\n      jump\t// in\n    tag_155:\n        /* \"#utility.yul\":2672:2707   */\n      swap1\n      pop\n        /* \"#utility.yul\":2662:2713   */\n      swap2\n      swap1\n      pop\n      jump\t// out\n        /* \"#utility.yul\":2719:2837   */\n    tag_157:\n      0x00\n        /* \"#utility.yul\":2796:2830   */\n      0xffffffffffffffffffffffffffffffff\n        /* \"#utility.yul\":2789:2794   */\n      dup3\n        /* \"#utility.yul\":2785:2831   */\n      and\n        /* \"#utility.yul\":2774:2831   */\n      swap1\n      pop\n        /* \"#utility.yul\":2764:2837   */\n      swap2\n      swap1\n      pop\n      jump\t// out\n        /* \"#utility.yul\":2843:2969   */\n    tag_156:\n      0x00\n        /* \"#utility.yul\":2920:2962   */\n      0xffffffffffffffffffffffffffffffffffffffff\n        /* \"#utility.yul\":2913:2918   */\n      dup3\n        /* \"#utility.yul\":2909:2963   */\n      and\n        /* \"#utility.yul\":2898:2963   */\n      swap1\n      pop\n        /* \"#utility.yul\":2888:2969   */\n      swap2\n      swap1\n      pop\n      jump\t// out\n        /* \"#utility.yul\":2975:3052   */\n    tag_146:\n      0x00\n        /* \"#utility.yul\":3041:3046   */\n      dup2\n        /* \"#utility.yul\":3030:3046   */\n      swap1\n      pop\n        /* \"#utility.yul\":3020:3052   */\n      swap2\n      swap1\n      pop\n      jump\t// out\n        /* \"#utility.yul\":3058:3151   */\n    tag_161:\n      0x00\n        /* \"#utility.yul\":3134:3144   */\n      0xffffffff\n        /* \"#utility.yul\":3127:3132   */\n      dup3\n        /* \"#utility.yul\":3123:3145   */\n      and\n        /* \"#utility.yul\":3112:3145   */\n      swap1\n      pop\n        /* \"#utility.yul\":3102:3151   */\n      swap2\n      swap1\n      pop\n      jump\t// out\n        /* \"#utility.yul\":3157:3279   */\n    tag_121:\n        /* \"#utility.yul\":3230:3254   */\n      tag_164\n        /* \"#utility.yul\":3248:3253   */\n      dup2\n        /* \"#utility.yul\":3230:3254   */\n      tag_138\n      jump\t// in\n    tag_164:\n        /* \"#utility.yul\":3223:3228   */\n      dup2\n        /* \"#utility.yul\":3220:3255   */\n      eq\n        /* \"#utility.yul\":3210:3212   */\n      tag_165\n      jumpi\n        /* \"#utility.yul\":3269:3270   */\n      0x00\n        /* \"#utility.yul\":3266:3267   */\n      dup1\n        /* \"#utility.yul\":3259:3271   */\n      revert\n        /* \"#utility.yul\":3210:3212   */\n    tag_165:\n        /* \"#utility.yul\":3200:3279   */\n      pop\n      jump\t// out\n        /* \"#utility.yul\":3285:3407   */\n    tag_125:\n        /* \"#utility.yul\":3358:3382   */\n      tag_167\n        /* \"#utility.yul\":3376:3381   */\n      dup2\n        /* \"#utility.yul\":3358:3382   */\n      tag_157\n      jump\t// in\n    tag_167:\n        /* \"#utility.yul\":3351:3356   */\n      dup2\n        /* \"#utility.yul\":3348:3383   */\n      eq\n        /* \"#utility.yul\":3338:3340   */\n      tag_168\n      jumpi\n        /* \"#utility.yul\":3397:3398   */\n      0x00\n        /* \"#utility.yul\":3394:3395   */\n      dup1\n        /* \"#utility.yul\":3387:3399   */\n      revert\n        /* \"#utility.yul\":3338:3340   */\n    tag_168:\n        /* \"#utility.yul\":3328:3407   */\n      pop\n      jump\t// out\n        /* \"#utility.yul\":3413:3533   */\n    tag_129:\n        /* \"#utility.yul\":3485:3508   */\n      tag_170\n        /* \"#utility.yul\":3502:3507   */\n      dup2\n        /* \"#utility.yul\":3485:3508   */\n      tag_161\n      jump\t// in\n    tag_170:\n        /* \"#utility.yul\":3478:3483   */\n      dup2\n        /* \"#utility.yul\":3475:3509   */\n      eq\n        /* \"#utility.yul\":3465:3467   */\n      tag_171\n      jumpi\n        /* \"#utility.yul\":3523:3524   */\n      0x00\n        /* \"#utility.yul\":3520:3521   */\n      dup1\n        /* \"#utility.yul\":3513:3525   */\n      revert\n        /* \"#utility.yul\":3465:3467   */\n    tag_171:\n        /* \"#utility.yul\":3455:3533   */\n      pop\n      jump\t// out\n\n    auxdata: 0xa2646970667358221220a9b1bf6f132ac2b87431ccd1f49839b1fcd2c7b8d57068d3570f626be403196f64736f6c63430007060033\n}\n",
				"bytecode": {
					"linkReferences": {},
					"object": "60e06040523480156200001157600080fd5b50604051620015223803806200152283398181016040528101906200003791906200024b565b8373ffffffffffffffffffffffffffffffffffffffff1660808173ffffffffffffffffffffffffffffffffffffffff1660601b815250508273ffffffffffffffffffffffffffffffffffffffff1660a08173ffffffffffffffffffffffffffffffffffffffff1660601b8152505060008273ffffffffffffffffffffffffffffffffffffffff16631698ee828686856040518463ffffffff1660e01b8152600401620000e6939291906200031b565b60206040518083038186803b158015620000ff57600080fd5b505afa15801562000114573d6000803e3d6000fd5b505050506040513d601f19601f820116820180604052508101906200013a91906200021f565b9050600073ffffffffffffffffffffffffffffffffffffffff168173ffffffffffffffffffffffffffffffffffffffff161415620001af576040517f08c379a0000000000000000000000000000000000000000000000000000000008152600401620001a69062000358565b60405180910390fd5b8073ffffffffffffffffffffffffffffffffffffffff1660c08173ffffffffffffffffffffffffffffffffffffffff1660601b81525050505050505062000402565b6000815190506200020281620003ce565b92915050565b6000815190506200021981620003e8565b92915050565b6000602082840312156200023257600080fd5b60006200024284828501620001f1565b91505092915050565b600080600080608085870312156200026257600080fd5b60006200027287828801620001f1565b94505060206200028587828801620001f1565b93505060406200029887828801620001f1565b9250506060620002ab8782880162000208565b91505092959194509250565b620002c2816200038b565b82525050565b6000620002d76014836200037a565b91507f506f6f6c7320646f6573206e6f742065786973740000000000000000000000006000830152602082019050919050565b6200031581620003bf565b82525050565b6000606082019050620003326000830186620002b7565b620003416020830185620002b7565b6200035060408301846200030a565b949350505050565b600060208201905081810360008301526200037381620002c8565b9050919050565b600082825260208201905092915050565b600062000398826200039f565b9050919050565b600073ffffffffffffffffffffffffffffffffffffffff82169050919050565b600062ffffff82169050919050565b620003d9816200038b565b8114620003e557600080fd5b50565b620003f381620003bf565b8114620003ff57600080fd5b50565b60805160601c60a05160601c60c05160601c6110cd620004556000398061010152806102af52508061017c528061028652806102f052508060dd5280610127528061020d528061026052506110cd6000f3fe608060405234801561001057600080fd5b506004361061004c5760003560e01c80630dfe16811461005157806316f0115b1461006f5780638f2e81991461008d578063d21220a7146100bd575b600080fd5b6100596100db565b6040516100669190610f83565b60405180910390f35b6100776100ff565b6040516100849190610f83565b60405180910390f35b6100a760048036038101906100a29190610ed6565b610123565b6040516100b49190610fbe565b60405180910390f35b6100c56102ee565b6040516100d29190610f83565b60405180910390f35b7f000000000000000000000000000000000000000000000000000000000000000081565b7f000000000000000000000000000000000000000000000000000000000000000081565b60007f000000000000000000000000000000000000000000000000000000000000000073ffffffffffffffffffffffffffffffffffffffff168473ffffffffffffffffffffffffffffffffffffffff1614806101ca57507f000000000000000000000000000000000000000000000000000000000000000073ffffffffffffffffffffffffffffffffffffffff168473ffffffffffffffffffffffffffffffffffffffff16145b610209576040517f08c379a000000000000000000000000000000000000000000000000000000000815260040161020090610f9e565b60405180910390fd5b60007f000000000000000000000000000000000000000000000000000000000000000073ffffffffffffffffffffffffffffffffffffffff168573ffffffffffffffffffffffffffffffffffffffff1614610284577f00000000000000000000000000000000000000000000000000000000000000006102a6565b7f00000000000000000000000000000000000000000000000000000000000000005b905060006102d47f000000000000000000000000000000000000000000000000000000000000000085610312565b5090506102e38186888561077f565b925050509392505050565b7f000000000000000000000000000000000000000000000000000000000000000081565b60008060008363ffffffff161415610392576040517f08c379a00000000000000000000000000000000000000000000000000000000081526004018080602001828103825260028152602001807f425000000000000000000000000000000000000000000000000000000000000081525060200191505060405180910390fd5b6000600267ffffffffffffffff811180156103ac57600080fd5b506040519080825280602002602001820160405280156103db5781602001602082028036833780820191505090505b50905083816000815181106103ec57fe5b602002602001019063ffffffff16908163ffffffff168152505060008160018151811061041557fe5b602002602001019063ffffffff16908163ffffffff16815250506000808673ffffffffffffffffffffffffffffffffffffffff1663883bdbfd846040518263ffffffff1660e01b81526004018080602001828103825283818151815260200191508051906020019060200280838360005b838110156104a1578082015181840152602081019050610486565b505050509050019250505060006040518083038186803b1580156104c457600080fd5b505afa1580156104d8573d6000803e3d6000fd5b505050506040513d6000823e3d601f19601f82011682018060405250604081101561050257600080fd5b810190808051604051939291908464010000000082111561052257600080fd5b8382019150602082018581111561053857600080fd5b825186602082028301116401000000008211171561055557600080fd5b8083526020830192505050908051906020019060200280838360005b8381101561058c578082015181840152602081019050610571565b50505050905001604052602001805160405193929190846401000000008211156105b557600080fd5b838201915060208201858111156105cb57600080fd5b82518660208202830111640100000000821117156105e857600080fd5b8083526020830192505050908051906020019060200280838360005b8381101561061f578082015181840152602081019050610604565b505050509050016040525050509150915060008260008151811061063f57fe5b60200260200101518360018151811061065457fe5b602002602001015103905060008260008151811061066e57fe5b60200260200101518360018151811061068357fe5b60200260200101510390508763ffffffff168260060b816106a057fe5b05965060008260060b1280156106cc575060008863ffffffff168360060b816106c557fe5b0760060b14155b156106db578680600190039750505b600073ffffffffffffffffffffffffffffffffffffffff80168963ffffffff1602905060208273ffffffffffffffffffffffffffffffffffffffff1677ffffffffffffffffffffffffffffffffffffffffffffffff16901b77ffffffffffffffffffffffffffffffffffffffffffffffff168177ffffffffffffffffffffffffffffffffffffffffffffffff168161076f57fe5b0496505050505050509250929050565b60008061078b86610982565b90506fffffffffffffffffffffffffffffffff80168173ffffffffffffffffffffffffffffffffffffffff161161089c5760008173ffffffffffffffffffffffffffffffffffffffff168273ffffffffffffffffffffffffffffffffffffffff160290508373ffffffffffffffffffffffffffffffffffffffff168573ffffffffffffffffffffffffffffffffffffffff161061085d576108587801000000000000000000000000000000000000000000000000876fffffffffffffffffffffffffffffffff1683610dbd565b610894565b61089381876fffffffffffffffffffffffffffffffff167801000000000000000000000000000000000000000000000000610dbd565b5b925050610979565b60006108de8273ffffffffffffffffffffffffffffffffffffffff168373ffffffffffffffffffffffffffffffffffffffff1668010000000000000000610dbd565b90508373ffffffffffffffffffffffffffffffffffffffff168573ffffffffffffffffffffffffffffffffffffffff161061094657610941700100000000000000000000000000000000876fffffffffffffffffffffffffffffffff1683610dbd565b610975565b61097481876fffffffffffffffffffffffffffffffff16700100000000000000000000000000000000610dbd565b5b9250505b50949350505050565b60008060008360020b12610999578260020b6109a1565b8260020b6000035b90507ffffffffffffffffffffffffffffffffffffffffffffffffffffffffffff2761860000360020b811115610a3f576040517f08c379a00000000000000000000000000000000000000000000000000000000081526004018080602001828103825260018152602001807f540000000000000000000000000000000000000000000000000000000000000081525060200191505060405180910390fd5b600080600183161415610a6357700100000000000000000000000000000000610a75565b6ffffcb933bd6fad37aa2d162d1a5940015b70ffffffffffffffffffffffffffffffffff16905060006002831614610aaf5760806ffff97272373d413259a46990580e213a8202901c90505b60006004831614610ad45760806ffff2e50f5f656932ef12357cf3c7fdcc8202901c90505b60006008831614610af95760806fffe5caca7e10e4e61c3624eaa0941cd08202901c90505b60006010831614610b1e5760806fffcb9843d60f6159c9db58835c9266448202901c90505b60006020831614610b435760806fff973b41fa98c081472e6896dfb254c08202901c90505b60006040831614610b685760806fff2ea16466c96a3843ec78b326b528618202901c90505b60006080831614610b8d5760806ffe5dee046a99a2a811c461f1969c30538202901c90505b6000610100831614610bb35760806ffcbe86c7900a88aedcffc83b479aa3a48202901c90505b6000610200831614610bd95760806ff987a7253ac413176f2b074cf7815e548202901c90505b6000610400831614610bff5760806ff3392b0822b70005940c7a398e4b70f38202901c90505b6000610800831614610c255760806fe7159475a2c29b7443b29c7fa6e889d98202901c90505b6000611000831614610c4b5760806fd097f3bdfd2022b8845ad8f792aa58258202901c90505b6000612000831614610c715760806fa9f746462d870fdf8a65dc1f90e061e58202901c90505b6000614000831614610c975760806f70d869a156d2a1b890bb3df62baf32f78202901c90505b6000618000831614610cbd5760806f31be135f97d08fd981231505542fcfa68202901c90505b600062010000831614610ce45760806f09aa508b5b7a84e1c677de54f3e99bc98202901c90505b600062020000831614610d0a5760806e5d6af8dedb81196699c329225ee6048202901c90505b600062040000831614610d2f5760806d2216e584f5fa1ea926041bedfe988202901c90505b600062080000831614610d525760806b048a170391f7dc42444e8fa28202901c90505b60008460020b1315610d8b57807fffffffffffffffffffffffffffffffffffffffffffffffffffffffffffffffff81610d8757fe5b0490505b60006401000000008281610d9b57fe5b0614610da8576001610dab565b60005b60ff16602082901c0192505050919050565b600080600080198587098587029250828110838203039150506000811415610df85760008411610dec57600080fd5b83820492505050610e90565b808411610e0457600080fd5b600084868809905082811182039150808303925060008586600003169050808604955080840493506001818260000304019050808302841793506000600287600302189050808702600203810290508087026002038102905080870260020381029050808702600203810290508087026002038102905080870260020381029050808502955050505050505b9392505050565b600081359050610ea681611052565b92915050565b600081359050610ebb81611069565b92915050565b600081359050610ed081611080565b92915050565b600080600060608486031215610eeb57600080fd5b6000610ef986828701610e97565b9350506020610f0a86828701610eac565b9250506040610f1b86828701610ec1565b9150509250925092565b610f2e81610fea565b82525050565b6000610f41600d83610fd9565b91507f696e76616c696420746f6b656e000000000000000000000000000000000000006000830152602082019050919050565b610f7d81611038565b82525050565b6000602082019050610f986000830184610f25565b92915050565b60006020820190508181036000830152610fb781610f34565b9050919050565b6000602082019050610fd36000830184610f74565b92915050565b600082825260208201905092915050565b6000610ff582611018565b9050919050565b60006fffffffffffffffffffffffffffffffff82169050919050565b600073ffffffffffffffffffffffffffffffffffffffff82169050919050565b6000819050919050565b600063ffffffff82169050919050565b61105b81610fea565b811461106657600080fd5b50565b61107281610ffc565b811461107d57600080fd5b50565b61108981611042565b811461109457600080fd5b5056fea2646970667358221220a9b1bf6f132ac2b87431ccd1f49839b1fcd2c7b8d57068d3570f626be403196f64736f6c63430007060033",
					"opcodes": "PUSH1 0xE0 PUSH1 0x40 MSTORE CALLVALUE DUP1 ISZERO PUSH3 0x11 JUMPI PUSH1 0x0 DUP1 REVERT JUMPDEST POP PUSH1 0x40 MLOAD PUSH3 0x1522 CODESIZE SUB DUP1 PUSH3 0x1522 DUP4 CODECOPY DUP2 DUP2 ADD PUSH1 0x40 MSTORE DUP2 ADD SWAP1 PUSH3 0x37 SWAP2 SWAP1 PUSH3 0x24B JUMP JUMPDEST DUP4 PUSH20 0xFFFFFFFFFFFFFFFFFFFFFFFFFFFFFFFFFFFFFFFF AND PUSH1 0x80 DUP2 PUSH20 0xFFFFFFFFFFFFFFFFFFFFFFFFFFFFFFFFFFFFFFFF AND PUSH1 0x60 SHL DUP2 MSTORE POP POP DUP3 PUSH20 0xFFFFFFFFFFFFFFFFFFFFFFFFFFFFFFFFFFFFFFFF AND PUSH1 0xA0 DUP2 PUSH20 0xFFFFFFFFFFFFFFFFFFFFFFFFFFFFFFFFFFFFFFFF AND PUSH1 0x60 SHL DUP2 MSTORE POP POP PUSH1 0x0 DUP3 PUSH20 0xFFFFFFFFFFFFFFFFFFFFFFFFFFFFFFFFFFFFFFFF AND PUSH4 0x1698EE82 DUP7 DUP7 DUP6 PUSH1 0x40 MLOAD DUP5 PUSH4 0xFFFFFFFF AND PUSH1 0xE0 SHL DUP2 MSTORE PUSH1 0x4 ADD PUSH3 0xE6 SWAP4 SWAP3 SWAP2 SWAP1 PUSH3 0x31B JUMP JUMPDEST PUSH1 0x20 PUSH1 0x40 MLOAD DUP1 DUP4 SUB DUP2 DUP7 DUP1 EXTCODESIZE ISZERO DUP1 ISZERO PUSH3 0xFF JUMPI PUSH1 0x0 DUP1 REVERT JUMPDEST POP GAS STATICCALL ISZERO DUP1 ISZERO PUSH3 0x114 JUMPI RETURNDATASIZE PUSH1 0x0 DUP1 RETURNDATACOPY RETURNDATASIZE PUSH1 0x0 REVERT JUMPDEST POP POP POP POP PUSH1 0x40 MLOAD RETURNDATASIZE PUSH1 0x1F NOT PUSH1 0x1F DUP3 ADD AND DUP3 ADD DUP1 PUSH1 0x40 MSTORE POP DUP2 ADD SWAP1 PUSH3 0x13A SWAP2 SWAP1 PUSH3 0x21F JUMP JUMPDEST SWAP1 POP PUSH1 0x0 PUSH20 0xFFFFFFFFFFFFFFFFFFFFFFFFFFFFFFFFFFFFFFFF AND DUP2 PUSH20 0xFFFFFFFFFFFFFFFFFFFFFFFFFFFFFFFFFFFFFFFF AND EQ ISZERO PUSH3 0x1AF JUMPI PUSH1 0x40 MLOAD PUSH32 0x8C379A000000000000000000000000000000000000000000000000000000000 DUP2 MSTORE PUSH1 0x4 ADD PUSH3 0x1A6 SWAP1 PUSH3 0x358 JUMP JUMPDEST PUSH1 0x40 MLOAD DUP1 SWAP2 SUB SWAP1 REVERT JUMPDEST DUP1 PUSH20 0xFFFFFFFFFFFFFFFFFFFFFFFFFFFFFFFFFFFFFFFF AND PUSH1 0xC0 DUP2 PUSH20 0xFFFFFFFFFFFFFFFFFFFFFFFFFFFFFFFFFFFFFFFF AND PUSH1 0x60 SHL DUP2 MSTORE POP POP POP POP POP POP POP PUSH3 0x402 JUMP JUMPDEST PUSH1 0x0 DUP2 MLOAD SWAP1 POP PUSH3 0x202 DUP2 PUSH3 0x3CE JUMP JUMPDEST SWAP3 SWAP2 POP POP JUMP JUMPDEST PUSH1 0x0 DUP2 MLOAD SWAP1 POP PUSH3 0x219 DUP2 PUSH3 0x3E8 JUMP JUMPDEST SWAP3 SWAP2 POP POP JUMP JUMPDEST PUSH1 0x0 PUSH1 0x20 DUP3 DUP5 SUB SLT ISZERO PUSH3 0x232 JUMPI PUSH1 0x0 DUP1 REVERT JUMPDEST PUSH1 0x0 PUSH3 0x242 DUP5 DUP3 DUP6 ADD PUSH3 0x1F1 JUMP JUMPDEST SWAP2 POP POP SWAP3 SWAP2 POP POP JUMP JUMPDEST PUSH1 0x0 DUP1 PUSH1 0x0 DUP1 PUSH1 0x80 DUP6 DUP8 SUB SLT ISZERO PUSH3 0x262 JUMPI PUSH1 0x0 DUP1 REVERT JUMPDEST PUSH1 0x0 PUSH3 0x272 DUP8 DUP3 DUP9 ADD PUSH3 0x1F1 JUMP JUMPDEST SWAP5 POP POP PUSH1 0x20 PUSH3 0x285 DUP8 DUP3 DUP9 ADD PUSH3 0x1F1 JUMP JUMPDEST SWAP4 POP POP PUSH1 0x40 PUSH3 0x298 DUP8 DUP3 DUP9 ADD PUSH3 0x1F1 JUMP JUMPDEST SWAP3 POP POP PUSH1 0x60 PUSH3 0x2AB DUP8 DUP3 DUP9 ADD PUSH3 0x208 JUMP JUMPDEST SWAP2 POP POP SWAP3 SWAP6 SWAP2 SWAP5 POP SWAP3 POP JUMP JUMPDEST PUSH3 0x2C2 DUP2 PUSH3 0x38B JUMP JUMPDEST DUP3 MSTORE POP POP JUMP JUMPDEST PUSH1 0x0 PUSH3 0x2D7 PUSH1 0x14 DUP4 PUSH3 0x37A JUMP JUMPDEST SWAP2 POP PUSH32 0x506F6F6C7320646F6573206E6F74206578697374000000000000000000000000 PUSH1 0x0 DUP4 ADD MSTORE PUSH1 0x20 DUP3 ADD SWAP1 POP SWAP2 SWAP1 POP JUMP JUMPDEST PUSH3 0x315 DUP2 PUSH3 0x3BF JUMP JUMPDEST DUP3 MSTORE POP POP JUMP JUMPDEST PUSH1 0x0 PUSH1 0x60 DUP3 ADD SWAP1 POP PUSH3 0x332 PUSH1 0x0 DUP4 ADD DUP7 PUSH3 0x2B7 JUMP JUMPDEST PUSH3 0x341 PUSH1 0x20 DUP4 ADD DUP6 PUSH3 0x2B7 JUMP JUMPDEST PUSH3 0x350 PUSH1 0x40 DUP4 ADD DUP5 PUSH3 0x30A JUMP JUMPDEST SWAP5 SWAP4 POP POP POP POP JUMP JUMPDEST PUSH1 0x0 PUSH1 0x20 DUP3 ADD SWAP1 POP DUP2 DUP2 SUB PUSH1 0x0 DUP4 ADD MSTORE PUSH3 0x373 DUP2 PUSH3 0x2C8 JUMP JUMPDEST SWAP1 POP SWAP2 SWAP1 POP JUMP JUMPDEST PUSH1 0x0 DUP3 DUP3 MSTORE PUSH1 0x20 DUP3 ADD SWAP1 POP SWAP3 SWAP2 POP POP JUMP JUMPDEST PUSH1 0x0 PUSH3 0x398 DUP3 PUSH3 0x39F JUMP JUMPDEST SWAP1 POP SWAP2 SWAP1 POP JUMP JUMPDEST PUSH1 0x0 PUSH20 0xFFFFFFFFFFFFFFFFFFFFFFFFFFFFFFFFFFFFFFFF DUP3 AND SWAP1 POP SWAP2 SWAP1 POP JUMP JUMPDEST PUSH1 0x0 PUSH3 0xFFFFFF DUP3 AND SWAP1 POP SWAP2 SWAP1 POP JUMP JUMPDEST PUSH3 0x3D9 DUP2 PUSH3 0x38B JUMP JUMPDEST DUP2 EQ PUSH3 0x3E5 JUMPI PUSH1 0x0 DUP1 REVERT JUMPDEST POP JUMP JUMPDEST PUSH3 0x3F3 DUP2 PUSH3 0x3BF JUMP JUMPDEST DUP2 EQ PUSH3 0x3FF JUMPI PUSH1 0x0 DUP1 REVERT JUMPDEST POP JUMP JUMPDEST PUSH1 0x80 MLOAD PUSH1 0x60 SHR PUSH1 0xA0 MLOAD PUSH1 0x60 SHR PUSH1 0xC0 MLOAD PUSH1 0x60 SHR PUSH2 0x10CD PUSH3 0x455 PUSH1 0x0 CODECOPY DUP1 PUSH2 0x101 MSTORE DUP1 PUSH2 0x2AF MSTORE POP DUP1 PUSH2 0x17C MSTORE DUP1 PUSH2 0x286 MSTORE DUP1 PUSH2 0x2F0 MSTORE POP DUP1 PUSH1 0xDD MSTORE DUP1 PUSH2 0x127 MSTORE DUP1 PUSH2 0x20D MSTORE DUP1 PUSH2 0x260 MSTORE POP PUSH2 0x10CD PUSH1 0x0 RETURN INVALID PUSH1 0x80 PUSH1 0x40 MSTORE CALLVALUE DUP1 ISZERO PUSH2 0x10 JUMPI PUSH1 0x0 DUP1 REVERT JUMPDEST POP PUSH1 0x4 CALLDATASIZE LT PUSH2 0x4C JUMPI PUSH1 0x0 CALLDATALOAD PUSH1 0xE0 SHR DUP1 PUSH4 0xDFE1681 EQ PUSH2 0x51 JUMPI DUP1 PUSH4 0x16F0115B EQ PUSH2 0x6F JUMPI DUP1 PUSH4 0x8F2E8199 EQ PUSH2 0x8D JUMPI DUP1 PUSH4 0xD21220A7 EQ PUSH2 0xBD JUMPI JUMPDEST PUSH1 0x0 DUP1 REVERT JUMPDEST PUSH2 0x59 PUSH2 0xDB JUMP JUMPDEST PUSH1 0x40 MLOAD PUSH2 0x66 SWAP2 SWAP1 PUSH2 0xF83 JUMP JUMPDEST PUSH1 0x40 MLOAD DUP1 SWAP2 SUB SWAP1 RETURN JUMPDEST PUSH2 0x77 PUSH2 0xFF JUMP JUMPDEST PUSH1 0x40 MLOAD PUSH2 0x84 SWAP2 SWAP1 PUSH2 0xF83 JUMP JUMPDEST PUSH1 0x40 MLOAD DUP1 SWAP2 SUB SWAP1 RETURN JUMPDEST PUSH2 0xA7 PUSH1 0x4 DUP1 CALLDATASIZE SUB DUP2 ADD SWAP1 PUSH2 0xA2 SWAP2 SWAP1 PUSH2 0xED6 JUMP JUMPDEST PUSH2 0x123 JUMP JUMPDEST PUSH1 0x40 MLOAD PUSH2 0xB4 SWAP2 SWAP1 PUSH2 0xFBE JUMP JUMPDEST PUSH1 0x40 MLOAD DUP1 SWAP2 SUB SWAP1 RETURN JUMPDEST PUSH2 0xC5 PUSH2 0x2EE JUMP JUMPDEST PUSH1 0x40 MLOAD PUSH2 0xD2 SWAP2 SWAP1 PUSH2 0xF83 JUMP JUMPDEST PUSH1 0x40 MLOAD DUP1 SWAP2 SUB SWAP1 RETURN JUMPDEST PUSH32 0x0 DUP2 JUMP JUMPDEST PUSH32 0x0 DUP2 JUMP JUMPDEST PUSH1 0x0 PUSH32 0x0 PUSH20 0xFFFFFFFFFFFFFFFFFFFFFFFFFFFFFFFFFFFFFFFF AND DUP5 PUSH20 0xFFFFFFFFFFFFFFFFFFFFFFFFFFFFFFFFFFFFFFFF AND EQ DUP1 PUSH2 0x1CA JUMPI POP PUSH32 0x0 PUSH20 0xFFFFFFFFFFFFFFFFFFFFFFFFFFFFFFFFFFFFFFFF AND DUP5 PUSH20 0xFFFFFFFFFFFFFFFFFFFFFFFFFFFFFFFFFFFFFFFF AND EQ JUMPDEST PUSH2 0x209 JUMPI PUSH1 0x40 MLOAD PUSH32 0x8C379A000000000000000000000000000000000000000000000000000000000 DUP2 MSTORE PUSH1 0x4 ADD PUSH2 0x200 SWAP1 PUSH2 0xF9E JUMP JUMPDEST PUSH1 0x40 MLOAD DUP1 SWAP2 SUB SWAP1 REVERT JUMPDEST PUSH1 0x0 PUSH32 0x0 PUSH20 0xFFFFFFFFFFFFFFFFFFFFFFFFFFFFFFFFFFFFFFFF AND DUP6 PUSH20 0xFFFFFFFFFFFFFFFFFFFFFFFFFFFFFFFFFFFFFFFF AND EQ PUSH2 0x284 JUMPI PUSH32 0x0 PUSH2 0x2A6 JUMP JUMPDEST PUSH32 0x0 JUMPDEST SWAP1 POP PUSH1 0x0 PUSH2 0x2D4 PUSH32 0x0 DUP6 PUSH2 0x312 JUMP JUMPDEST POP SWAP1 POP PUSH2 0x2E3 DUP2 DUP7 DUP9 DUP6 PUSH2 0x77F JUMP JUMPDEST SWAP3 POP POP POP SWAP4 SWAP3 POP POP POP JUMP JUMPDEST PUSH32 0x0 DUP2 JUMP JUMPDEST PUSH1 0x0 DUP1 PUSH1 0x0 DUP4 PUSH4 0xFFFFFFFF AND EQ ISZERO PUSH2 0x392 JUMPI PUSH1 0x40 MLOAD PUSH32 0x8C379A000000000000000000000000000000000000000000000000000000000 DUP2 MSTORE PUSH1 0x4 ADD DUP1 DUP1 PUSH1 0x20 ADD DUP3 DUP2 SUB DUP3 MSTORE PUSH1 0x2 DUP2 MSTORE PUSH1 0x20 ADD DUP1 PUSH32 0x4250000000000000000000000000000000000000000000000000000000000000 DUP2 MSTORE POP PUSH1 0x20 ADD SWAP2 POP POP PUSH1 0x40 MLOAD DUP1 SWAP2 SUB SWAP1 REVERT JUMPDEST PUSH1 0x0 PUSH1 0x2 PUSH8 0xFFFFFFFFFFFFFFFF DUP2 GT DUP1 ISZERO PUSH2 0x3AC JUMPI PUSH1 0x0 DUP1 REVERT JUMPDEST POP PUSH1 0x40 MLOAD SWAP1 DUP1 DUP3 MSTORE DUP1 PUSH1 0x20 MUL PUSH1 0x20 ADD DUP3 ADD PUSH1 0x40 MSTORE DUP1 ISZERO PUSH2 0x3DB JUMPI DUP2 PUSH1 0x20 ADD PUSH1 0x20 DUP3 MUL DUP1 CALLDATASIZE DUP4 CALLDATACOPY DUP1 DUP3 ADD SWAP2 POP POP SWAP1 POP JUMPDEST POP SWAP1 POP DUP4 DUP2 PUSH1 0x0 DUP2 MLOAD DUP2 LT PUSH2 0x3EC JUMPI INVALID JUMPDEST PUSH1 0x20 MUL PUSH1 0x20 ADD ADD SWAP1 PUSH4 0xFFFFFFFF AND SWAP1 DUP2 PUSH4 0xFFFFFFFF AND DUP2 MSTORE POP POP PUSH1 0x0 DUP2 PUSH1 0x1 DUP2 MLOAD DUP2 LT PUSH2 0x415 JUMPI INVALID JUMPDEST PUSH1 0x20 MUL PUSH1 0x20 ADD ADD SWAP1 PUSH4 0xFFFFFFFF AND SWAP1 DUP2 PUSH4 0xFFFFFFFF AND DUP2 MSTORE POP POP PUSH1 0x0 DUP1 DUP7 PUSH20 0xFFFFFFFFFFFFFFFFFFFFFFFFFFFFFFFFFFFFFFFF AND PUSH4 0x883BDBFD DUP5 PUSH1 0x40 MLOAD DUP3 PUSH4 0xFFFFFFFF AND PUSH1 0xE0 SHL DUP2 MSTORE PUSH1 0x4 ADD DUP1 DUP1 PUSH1 0x20 ADD DUP3 DUP2 SUB DUP3 MSTORE DUP4 DUP2 DUP2 MLOAD DUP2 MSTORE PUSH1 0x20 ADD SWAP2 POP DUP1 MLOAD SWAP1 PUSH1 0x20 ADD SWAP1 PUSH1 0x20 MUL DUP1 DUP4 DUP4 PUSH1 0x0 JUMPDEST DUP4 DUP2 LT ISZERO PUSH2 0x4A1 JUMPI DUP1 DUP3 ADD MLOAD DUP2 DUP5 ADD MSTORE PUSH1 0x20 DUP2 ADD SWAP1 POP PUSH2 0x486 JUMP JUMPDEST POP POP POP POP SWAP1 POP ADD SWAP3 POP POP POP PUSH1 0x0 PUSH1 0x40 MLOAD DUP1 DUP4 SUB DUP2 DUP7 DUP1 EXTCODESIZE ISZERO DUP1 ISZERO PUSH2 0x4C4 JUMPI PUSH1 0x0 DUP1 REVERT JUMPDEST POP GAS STATICCALL ISZERO DUP1 ISZERO PUSH2 0x4D8 JUMPI RETURNDATASIZE PUSH1 0x0 DUP1 RETURNDATACOPY RETURNDATASIZE PUSH1 0x0 REVERT JUMPDEST POP POP POP POP PUSH1 0x40 MLOAD RETURNDATASIZE PUSH1 0x0 DUP3 RETURNDATACOPY RETURNDATASIZE PUSH1 0x1F NOT PUSH1 0x1F DUP3 ADD AND DUP3 ADD DUP1 PUSH1 0x40 MSTORE POP PUSH1 0x40 DUP2 LT ISZERO PUSH2 0x502 JUMPI PUSH1 0x0 DUP1 REVERT JUMPDEST DUP2 ADD SWAP1 DUP1 DUP1 MLOAD PUSH1 0x40 MLOAD SWAP4 SWAP3 SWAP2 SWAP1 DUP5 PUSH5 0x100000000 DUP3 GT ISZERO PUSH2 0x522 JUMPI PUSH1 0x0 DUP1 REVERT JUMPDEST DUP4 DUP3 ADD SWAP2 POP PUSH1 0x20 DUP3 ADD DUP6 DUP2 GT ISZERO PUSH2 0x538 JUMPI PUSH1 0x0 DUP1 REVERT JUMPDEST DUP3 MLOAD DUP7 PUSH1 0x20 DUP3 MUL DUP4 ADD GT PUSH5 0x100000000 DUP3 GT OR ISZERO PUSH2 0x555 JUMPI PUSH1 0x0 DUP1 REVERT JUMPDEST DUP1 DUP4 MSTORE PUSH1 0x20 DUP4 ADD SWAP3 POP POP POP SWAP1 DUP1 MLOAD SWAP1 PUSH1 0x20 ADD SWAP1 PUSH1 0x20 MUL DUP1 DUP4 DUP4 PUSH1 0x0 JUMPDEST DUP4 DUP2 LT ISZERO PUSH2 0x58C JUMPI DUP1 DUP3 ADD MLOAD DUP2 DUP5 ADD MSTORE PUSH1 0x20 DUP2 ADD SWAP1 POP PUSH2 0x571 JUMP JUMPDEST POP POP POP POP SWAP1 POP ADD PUSH1 0x40 MSTORE PUSH1 0x20 ADD DUP1 MLOAD PUSH1 0x40 MLOAD SWAP4 SWAP3 SWAP2 SWAP1 DUP5 PUSH5 0x100000000 DUP3 GT ISZERO PUSH2 0x5B5 JUMPI PUSH1 0x0 DUP1 REVERT JUMPDEST DUP4 DUP3 ADD SWAP2 POP PUSH1 0x20 DUP3 ADD DUP6 DUP2 GT ISZERO PUSH2 0x5CB JUMPI PUSH1 0x0 DUP1 REVERT JUMPDEST DUP3 MLOAD DUP7 PUSH1 0x20 DUP3 MUL DUP4 ADD GT PUSH5 0x100000000 DUP3 GT OR ISZERO PUSH2 0x5E8 JUMPI PUSH1 0x0 DUP1 REVERT JUMPDEST DUP1 DUP4 MSTORE PUSH1 0x20 DUP4 ADD SWAP3 POP POP POP SWAP1 DUP1 MLOAD SWAP1 PUSH1 0x20 ADD SWAP1 PUSH1 0x20 MUL DUP1 DUP4 DUP4 PUSH1 0x0 JUMPDEST DUP4 DUP2 LT ISZERO PUSH2 0x61F JUMPI DUP1 DUP3 ADD MLOAD DUP2 DUP5 ADD MSTORE PUSH1 0x20 DUP2 ADD SWAP1 POP PUSH2 0x604 JUMP JUMPDEST POP POP POP POP SWAP1 POP ADD PUSH1 0x40 MSTORE POP POP POP SWAP2 POP SWAP2 POP PUSH1 0x0 DUP3 PUSH1 0x0 DUP2 MLOAD DUP2 LT PUSH2 0x63F JUMPI INVALID JUMPDEST PUSH1 0x20 MUL PUSH1 0x20 ADD ADD MLOAD DUP4 PUSH1 0x1 DUP2 MLOAD DUP2 LT PUSH2 0x654 JUMPI INVALID JUMPDEST PUSH1 0x20 MUL PUSH1 0x20 ADD ADD MLOAD SUB SWAP1 POP PUSH1 0x0 DUP3 PUSH1 0x0 DUP2 MLOAD DUP2 LT PUSH2 0x66E JUMPI INVALID JUMPDEST PUSH1 0x20 MUL PUSH1 0x20 ADD ADD MLOAD DUP4 PUSH1 0x1 DUP2 MLOAD DUP2 LT PUSH2 0x683 JUMPI INVALID JUMPDEST PUSH1 0x20 MUL PUSH1 0x20 ADD ADD MLOAD SUB SWAP1 POP DUP8 PUSH4 0xFFFFFFFF AND DUP3 PUSH1 0x6 SIGNEXTEND DUP2 PUSH2 0x6A0 JUMPI INVALID JUMPDEST SDIV SWAP7 POP PUSH1 0x0 DUP3 PUSH1 0x6 SIGNEXTEND SLT DUP1 ISZERO PUSH2 0x6CC JUMPI POP PUSH1 0x0 DUP9 PUSH4 0xFFFFFFFF AND DUP4 PUSH1 0x6 SIGNEXTEND DUP2 PUSH2 0x6C5 JUMPI INVALID JUMPDEST SMOD PUSH1 0x6 SIGNEXTEND EQ ISZERO JUMPDEST ISZERO PUSH2 0x6DB JUMPI DUP7 DUP1 PUSH1 0x1 SWAP1 SUB SWAP8 POP POP JUMPDEST PUSH1 0x0 PUSH20 0xFFFFFFFFFFFFFFFFFFFFFFFFFFFFFFFFFFFFFFFF DUP1 AND DUP10 PUSH4 0xFFFFFFFF AND MUL SWAP1 POP PUSH1 0x20 DUP3 PUSH20 0xFFFFFFFFFFFFFFFFFFFFFFFFFFFFFFFFFFFFFFFF AND PUSH24 0xFFFFFFFFFFFFFFFFFFFFFFFFFFFFFFFFFFFFFFFFFFFFFFFF AND SWAP1 SHL PUSH24 0xFFFFFFFFFFFFFFFFFFFFFFFFFFFFFFFFFFFFFFFFFFFFFFFF AND DUP2 PUSH24 0xFFFFFFFFFFFFFFFFFFFFFFFFFFFFFFFFFFFFFFFFFFFFFFFF AND DUP2 PUSH2 0x76F JUMPI INVALID JUMPDEST DIV SWAP7 POP POP POP POP POP POP POP SWAP3 POP SWAP3 SWAP1 POP JUMP JUMPDEST PUSH1 0x0 DUP1 PUSH2 0x78B DUP7 PUSH2 0x982 JUMP JUMPDEST SWAP1 POP PUSH16 0xFFFFFFFFFFFFFFFFFFFFFFFFFFFFFFFF DUP1 AND DUP2 PUSH20 0xFFFFFFFFFFFFFFFFFFFFFFFFFFFFFFFFFFFFFFFF AND GT PUSH2 0x89C JUMPI PUSH1 0x0 DUP2 PUSH20 0xFFFFFFFFFFFFFFFFFFFFFFFFFFFFFFFFFFFFFFFF AND DUP3 PUSH20 0xFFFFFFFFFFFFFFFFFFFFFFFFFFFFFFFFFFFFFFFF AND MUL SWAP1 POP DUP4 PUSH20 0xFFFFFFFFFFFFFFFFFFFFFFFFFFFFFFFFFFFFFFFF AND DUP6 PUSH20 0xFFFFFFFFFFFFFFFFFFFFFFFFFFFFFFFFFFFFFFFF AND LT PUSH2 0x85D JUMPI PUSH2 0x858 PUSH25 0x1000000000000000000000000000000000000000000000000 DUP8 PUSH16 0xFFFFFFFFFFFFFFFFFFFFFFFFFFFFFFFF AND DUP4 PUSH2 0xDBD JUMP JUMPDEST PUSH2 0x894 JUMP JUMPDEST PUSH2 0x893 DUP2 DUP8 PUSH16 0xFFFFFFFFFFFFFFFFFFFFFFFFFFFFFFFF AND PUSH25 0x1000000000000000000000000000000000000000000000000 PUSH2 0xDBD JUMP JUMPDEST JUMPDEST SWAP3 POP POP PUSH2 0x979 JUMP JUMPDEST PUSH1 0x0 PUSH2 0x8DE DUP3 PUSH20 0xFFFFFFFFFFFFFFFFFFFFFFFFFFFFFFFFFFFFFFFF AND DUP4 PUSH20 0xFFFFFFFFFFFFFFFFFFFFFFFFFFFFFFFFFFFFFFFF AND PUSH9 0x10000000000000000 PUSH2 0xDBD JUMP JUMPDEST SWAP1 POP DUP4 PUSH20 0xFFFFFFFFFFFFFFFFFFFFFFFFFFFFFFFFFFFFFFFF AND DUP6 PUSH20 0xFFFFFFFFFFFFFFFFFFFFFFFFFFFFFFFFFFFFFFFF AND LT PUSH2 0x946 JUMPI PUSH2 0x941 PUSH17 0x100000000000000000000000000000000 DUP8 PUSH16 0xFFFFFFFFFFFFFFFFFFFFFFFFFFFFFFFF AND DUP4 PUSH2 0xDBD JUMP JUMPDEST PUSH2 0x975 JUMP JUMPDEST PUSH2 0x974 DUP2 DUP8 PUSH16 0xFFFFFFFFFFFFFFFFFFFFFFFFFFFFFFFF AND PUSH17 0x100000000000000000000000000000000 PUSH2 0xDBD JUMP JUMPDEST JUMPDEST SWAP3 POP POP JUMPDEST POP SWAP5 SWAP4 POP POP POP POP JUMP JUMPDEST PUSH1 0x0 DUP1 PUSH1 0x0 DUP4 PUSH1 0x2 SIGNEXTEND SLT PUSH2 0x999 JUMPI DUP3 PUSH1 0x2 SIGNEXTEND PUSH2 0x9A1 JUMP JUMPDEST DUP3 PUSH1 0x2 SIGNEXTEND PUSH1 0x0 SUB JUMPDEST SWAP1 POP PUSH32 0xFFFFFFFFFFFFFFFFFFFFFFFFFFFFFFFFFFFFFFFFFFFFFFFFFFFFFFFFFFF27618 PUSH1 0x0 SUB PUSH1 0x2 SIGNEXTEND DUP2 GT ISZERO PUSH2 0xA3F JUMPI PUSH1 0x40 MLOAD PUSH32 0x8C379A000000000000000000000000000000000000000000000000000000000 DUP2 MSTORE PUSH1 0x4 ADD DUP1 DUP1 PUSH1 0x20 ADD DUP3 DUP2 SUB DUP3 MSTORE PUSH1 0x1 DUP2 MSTORE PUSH1 0x20 ADD DUP1 PUSH32 0x5400000000000000000000000000000000000000000000000000000000000000 DUP2 MSTORE POP PUSH1 0x20 ADD SWAP2 POP POP PUSH1 0x40 MLOAD DUP1 SWAP2 SUB SWAP1 REVERT JUMPDEST PUSH1 0x0 DUP1 PUSH1 0x1 DUP4 AND EQ ISZERO PUSH2 0xA63 JUMPI PUSH17 0x100000000000000000000000000000000 PUSH2 0xA75 JUMP JUMPDEST PUSH16 0xFFFCB933BD6FAD37AA2D162D1A594001 JUMPDEST PUSH17 0xFFFFFFFFFFFFFFFFFFFFFFFFFFFFFFFFFF AND SWAP1 POP PUSH1 0x0 PUSH1 0x2 DUP4 AND EQ PUSH2 0xAAF JUMPI PUSH1 0x80 PUSH16 0xFFF97272373D413259A46990580E213A DUP3 MUL SWAP1 SHR SWAP1 POP JUMPDEST PUSH1 0x0 PUSH1 0x4 DUP4 AND EQ PUSH2 0xAD4 JUMPI PUSH1 0x80 PUSH16 0xFFF2E50F5F656932EF12357CF3C7FDCC DUP3 MUL SWAP1 SHR SWAP1 POP JUMPDEST PUSH1 0x0 PUSH1 0x8 DUP4 AND EQ PUSH2 0xAF9 JUMPI PUSH1 0x80 PUSH16 0xFFE5CACA7E10E4E61C3624EAA0941CD0 DUP3 MUL SWAP1 SHR SWAP1 POP JUMPDEST PUSH1 0x0 PUSH1 0x10 DUP4 AND EQ PUSH2 0xB1E JUMPI PUSH1 0x80 PUSH16 0xFFCB9843D60F6159C9DB58835C926644 DUP3 MUL SWAP1 SHR SWAP1 POP JUMPDEST PUSH1 0x0 PUSH1 0x20 DUP4 AND EQ PUSH2 0xB43 JUMPI PUSH1 0x80 PUSH16 0xFF973B41FA98C081472E6896DFB254C0 DUP3 MUL SWAP1 SHR SWAP1 POP JUMPDEST PUSH1 0x0 PUSH1 0x40 DUP4 AND EQ PUSH2 0xB68 JUMPI PUSH1 0x80 PUSH16 0xFF2EA16466C96A3843EC78B326B52861 DUP3 MUL SWAP1 SHR SWAP1 POP JUMPDEST PUSH1 0x0 PUSH1 0x80 DUP4 AND EQ PUSH2 0xB8D JUMPI PUSH1 0x80 PUSH16 0xFE5DEE046A99A2A811C461F1969C3053 DUP3 MUL SWAP1 SHR SWAP1 POP JUMPDEST PUSH1 0x0 PUSH2 0x100 DUP4 AND EQ PUSH2 0xBB3 JUMPI PUSH1 0x80 PUSH16 0xFCBE86C7900A88AEDCFFC83B479AA3A4 DUP3 MUL SWAP1 SHR SWAP1 POP JUMPDEST PUSH1 0x0 PUSH2 0x200 DUP4 AND EQ PUSH2 0xBD9 JUMPI PUSH1 0x80 PUSH16 0xF987A7253AC413176F2B074CF7815E54 DUP3 MUL SWAP1 SHR SWAP1 POP JUMPDEST PUSH1 0x0 PUSH2 0x400 DUP4 AND EQ PUSH2 0xBFF JUMPI PUSH1 0x80 PUSH16 0xF3392B0822B70005940C7A398E4B70F3 DUP3 MUL SWAP1 SHR SWAP1 POP JUMPDEST PUSH1 0x0 PUSH2 0x800 DUP4 AND EQ PUSH2 0xC25 JUMPI PUSH1 0x80 PUSH16 0xE7159475A2C29B7443B29C7FA6E889D9 DUP3 MUL SWAP1 SHR SWAP1 POP JUMPDEST PUSH1 0x0 PUSH2 0x1000 DUP4 AND EQ PUSH2 0xC4B JUMPI PUSH1 0x80 PUSH16 0xD097F3BDFD2022B8845AD8F792AA5825 DUP3 MUL SWAP1 SHR SWAP1 POP JUMPDEST PUSH1 0x0 PUSH2 0x2000 DUP4 AND EQ PUSH2 0xC71 JUMPI PUSH1 0x80 PUSH16 0xA9F746462D870FDF8A65DC1F90E061E5 DUP3 MUL SWAP1 SHR SWAP1 POP JUMPDEST PUSH1 0x0 PUSH2 0x4000 DUP4 AND EQ PUSH2 0xC97 JUMPI PUSH1 0x80 PUSH16 0x70D869A156D2A1B890BB3DF62BAF32F7 DUP3 MUL SWAP1 SHR SWAP1 POP JUMPDEST PUSH1 0x0 PUSH2 0x8000 DUP4 AND EQ PUSH2 0xCBD JUMPI PUSH1 0x80 PUSH16 0x31BE135F97D08FD981231505542FCFA6 DUP3 MUL SWAP1 SHR SWAP1 POP JUMPDEST PUSH1 0x0 PUSH3 0x10000 DUP4 AND EQ PUSH2 0xCE4 JUMPI PUSH1 0x80 PUSH16 0x9AA508B5B7A84E1C677DE54F3E99BC9 DUP3 MUL SWAP1 SHR SWAP1 POP JUMPDEST PUSH1 0x0 PUSH3 0x20000 DUP4 AND EQ PUSH2 0xD0A JUMPI PUSH1 0x80 PUSH15 0x5D6AF8DEDB81196699C329225EE604 DUP3 MUL SWAP1 SHR SWAP1 POP JUMPDEST PUSH1 0x0 PUSH3 0x40000 DUP4 AND EQ PUSH2 0xD2F JUMPI PUSH1 0x80 PUSH14 0x2216E584F5FA1EA926041BEDFE98 DUP3 MUL SWAP1 SHR SWAP1 POP JUMPDEST PUSH1 0x0 PUSH3 0x80000 DUP4 AND EQ PUSH2 0xD52 JUMPI PUSH1 0x80 PUSH12 0x48A170391F7DC42444E8FA2 DUP3 MUL SWAP1 SHR SWAP1 POP JUMPDEST PUSH1 0x0 DUP5 PUSH1 0x2 SIGNEXTEND SGT ISZERO PUSH2 0xD8B JUMPI DUP1 PUSH32 0xFFFFFFFFFFFFFFFFFFFFFFFFFFFFFFFFFFFFFFFFFFFFFFFFFFFFFFFFFFFFFFFF DUP2 PUSH2 0xD87 JUMPI INVALID JUMPDEST DIV SWAP1 POP JUMPDEST PUSH1 0x0 PUSH5 0x100000000 DUP3 DUP2 PUSH2 0xD9B JUMPI INVALID JUMPDEST MOD EQ PUSH2 0xDA8 JUMPI PUSH1 0x1 PUSH2 0xDAB JUMP JUMPDEST PUSH1 0x0 JUMPDEST PUSH1 0xFF AND PUSH1 0x20 DUP3 SWAP1 SHR ADD SWAP3 POP POP POP SWAP2 SWAP1 POP JUMP JUMPDEST PUSH1 0x0 DUP1 PUSH1 0x0 DUP1 NOT DUP6 DUP8 MULMOD DUP6 DUP8 MUL SWAP3 POP DUP3 DUP2 LT DUP4 DUP3 SUB SUB SWAP2 POP POP PUSH1 0x0 DUP2 EQ ISZERO PUSH2 0xDF8 JUMPI PUSH1 0x0 DUP5 GT PUSH2 0xDEC JUMPI PUSH1 0x0 DUP1 REVERT JUMPDEST DUP4 DUP3 DIV SWAP3 POP POP POP PUSH2 0xE90 JUMP JUMPDEST DUP1 DUP5 GT PUSH2 0xE04 JUMPI PUSH1 0x0 DUP1 REVERT JUMPDEST PUSH1 0x0 DUP5 DUP7 DUP9 MULMOD SWAP1 POP DUP3 DUP2 GT DUP3 SUB SWAP2 POP DUP1 DUP4 SUB SWAP3 POP PUSH1 0x0 DUP6 DUP7 PUSH1 0x0 SUB AND SWAP1 POP DUP1 DUP7 DIV SWAP6 POP DUP1 DUP5 DIV SWAP4 POP PUSH1 0x1 DUP2 DUP3 PUSH1 0x0 SUB DIV ADD SWAP1 POP DUP1 DUP4 MUL DUP5 OR SWAP4 POP PUSH1 0x0 PUSH1 0x2 DUP8 PUSH1 0x3 MUL XOR SWAP1 POP DUP1 DUP8 MUL PUSH1 0x2 SUB DUP2 MUL SWAP1 POP DUP1 DUP8 MUL PUSH1 0x2 SUB DUP2 MUL SWAP1 POP DUP1 DUP8 MUL PUSH1 0x2 SUB DUP2 MUL SWAP1 POP DUP1 DUP8 MUL PUSH1 0x2 SUB DUP2 MUL SWAP1 POP DUP1 DUP8 MUL PUSH1 0x2 SUB DUP2 MUL SWAP1 POP DUP1 DUP8 MUL PUSH1 0x2 SUB DUP2 MUL SWAP1 POP DUP1 DUP6 MUL SWAP6 POP POP POP POP POP POP JUMPDEST SWAP4 SWAP3 POP POP POP JUMP JUMPDEST PUSH1 0x0 DUP2 CALLDATALOAD SWAP1 POP PUSH2 0xEA6 DUP2 PUSH2 0x1052 JUMP JUMPDEST SWAP3 SWAP2 POP POP JUMP JUMPDEST PUSH1 0x0 DUP2 CALLDATALOAD SWAP1 POP PUSH2 0xEBB DUP2 PUSH2 0x1069 JUMP JUMPDEST SWAP3 SWAP2 POP POP JUMP JUMPDEST PUSH1 0x0 DUP2 CALLDATALOAD SWAP1 POP PUSH2 0xED0 DUP2 PUSH2 0x1080 JUMP JUMPDEST SWAP3 SWAP2 POP POP JUMP JUMPDEST PUSH1 0x0 DUP1 PUSH1 0x0 PUSH1 0x60 DUP5 DUP7 SUB SLT ISZERO PUSH2 0xEEB JUMPI PUSH1 0x0 DUP1 REVERT JUMPDEST PUSH1 0x0 PUSH2 0xEF9 DUP7 DUP3 DUP8 ADD PUSH2 0xE97 JUMP JUMPDEST SWAP4 POP POP PUSH1 0x20 PUSH2 0xF0A DUP7 DUP3 DUP8 ADD PUSH2 0xEAC JUMP JUMPDEST SWAP3 POP POP PUSH1 0x40 PUSH2 0xF1B DUP7 DUP3 DUP8 ADD PUSH2 0xEC1 JUMP JUMPDEST SWAP2 POP POP SWAP3 POP SWAP3 POP SWAP3 JUMP JUMPDEST PUSH2 0xF2E DUP2 PUSH2 0xFEA JUMP JUMPDEST DUP3 MSTORE POP POP JUMP JUMPDEST PUSH1 0x0 PUSH2 0xF41 PUSH1 0xD DUP4 PUSH2 0xFD9 JUMP JUMPDEST SWAP2 POP PUSH32 0x696E76616C696420746F6B656E00000000000000000000000000000000000000 PUSH1 0x0 DUP4 ADD MSTORE PUSH1 0x20 DUP3 ADD SWAP1 POP SWAP2 SWAP1 POP JUMP JUMPDEST PUSH2 0xF7D DUP2 PUSH2 0x1038 JUMP JUMPDEST DUP3 MSTORE POP POP JUMP JUMPDEST PUSH1 0x0 PUSH1 0x20 DUP3 ADD SWAP1 POP PUSH2 0xF98 PUSH1 0x0 DUP4 ADD DUP5 PUSH2 0xF25 JUMP JUMPDEST SWAP3 SWAP2 POP POP JUMP JUMPDEST PUSH1 0x0 PUSH1 0x20 DUP3 ADD SWAP1 POP DUP2 DUP2 SUB PUSH1 0x0 DUP4 ADD MSTORE PUSH2 0xFB7 DUP2 PUSH2 0xF34 JUMP JUMPDEST SWAP1 POP SWAP2 SWAP1 POP JUMP JUMPDEST PUSH1 0x0 PUSH1 0x20 DUP3 ADD SWAP1 POP PUSH2 0xFD3 PUSH1 0x0 DUP4 ADD DUP5 PUSH2 0xF74 JUMP JUMPDEST SWAP3 SWAP2 POP POP JUMP JUMPDEST PUSH1 0x0 DUP3 DUP3 MSTORE PUSH1 0x20 DUP3 ADD SWAP1 POP SWAP3 SWAP2 POP POP JUMP JUMPDEST PUSH1 0x0 PUSH2 0xFF5 DUP3 PUSH2 0x1018 JUMP JUMPDEST SWAP1 POP SWAP2 SWAP1 POP JUMP JUMPDEST PUSH1 0x0 PUSH16 0xFFFFFFFFFFFFFFFFFFFFFFFFFFFFFFFF DUP3 AND SWAP1 POP SWAP2 SWAP1 POP JUMP JUMPDEST PUSH1 0x0 PUSH20 0xFFFFFFFFFFFFFFFFFFFFFFFFFFFFFFFFFFFFFFFF DUP3 AND SWAP1 POP SWAP2 SWAP1 POP JUMP JUMPDEST PUSH1 0x0 DUP2 SWAP1 POP SWAP2 SWAP1 POP JUMP JUMPDEST PUSH1 0x0 PUSH4 0xFFFFFFFF DUP3 AND SWAP1 POP SWAP2 SWAP1 POP JUMP JUMPDEST PUSH2 0x105B DUP2 PUSH2 0xFEA JUMP JUMPDEST DUP2 EQ PUSH2 0x1066 JUMPI PUSH1 0x0 DUP1 REVERT JUMPDEST POP JUMP JUMPDEST PUSH2 0x1072 DUP2 PUSH2 0xFFC JUMP JUMPDEST DUP2 EQ PUSH2 0x107D JUMPI PUSH1 0x0 DUP1 REVERT JUMPDEST POP JUMP JUMPDEST PUSH2 0x1089 DUP2 PUSH2 0x1042 JUMP JUMPDEST DUP2 EQ PUSH2 0x1094 JUMPI PUSH1 0x0 DUP1 REVERT JUMPDEST POP JUMP INVALID LOG2 PUSH5 0x6970667358 0x22 SLT KECCAK256 0xA9 0xB1 0xBF PUSH16 0x132AC2B87431CCD1F49839B1FCD2C7B8 0xD5 PUSH17 0x68D3570F626BE403196F64736F6C634300 SMOD MOD STOP CALLER "
				},
				"gasEstimates": {
					"creation": {
						"codeDepositCost": "860200",
						"executionCost": "infinite",
						"totalCost": "infinite"
					},
					"external": {
						"estimateAmountOut(address,uint128,uint32)": "infinite",
						"pool()": "infinite",
						"token0()": "infinite",
						"token1()": "infinite"
					}
				},
				"methodIdentifiers": {
					"estimateAmountOut(address,uint128,uint32)": "8f2e8199",
					"pool()": "16f0115b",
					"token0()": "0dfe1681",
					"token1()": "d21220a7"
				}
			},
			"storageLayout": {
				"storage": [],
				"types": null
			},
			"userdoc": {
				"kind": "user",
				"methods": {},
				"version": 1
			}
		}
	}
}